:10000000803169288B1708007E1480314E018C1EC8
:100010000A280B283B288C120130F8070030F93DE4
:100020000030FA3D0030FB3D40016F03031D1928ED
:100030001A283B2842016A087802F4006B08793BD1
:10004000F5006C087A3BF6006D087B3BF7007708FB
:10005000031D36287608031D36287508031D36282B
:1000600065307402031C352836283B284001EF0117
:1000700001304201EE004E010F1C3F284028442869
:100080000F109631132680314E018F1E48284928C3
:1000900067289231CC22803173084201ED0072084A
:1000A000EC007108EB007008EA0001304001EF003D
:1000B0007D08A03E860001308700420119088100BA
:1000C0000130F4007408FD077D081F39FD007E1023
:1000D000090080316B284130840094308500C430A1
:1000E00086000130870020309231C6228031F8012D
:1000F000F901FA01FB01FC01FD01EE01EF015A30AB
:1001000084000130850016309231C0228031A03049
:1001100084000130850024309231C02280312030AB
:1001200084000230850040309231C02280317E1040
:10013000400180319B2893310C2380319331572328
:100140008031883101208031943121248031243064
:100150008731792780313F308731792780310230EC
:100160004101EF00ED01EE019231BB2280311930E7
:100170004001B8009930B9008431D4248031BF30B7
:100180004001B8009930B900B430BA009930BB00D2
:100190008431D424803104304101C1003D30890BC9
:1001A000CF28C10BCF2800329231B62280318B1775
:1001B0000B177E013812400112167E01B812400161
:1001C0009216E601E701E801E901EA01EB01EC0121
:1001D000ED0193319D238031400123084201A300AA
:1001E000400122084201A200400121084201A10071
:1001F000400120084201A00023084001A70042015D
:1002000022084001A600420121084001A500420148
:1002100020084001A400420169084001AB004201EE
:1002200068084001AA00420167084001A900420194
:1002300066084001A80096316626803140012708F3
:10024000031D2E292608031D2E292508031D2E29EE
:1002500014302402031C2D292E2961294201230870
:10026000E9002208E8002108E7002008E600003045
:1002700040010C1A0130B10093319D2380314001BF
:100280002308B5002208B4002108B3002008B200FA
:1002900024308931F1218031003040018C1A013045
:1002A000B10093319D23803140012308B50022081D
:1002B000B4002108B3002008B2003F308931F12199
:1002C000803141016F08031D662967298429923115
:1002D000BB22803124304001D8003F30D900ED30BE
:1002E000DA00EE30DB00EF309731702780310430D8
:1002F0004101C1003D30890B7B29C10B7B290032B4
:100300009231B6228031F72A6F03031D882989298B
:100310008E29EF3095317E258031F72A02306F0625
:10032000031D93299429F3299231BB228031243073
:100330004001D8003F30D900ED30DA00EE30DB006C
:10034000EF3097317027803104304101C1003D30DA
:10035000890BA829C10BA82900329231B62280311D
:10036000420123084001A700420122084001A600E3
:10037000420121084001A500420120084001A400DB
:10038000420165084001AB00420164084001AA0037
:10039000420163084001A900420162084001A8002F
:1003A00096316626803140012708031DE229260880
:1003B000031DE229B83024020B30253B031CE12940
:1003C000E229F72A42012308E5002208E400210877
:1003D000E3002008E200D5304001D800EF3094312E
:1003E000DB248031F72A03306F06031DF829F92931
:1003F000FA29F72A04306F06031DFF29002A9B2AD9
:100400009231BB22803124304001D8003F30D900E6
:10041000ED30DA00EE30DB00EF30973170278031BD
:1004200004304101C1003D30890B142AC10B142A4C
:1004300000329231B622803193319D2380314001C8
:1004400023084101E000400122084101DF00400192
:1004500021084101DE00400120084101DD00600863
:100460004001A70041015F084001A60041015E086C
:100470004001A50041015D084001A400420161085E
:100480004001AB00420160084001AA0042015F0840
:100490004001A90042015E084001A800963166268D
:1004A000803140012708031D602A2608031D602AA9
:1004B000B83024020B30253B031C5F2A602AF72A40
:1004C000410160084201E10041015F084201E00092
:1004D00041015E084201DF0041015D084201DE008A
:1004E0009231BB22803120304001B8009830B900F1
:1004F0008431D42480319231B6228031D53040010C
:10050000D800EF309431DB248031A3304101C100A9
:100510005530890B892AC10B892A24304001D80023
:100520003F30D900ED30DA00EE30DB00EF309631AD
:10053000BB268031F72A06306F06031DA02AA12AA8
:10054000C92A9231BB22803194304001B8009830E2
:10055000B9008431D4248031D1304001B8009930C1
:10056000B9008431D424803181304001B800993001
:10057000B9008431D424803104304101C1003D30C0
:10058000890BC02AC10BC02A00329231B6228031B9
:10059000C82A07306F06031DCE2ACF2AF72A9231C8
:1005A000BB2280316E304001B8009830B9008431F0
:1005B000D4248031D1304001B8009930B900843161
:1005C000D424803181304001B8009930B9008431A1
:1005D000D424803104304101C1003D30890BEE2A22
:1005E000C10BEE2A00329231B6228031F62A420146
:1005F0006E080319FC2AFD2A812CEE0140011A1114
:10060000FD0100304101E4000030E3000030E20071
:100610000030E100430124084101C100C201C301CF
:10062000C401430123084101C500C601C701C80137
:100630000830C535C60DC70DC80D890B192B4301F0
:1006400026084101C900CA01CB01CC011030C935CF
:10065000CA0DCB0DCC0D890B272B43012508410179
:10066000CC044908C5044A08C6044B08C7044C0812
:10067000C80441084504CD0042084604CE004308A2
:100680004704CF0044084804D000E13086008701C9
:10069000572BCD308400850104304101C100410851
:1006A0000319582B12001E00C10B522B582B492B3B
:1006B000410164084001B000410163084001AF00FE
:1006C000410162084001AE00410161084001AD00F6
:1006D0004230AC00C830AB000030AA000030A900A6
:1006E0008D31C525803140012C08C6002B08C5007E
:1006F0002A08C4002908C300883111208031400134
:1007000044084101EC00400143084101EB00C830BE
:100710004001B8009930B90041016C084001BB00AC
:1007200041016B084001BA008431D424803100308B
:100730004101E8000030E7000030E6000030E5004D
:10074000430128084101C100C201C301C4014301A2
:1007500027084101C500C601C701C8010830C535D9
:10076000C60DC70DC80D890BAF2B43012A084101E7
:10077000C900CA01CB01CC011030C935CA0DCB0D5F
:10078000CC0D890BBD2B430129084101CC0449083C
:10079000C5044A08C6044B08C7044C08C8044108ED
:1007A0004504D10042084604D20043084704D30060
:1007B00044084804D400E53086008701ED2BD13091
:1007C0008400850104304101C10041080319EE2B6A
:1007D00012001E00C10BE82BEE2BDF2B4101680835
:1007E0004001B000410167084001AF0041016608C7
:1007F0004001AE00410165084001AD004230AC004F
:10080000C830AB000030AA000030A9008D31C525EA
:10081000803140012C08C6002B08C5002A08C400FE
:100820002908C3008831112080314001440841016A
:10083000EA00400143084101E900A9304001B80045
:100840009930B90041016A084001BB0041016908C3
:100850004001BA008431D42480318731FE278031B1
:1008600041016C084001A000003093312A238031FF
:1008700041016B084001A000013093312A238031EF
:1008800041016A084001A000023093312A238031DF
:10089000410169084001A000033093312A238031CF
:1008A0008031022080319231BB228031933120236C
:1008B0008031B7304001B8009830B9009331162329
:1008C000803140012308BD002208BC002108BB0084
:1008D0002008BA0041016C084001BF0041016B08CB
:1008E0004001BE008431D424803104304101C10074
:1008F0003D30890B792CC10B792C00329231B62214
:10090000803193319D238031400123084201A300AF
:10091000400122084201A200400121084201A10039
:10092000400120084201A00023084001A700420125
:1009300022084001A600420121084001A500420111
:1009400020084001A40042015D084001AB004201C3
:100950005C084001AA0042015B084001A900420175
:100960005A084001A80096316626803140012708C8
:10097000031DC52C2608031DC52CD03024020730CA
:10098000253B031CC42CC52CE92842012308DD00AB
:100990002208DC002108DB002008DA009531402520
:1009A0008031E928803169283A304001D300652F31
:1009B000253057060319DD2CDE2CE32C5708933124
:1009C0003F238431652FD501D601D401EC2C541579
:1009D0000130B8070030B93D380884003908850077
:1009E0000008303A0319E72CF52C38088400390840
:1009F00085000008933164238431031C002D012DF0
:100A0000B62D4001D501D6010A304001A0000030CA
:100A1000A1005608A3005508A20094310124843196
:100A200040012108D6002008D50038088400390884
:100A300085000008D03EC000FF3003180030C10020
:100A40004008D5074108D63D0130B8070030B93D10
:100A50003808840039088500000893316423843104
:100A60000318332D342D042DB62D5416B62DD4165F
:100A7000D417DA2D530886008701403FCB00413F51
:100A8000CC000230C0004008D3074B084C04031DC3
:100A90004A2D4B2D4F2DD930CB009930CC00D101B0
:100AA000D201562D0130D1070030D23D4B085107FD
:100AB00084004C08523D85001200031D602D612DFD
:100AC000522D56085202031D672D55085102031876
:100AD0006A2D6B2D702D5108D5025208D63B772D0B
:100AE000D501D601772D203093313F238431FF305B
:100AF0004001D507FF30D63D550A031D832D560A08
:100B0000031D832D842D732D922D4B0884004C08DA
:100B10008500000893313F23843101304001CB0729
:100B20000030CC3D0130D1020030D23B510A031DD0
:100B30009D2D520A031D9D2D9E2D852D652F530839
:100B4000860087010108D7000230C0004008D307A3
:100B50005730CB000030CC000130D1000030D20043
:100B6000612DC030C0004008D404DA2D400139089E
:100B7000C1003808C000B80A0319B90A4008840047
:100B8000410885000008D700003A0319782F583A29
:100B90000319372D3B3A03199F2D0F3A0319352DB1
:100BA0001F3A03193A2D063A0319B12D0D3A0319CC
:100BB000382DA82D541EDD2DDE2DEE2D5308860078
:100BC0008701403FCD00413FCE00423FCF00433F31
:100BD000D0000430C0004008D3077A2E53088600A6
:100BE0008701403FC000413FC1004008CD0041089F
:100BF000CE00CF01D0010230C0004008D3077A2ECA
:100C0000D701D70A0A305706031D072E082E092ED2
:100C1000832E5708C000C101C035C10DC035C10DBC
:100C20004630400784001830413D80388500003F41
:100C3000C200013FC300023FC400033FC500450896
:100C40005002031D2D2E44084F02031D2D2E430874
:100C50004E02031D2D2E42084D020318302E312E58
:100C6000322E832E0130C0004008D7070A305706C5
:100C7000031D3B2E3C2E092E832ED701D70A0830A8
:100C80005706031D442E452E462E832E5708C000BE
:100C9000C101C035C10DC035C10D00304007840011
:100CA0001830413D80388500003FC200013FC3003D
:100CB000023FC400033FC50045085002031D6A2ED1
:100CC00044084F02031D6A2E43084E02031D6A2E7C
:100CD00042084D0203186D2E6E2E6F2E832E0130AA
:100CE000C0004008D70708305706031D782E792E1C
:100CF000462E832E5408C039803A03193D2E403ABF
:100D00000319002E832E5608803A803C031D8A2E3C
:100D10005508570203188D2E8E2E972E4001570826
:100D2000C000C1014008D5024108D63B9A2E4001BF
:100D3000D501D601541D9D2E9E2EB42E5508560465
:100D40000319A32EA42EC92E303093313F238431B2
:100D5000FF304001D507FF30D63D55085604031D2E
:100D6000B22EB32EA42EC92E550856040319B92E3F
:100D7000BA2EC92E203093313F238431FF304001F9
:100D8000D507FF30D63D55085604031DC82EC92E81
:100D9000BA2E5708C000C1014008C9004108CA0066
:100DA000582F0030B1000030B0000030AF000A30E2
:100DB000AE004A088500490884008435850D8435D5
:100DC000850D463084071830053D80388500003F8A
:100DD000A000013FA100023FA200033FA300500872
:100DE000A7004F08A6004E08A5004D08A4009731A3
:100DF0001527843140012308B5002208B4002108DA
:100E0000B3002008B2009531C825843140012E0876
:100E1000303ED700542F4A088500490884008435A5
:100E2000850D8435850D003084071830053D8038E8
:100E30008500003FA000013FA100023FA200033F48
:100E4000A3005008A7004F08A6004E08A5004D08B3
:100E5000A400973115278431400120080F39C800BC
:100E6000D41A332F342F392F4030C6009930C700A1
:100E70003D2F2F30C6009930C7004708C1004608F3
:100E8000C00048084007840041080318410A850053
:100E90000008D700542F5408C039803A03190B2F8B
:100EA000403A0319D12E542F570893313F238431F0
:100EB000FF304001C907FF30CA3D490A031D642FB6
:100EC0004A0A031D642F652F4B2F40013908C100CA
:100ED0003808C000B80A0319B90A4008840041085C
:100EE00085000008D7005708031D772F782FD82CCE
:100EF00008004001A0002008860001308700810121
:100F0000810A200A8600013087008101810A2008B9
:100F1000023E8600013087000130C03F0030C13FF3
:100F2000C23FC33F2008063E8600013087000130E3
:100F3000C03F0030C13FC23FC33F20080A3E860089
:100F4000013087000130C03F0030C13FC23FC33F86
:100F500020080E3E8600013087000130C03F00307F
:100F6000C13FC23FC33F2008123E860001308700C8
:100F700081012008133E860001308700810120088E
:100F8000143E86000130870081012008153E86004E
:100F90000130870081012008163E8600013087005D
:100FA00081012008173E860001308700810120085A
:100FB000183E86000130870081012008193E860016
:100FC00001308700810120081A3E86000130870029
:100FD000810108004001A1007B3021020318F12F9C
:100FE000F22FFC2F61302102031CF72FF82FFC2F6A
:100FF000DF30A0002008A105210808008B1308009D
:101002004E0199121912083042019F0019309B00BB
:101012009C0124309E0090309D004E0199160800DC
:1010220003104001450D460DCC004C08031D1A2843
:101032001B2824280030C6000030C5000030C40040
:101042000030C30081284308C7004408C80045088F
:10105200C9004608CA001F30CA36C90CC80CC70CE2
:10106200890B2D284708CB00C517FF30C305FF3079
:10107200C405FF30C5050030C6059630CC02CC1F32
:10108200432844285C284C08803A973E03184A2893
:101092004B284C281B280130C636C50CC40CC30C87
:1010A200890B4D280130C7004708CC07031D5A2879
:1010B2005B284C28712820304C02031C61286228CE
:1010C2006C281B280130C335C40DC50DC60D890B14
:1010D20064280130CC024C08031D70287128632853
:1010E2004B080319752876288128C309C409C50944
:1010F200C609C30A0319C40A0319C50A0319C60A91
:1011020008004001AE002E08063E8600013087002E
:10111200403FA400413FA500423FA600433FA70035
:101122002E080E3E860001308700403FA800413F56
:10113200A900423FAA00433FAB0027082B02031D30
:10114200AC2826082A02031DAC2825082902031D03
:10115200AC2824082802031CAF28B1280130B22889
:101162000030AC002E08063E860001308700403F6A
:10117200A400413FA500423FA600433FA70020082C
:10118200A8002108A9002208AA002308AB0024080D
:10119200A8022508A93B2608AA3B2708AB3B2B0837
:1011A200031DDD282A08031DDD28A13028020F3087
:1011B200293B0318DD28DF280130E02800304001F8
:1011C200AD002C080319E628E72800292D08031989
:1011D200EB28EC2800292E08163E860001308700F5
:1011E2002E08173E840001308500000881002E0879
:1011F200173E8600013087008101810A12292E08DC
:10120200163E8600013087002E08173E840001300A
:101212008500000881002E08173E860001308700F5
:1012220081012E08163E8600013087000108031D49
:101232001B291C2928292E08173E86000130870009
:101242000103031D252926292829013029290030D7
:1012520008004001E0006008E100E201E301E62944
:10126200E630B8009930B9006308BB006208BA00E2
:101272008431D42489314001E401E5016408620724
:10128200DA006508633DDB0059085B02031D4B2948
:1012920058085A0203184E294F296829EC30B80021
:1012A2009930B90062086107DA0064085A07DB0066
:1012B2005B088600023087000108DC00DD015C0863
:1012C200BA005D08BB008431D42489316F29F23021
:1012D200B8009930B9008431D424893101304001F9
:1012E200E4070030E53D0030650210300319640266
:1012F200031C7C297D293F29F330B8009930B900BD
:101302008431D42489314001E401E5016408620793
:10131200DA006508633DDB0059085B02031D93296F
:1013220058085A02031896299729CC29620861079E
:10133200DA0064085A07DB005B0886000230870087
:1013420001089331772389310318A829A929AF29E4
:101352002E304001DE000030DF00C129400162086A
:101362006107DA0064085A07DB005B088600023076
:1013720087000108DC00DD015C08DE005D08DF009B
:10138200F630B8009930B9005F08BB005E08BA00B9
:101392008431D424893101304001E4070030E53D35
:1013A20000306502103003196402031CD929DA29BE
:1013B2008729E830B8009830B9008431D4248931C3
:1013C20010304001E2070030E33D59086302031D7B
:1013D200EC2958086202031CEF29F0293129080080
:1013E2004001BA003A088600013087003A0A8400B8
:1013F20001308500000881003A0A8600013087002A
:10140200310881003A088600013087000103031D7C
:101412000B2A0C2A3C2A3A0A86000130870001086E
:10142200031D142A152A3C2A3A08063E860001307A
:101432008700403FB600413FB700423FB800433FFC
:10144200B9003A08023E8600013087003608C03FE4
:101452003708C13F3808C23F3908C33F3A08063E41
:101462008600013087003208C03F3308C13F34088C
:10147200C23F3508C33F3A088600013087000108A1
:10148200031D442A452A752A3A0A8600013087003C
:101492000103031D4D2A4E2A752A3A080E3E860084
:1014A20001308700403FB600413FB700423FB800DD
:1014B200433FB9003A080A3E8600013087003608E9
:1014C200C03F3708C13F3808C23F3908C33F3A0816
:1014D2000E3E8600013087003208C03F3308C13F0C
:1014E2003408C23F3508C33F3508A3003408A200C0
:1014F2003308A1003208A0003A088C31AF248931A8
:10150200003A0319852A862A8E2A40013A08183E93
:101512008600013087008101810A40013508A3005D
:101522003408A2003308A1003208A0003A088A3128
:10153200C3228931003A03199F2AA02AA82A40010E
:101542003A08193E8600013087008101810A400174
:101552003508A3003408A2003308A1003208A00015
:101562003A08883182208931003A0319B92ABA2A05
:10157200C22A40013A081A3E8600013087008101E2
:10158200810A08004001AF002F080E3E860001309C
:101592008700403FA400413FA500423FA600433FD1
:1015A200A7002F08063E860001308700403FA800B2
:1015B200413FA900423FAA00433FAB0027082B024C
:1015C200031DED2A26082A02031DED2A25082902F9
:1015D200031DED2A24082802031CF02AF22A0130F6
:1015E200F32A0030AC002F080E3E8600013087003F
:1015F200403FA400413FA500423FA600433FA70051
:101602002008A8002108A9002208AA002308AB008C
:101612002408A8022508A93B2608AA3B2708AB3BB9
:101622002B08031D1F2B2A08031D1F2B2908031D2E
:101632001F2BC930280203181F2B212B0130222B0C
:1016420000304001AD002F080A3E860001308700BD
:10165200403FA400413FA500423FA600433FA700F0
:101662002F080E3E860001308700403FA800413F10
:10167200A900423FAA00433FAB002408A802250864
:10168200A93B2608AA3B2708AB3B2B08031D552B79
:101692002A08031D552BF43028020130293B031C74
:1016A200532B552B0130562B00304001AE002C0835
:1016B20003195C2B5D2B7B2B2D080319612B622BED
:1016C2007B2B2E080319662B672B7B2B2F08143ECE
:1016D2008600013087002F08153E84000130850006
:1016E200000881002F08153E860001308700810125
:1016F200810A8D2B2F08143E8600013087002F08A7
:10170200153E840001308500000881002F08153E37
:1017120086000130870081012F08143E86000130C7
:1017220087000108031D962B972BA32B2F08153E2C
:101732008600013087000103031DA02BA12BA32BE0
:101742000130A42B003008004001B90040013908E3
:10175200860087010108BA000130B0003008B907DD
:101762003A089331B1238B310318B82BBA2B4001BD
:10177200A72B00304001B8000030B7000030B6009F
:101782000030B500B4012D303A06031DC92BCA2B17
:10179200D62BB401B40A3908860087010108BA00C1
:1017A2000130B0003008B907DD2B2B303A06031D9B
:1017B200DB2BDC2BDD2BCC2B30303A06031DE22B4E
:1017C200E32B1D2C3908860087010108BA0001307D
:1017D200B0003008B9072D082E040319F12BF22BA3
:1017E200F92B10302D062E04031DF82BF92B132C88
:1017F20078303A060319FE2BFF2B052C58303A0697
:10180200031D042C052C132C1030AD000030AE004B
:101812003908860087010108BA000130B00030089B
:10182200B9071D2C2D082E04031D182C192C1D2C54
:101832000830AD000030AE002D082E04031D222C0E
:10184200232C272C0A30AD000030AE003A08933129
:10185200E4238B31031C2E2C2F2C382C40013A0808
:101862008731EA278B31C93E4001BA00442C40013E
:101872003A08933164238B31031C402C412C852C74
:1018820030304001BA022E08803A803C031D4B2CB6
:101892002D083A02031C4E2C4F2C502C852C400153
:1018A2003A08B000B101B201B3012D08A0002E0820
:1018B200A100890D893B8909A200A3003808A7006D
:1018C2003708A6003608A5003508A40095310C2576
:1018D2008B3140012008B0072108B13D2208B23DFA
:1018E2002308B33D3308B8003208B7003108B60008
:1018F2003008B5003908860087010108BA000130B6
:10190200B0003008B907272C40012C0803198A2C93
:101912008B2C912C2C08860087013908FF3E810010
:1019220034080319952C962CA62C3509AC003609DF
:10193200AD003709AE003809AF00AC0A0319AD0A91
:101942000319AE0A0319AF0AAE2C3808AF003708E4
:10195200AE003608AD003508AC0008004001B0000A
:1019620030080E3E860001308700403FA400413F10
:10197200A500423FA600433FA7003008063E86006E
:1019820001308700403FA800413FA900423FAA0022
:10199200433FAB0027082B02031DD92C26082A023D
:1019A200031DD92C25082902031DD92C240828023D
:1019B200031CDC2CDE2C0130DF2C0030AC003008A4
:1019C2000E3E860001308700403FA400413FA50043
:1019D200423FA600433FA7002008A8002108A90013
:1019E2002208AA002308AB002408A8022508A93B64
:1019F2002608AA3B2708AB3B2B08031D0B2D2A0800
:101A0200031D0B2D2908031D0B2DC93028020318B5
:101A12000B2D0D2D01300E2D00304001AD00300890
:101A22000A3E860001308700403FA400413FA500E6
:101A3200423FA600433FA70030080E3E8600013019
:101A42008700403FA800413FA900423FAA00433F10
:101A5200AB002408A8022508A93B2608AA3B2708B0
:101A6200AB3B2B08031D3F2D2A08031D3F2DF530EC
:101A720028020130293B03183F2D412D0130422D10
:101A820000304001AE003008063E8600013087007B
:101A9200403FA400413FA500423FA600433FA700AC
:101AA2002008A8002108A9002208AA002308AB00E8
:101AB2002408A8022508A93B2608AA3B2708AB3B15
:101AC2002B08031D702D2A08031D702DA03028023B
:101AD2000F30293B031C6E2D702D0130712D00300B
:101AE2004001AF002C080319772D782D9B2D2D086E
:101AF20003197C2D7D2D9B2D2E080319812D822DFE
:101B02009B2D2F080319862D872D9B2D3008123E01
:101B12008600013087003008133E840001308500C2
:101B2200000881003008133E8600013087008101E1
:101B3200810AAD2D3008123E860001308700300840
:101B4200133E840001308500000881003008133EF6
:101B520086000130870081013008123E8600013084
:101B620087000108031DB62DB72DC32D3008133E83
:101B72008600013087000103031DC02DC12DC32D36
:101B82000130C42D0030080040012C088039B60015
:101B92002C35BC00AB1FCE2DCF2DD02D3C143C08D4
:101BA2000319D42DD52DE42D3C0A031DD92DDA2D90
:101BB200E22D0030AC000030AB000030AA00003053
:101BC200A900AB17EC2D0030AC000030AB000030A8
:101BD200AA000030A90030088039B1003108B606E9
:101BE2003035BB00AF1FF62DF72DF82D3B143B0807
:101BF2000319FC2DFD2D0C2E3B0A031D012E022E76
:101C02000A2E0030B0000030AF000030AE000030CD
:101C1200AD00AF17142E0030B0000030AF0000301E
:101C2200AE000030AD003B080319182E192E1E2EEF
:101C32003C08031D1D2E1E2E272E0030AC00003046
:101C4200AB000030AA000030A900FF2F2908A00035
:101C52002F08943161248D3140012108C2002008EF
:101C6200C1004108B100B201B301B4013408BA00A5
:101C72003308B9003208B8003108B7004208B10091
:101C8200B201B301B4013408C0003308BF00320806
:101C9200BE003108BD002A08A0002E08943161243C
:101CA2008D3140012108C2002008C1004108B10065
:101CB200B201B301B4013108B7073208B83D3308A5
:101CC200B93D3408BA3D4208B100B201B301B401D2
:101CD2003108BD073208BE3D3308BF3D3408C03D60
:101CE2002B08A0002D08943161248D314001210878
:101CF200C2002008C1004108B100B201B301B40121
:101D02003108B7073208B83D3308B93D3408BA3D47
:101D12004208B100B201B301B4013108BD07320873
:101D2200BE3D3308BF3D3408C03D0830B735B80D5D
:101D3200B90DBA0D890B972E2A08A0002D089431EF
:101D420061248D3140012108C2002008C1004108F0
:101D5200B7074208B83D0030B93DBA3D2908A00096
:101D62002E08943161248D3140012108C2002008DF
:101D7200C1004108B7074208B83D0030B93DBA3D3D
:101D82000830B735B80DB90DBA0D890BC22E290826
:101D9200A0002D08943161248D3140012108C20038
:101DA2002008C1004108B7074208B83D0030B93DDC
:101DB200BA3D2A08A0002F08943161248D314001D8
:101DC2002108C2002008C1004108BD074208BE3DEB
:101DD2000030BF3DC03D2B08A0002E089431612485
:101DE2008D3140012108C2002008C1004108BD0711
:101DF2004208BE3D0030BF3DC03D2B08A0002F0869
:101E0200943161248D3140012108C2002008C100B3
:101E12004108B1004208B200B301B4010830B13543
:101E2200B20DB30DB40D890B102F3108BD07320866
:101E3200BE3D3308BF3D3408C03D3708B100380805
:101E4200B2003908B3003A08B4001830B436B30C03
:101E5200B20CB10C890B272F3108BD073208BE3DE9
:101E62003308BF3D3408C03D0830B735B80DB90D51
:101E7200BA0D890B362F3C083B07B100B201B20DF7
:101E82003108823EC100FF30323DC2005F2F013077
:101E9200BD35BE0DBF0DC00D890B492FBA1F522F84
:101EA200532F542F3D140130B735B80DB90DBA0D6B
:101EB200890B552FFF30C107FF30C23DBF1F622F74
:101EC200632F482FBB01BA1F672F682F842FFF3063
:101ED2003705B100FF303805B200FF303905B300D5
:101EE2007F303A05B4003408330432043104031954
:101EF2007B2F7C2F7F2FBB01BB0A842F3D1C822F9F
:101F0200832F842F7C2F3B080319882F892FB12F11
:101F12000130BD070030BE3D0030BF3D0030C03D46
:101F2200401C942F952FB12F3D08B1003E08B200FE
:101F32003F08B3004008B4000130B500B437B30C19
:101F4200B20CB10CB50B9F2F3408C0003308BF0090
:101F52003208BE003108BD000130C1070030C23D69
:101F62004208803AB10080303102031DBA2FFF309F
:101F72004102031CBD2FBE2FC82F7F304001C0007D
:101F82008030BF000030BE000030BD00F32F4001A2
:101F92004208803AB10080303102031DD22F013055
:101FA20041020318D52FD62FE12F00304001C00087
:101FB2000030BF000030BE000030BD00B601F32F7C
:101FC20040014108BC00FF30BD05FF30BE057F3037
:101FD200BF050030C0053C1CEF2FF02FF12FBF17BB
:101FE2003C36C0003608B1003108C0044008AC00DD
:0E1FF2003F08AB003E08AA003D08A900080009
:10256C000F307E01A300950108007E01A3010F30FE
:10257C0095000800640080010131890BC12A0034E8
:10258C00FE0012001E00FE0BC72A00347B08F3006D
:10259C007A08F2007908F1007808F000080062303F
:1025AC0051018D008F0191010230930092010800BE
:1025BC004001A00020081A3E860001308700010867
:1025CC0008004001A0002008183E8600013087005A
:1025DC00010808004001A00020081A3E86000130C6
:1025EC008700810108004001A0002008183E8600E9
:1025FC0001308700810108004F0196019701980175
:10260C0099019A019B019C019D01080093310223C1
:10261C0093319431852493319231D5229331080032
:10262C007B084001A3007A08A2007908A100780871
:10263C00A000080040304001D8000030D900203004
:10264C0089312A21933108004001A1002108203E44
:10265C008600023087002008810008004001A3009A
:10266C008B132208A000230893312A2393318B1754
:10267C0008004001A0004E010F1E452B462B412B9C
:10268C004001200842019A0008004001A0004E01C0
:10269C000F1E512B522B4D2B4001200842019A004A
:1026AC00080040304B019F00F3309D009C014E010F
:1026BC008C12961680304B019E0008004001A10040
:1026CC00A0013A30210203186C2B6D2B752B303086
:1026DC002102031C722B732B752BA001A00A200C5A
:1026EC0008004001A100A0017F30210203187F2BBC
:1026FC00802B882B20302102031C852B862B882BCA
:10270C00A001A00A200C08004001A100A0015B3030
:10271C0021020318922B932B9B2B41302102031C7B
:10272C00982B992B9B2BA001A00A200C08008B1333
:10273C007B084001A7007A08A6007908A500780854
:10274C00A4008B172708A3002608A2002508A100C7
:10275C002408A00008004001A100A001A00A20301C
:10276C0021060319BA2BBB2BC82B0E3021020318E0
:10277C00C02BC12BC72B093021020318C62BC72B2A
:10278C00C82BA001200C08004001A300A401DD2BE4
:10279C0024082307A2002208860087010108933130
:1027AC004B23933101304001A2002208A4072108D9
:1027BC002402031CE22BE32BCE2B08004001A300C8
:1027CC00A201A20A7B3023020318ED2BEE2BF42B73
:1027DC00613023020318F32BF42BFE2B23089331C7
:1027EC008A2393310318FB2BFC2BFE2B4001A201F7
:1027FC004001220C08004001A401A501201C072C5B
:10280C00082C0C2C2208A4072308A53D0130A23566
:10281C00A30D890B0D2C0130A136A00C890B122CA9
:10282C0020082104031D1B2C1C2C042C2508A100A2
:10283C002408A000080043018F01363090000130BD
:10284C009100D0308D00FF308E004E010F10191406
:10285C004001A1012108203E860002308700810141
:10286C000130A0002008A10740302102031C3F2C9E
:10287C00402C302C08000134033400340134003473
:10288C0004341534C93400340034003400340034BA
:10289C00003400340034003400340034003400348C
:1028AC00003400340034003400340034003400347C
:1028BC000034003400344001A800A401A501200814
:1028CC00A200A3012208A6002308A700281C6F2C35
:1028DC00702C742C2608A4072708A53D0130A635BA
:1028EC00A70D890B752C0310A80C2808031D7F2C31
:1028FC00802C6C2C2508A1002408A00008004001A5
:10290C0098019A013F309200133094002C307E01D4
:10291C00CE003730B800B901CF01BA01D001373041
:10292C00BB003F30D1003F30BC003F30D2001330F1
:10293C00A00010307D01C5000F307E01A3001430C3
:10294C00A1000F30A50011307D01C6001430CB0062
:10295C0008004001A101A20140011A1111304001EF
:10296C00A0003A30890BB82CA00BB82C0000400109
:10297C001A1511304001A0003A30890BC32CA00B62
:10298C00C32C000001304001A1070030A23D2208F9
:10299C00803AA00080302002031DD62C0330210287
:1029AC00031CD92CDA2CB22C080040011A119231DC
:1029BC00BB22943173304001B8009930B900843196
:1029CC00D424943104304001D9003D30890BEC2CD7
:1029DC00D90BEC2C00329231B6229431C4308600E3
:1029EC0001308700A0308400003085002030400189
:1029FC00D90016001A00D90BFF2C0830A100A0300A
:102A0C009331CA23943140011A150800003040015B
:102A1C00AB000030AA000030A9000030A800201C38
:102A2C00182D192D212D2408A8072508A93D2608A5
:102A3C00AA3D2708AB3D0130A435A50DA60DA70D69
:102A4C00890B222D0130A336A20CA10CA00C890BF2
:102A5C00292D2308220421042004031D362D372D93
:102A6C00152D2B08A3002A08A2002908A10028086C
:102A7C00A00008004001C1014108BB00BC01BB35EE
:102A8C00BC0DB4303B07840019303C3D80388500C8
:102A9C000008BE004108BB00BC01BB35BC0DB53005
:102AAC003B07840019303C3D803885000008BF008E
:102ABC00C001AC011030AD000030AE003E308B31A7
:102ACC00A523953140012C08BD003D08A20041080A
:102ADC00393E93313423953101304001BB003B0822
:102AEC00C10705304102031C7C2D7D2D422D0800B1
:102AFC004001B80093311623953140012308A700FB
:102B0C002208A6002108A5002008A40043014308C0
:102B1C004001AB00430142084001AA0043014108B7
:102B2C004001A900430140084001A80096316626E7
:102B3C00953140012708031DAE2D2608031DAE2D2F
:102B4C00B83024020B30253B031CAD2DAE2DC72D08
:102B5C00933116239531400123084301C3004001F2
:102B6C0022084301C200400121084301C100400179
:102B7C0020084301C000400138088600870102305C
:102B8C00810008004001310830042F042E04031981
:102B9C00D02DD12D0A2EB701B70ADF2D0130AE355D
:102BAC00AF0DB00DB10D890BD52D0130B600360827
:102BBC00B707B11FE22DE32DD42D31083502031DCB
:102BCC00F12D30083402031DF12D2F083302031DA3
:102BDC00F12D2E083202031CF42DF52DFD2D2E089F
:102BEC00B2022F08B33B3008B43B3108B53B01307F
:102BFC00B136B00CAF0CAE0C890BFE2D0130B70208
:102C0C00031D092E0A2EE32D3508B1003408B0003F
:102C1C003308AF003208AE000800003043010F1932
:102C2C000130F1000030111B0130F2007208031961
:102C3C00202E212E242E4001EE01652E7108031941
:102C4C00282E292E3C2E7C08203E86000230870040
:102C5C0001088C000130F0007008FC0740307C0249
:102C6C00031C392E3A2E632EFC01632E0C08F30044
:102C7C00572EEE01EE0A632E73083F39FC0002302A
:102C8C00EE00632E39307C0203184D2E4E2E552E3D
:102C9C007C08203E86000230870073088100EE011C
:102CAC00632E40016E08003A03193F2E013A0319B6
:102CBC00422E033A0319482E632E430110160800C6
:102CCC0040012B082702031D752E2A082602031D1E
:102CDC00752E29082502031D752E28082402031CB5
:102CEC00782E792E8E2E28082402AC002908253B3C
:102CFC00AD002A08263BAE002B08273BAF002F085F
:102D0C00B7002E08B6002D08B5002C08B400B22E62
:102D1C002408AC002508AD002608AE002708AF003B
:102D2C002809B0002909B1002A09B2002B09B30007
:102D3C003008AC073108AD3D3208AE3D3308AF3D2D
:102D4C0001302C07B40000302D3DB50000302E3D75
:102D5C00B60000302F3DB7003708A7003608A60094
:102D6C003508A5003408A40008004001DE005A080C
:102D7C00860087010108DF005B08860087010108D7
:102D8C00E000EB30B8009830B9005F08DC00DD01E2
:102D9C005C08BA005D08BB008431D4249631023043
:102DAC004001B8009930B9006008DC00DD015C0816
:102DBC00BA005D08BB008431D424963140015F0811
:102DCC00031DE92EEA2EF52E6008031DEE2EEF2EC4
:102DDC00F52E5E088600870104308100142F5F03F6
:102DEC00031DF92EFA2E052F6008031DFE2EFF2E53
:102DFC00052F5E088600870106308100142F5F08BE
:102E0C00031D092F0A2F142F6003031D0E2F0F2FE4
:102E1C00142F5E08860087010730810008000030FF
:102E2C004001AC000030AB000030AA000030A9001B
:102E3C0023082204210420040319252F262F672F91
:102E4C00AD01AD0A342F0130A035A10DA20DA30D9B
:102E5C00890B2A2F0130A8002808AD07A31F372F94
:102E6C00382F292F0130A935AA0DAB0DAC0D890BCC
:102E7C00392F23082702031D4D2F22082602031D7C
:102E8C004D2F21082502031D4D2F20082402031C61
:102E9C00502F512F5A2F2008A4022108A53B22089D
:102EAC00A63B2308A73B29140130A336A20CA10C86
:102EBC00A00C890B5B2F0130AD02031D662F672F11
:102ECC00382F2C08A3002B08A2002A08A1002908DF
:102EDC00A00008004001DC0058089231E72297312D
:102EEC00003A03197A2F7B2F952F8F304001B800B1
:102EFC009930B9008431D424973140015A088600A6
:102F0C0087015A08840085010008013E8100943134
:102F1C00AF249731400158089231F9229731400182
:102F2C0059089231E7229731003A03199E2F9F2FAF
:102F3C00B92F9C304001B8009930B9008431D424A9
:102F4C00973140015B08860087015B08840085018E
:102F5C000008013E81009431AF249731400159089B
:102F6C009231F9229731400158089231DE22973183
:102F7C00003A0319C22FC32FDC2F51304001B80087
:102F8C009930B9008431D424973140015C08860013
:102F9C008701043081009431AF2497319431AF24F0
:102FAC009731400158089231F0229731400159086D
:102FBC009231DE229731003A0319E52FE62FFF2FCD
:102FCC0062304001B8009930B9008431D424973173
:102FDC0040015C0886008701023081009431AF24E7
:102FEC0097319431AF249731400159089231F02236
:102FFC0097310800013400340034003410340034AC
:10300C000034003400340134003400340034103403
:10301C000034003400340034013400340034003403
:10302C0010340034003400340034013400340034E3
:10303C0000341034633461346C3469346234723467
:10304C006134743469346F346E3420346D346F34BD
:10305C006434653420342134213421342134213436
:10306C0021342134213421342134213421342134AC
:10307C002D342D342D342D3420340D340A340034B9
:10308C0001340034003400340A3400340034003489
:10309C006434003400340034E83403340034003435
:1030AC001034273400340034A03486340134003416
:1030BC00403442340F340034803496349834003425
:1030CC000034E134F53405340034CA349A343B34DA
:1030DC00533454344134543445345F3453344134D0
:1030EC00563445345F3442344F34543454344F34B2
:1030FC004D345F34433441344C34493442345234CB
:10310C004134543449344F344E345F3450344F349A
:10311C0049344E3454340D340A340034533454345A
:10312C004134543445345F3453344134563445348B
:10313C005F3454344F3450345F34433441344C3462
:10314C004934423452344134543449344F344E347B
:10315C005F3450344F3449344E3454340D340A34C3
:10316C0000345B3425346C3475345D342034503485
:10317C0048343A34203425347534203428343034EF
:10318C002E34303431342A3475346E34693474341A
:10319C0029340D340A340034633461346C346934AA
:1031AC00623472346134743469346F346E34203464
:1031BC006D346F346434653420342D342D342D3417
:1031CC002D3420340D340A3400346234313420343C
:1031DC0063346C34693463346B3465346434203454
:1031EC0063346F3475346E3474343A34203425348B
:1031FC0075340D340A340034623432342034633480
:10320C006C34693463346B34653464342034633423
:10321C006F3475346E3474343A3420342534753448
:10322C000D340A3400345034483420345034723461
:10323C006F346234653420347734693474346834D0
:10324C002034523453343434383435340D340A3455
:10325C00003430343134323433343434353436345D
:10326C0037343834393441344234433444344534BB
:10327C00463400343034313432343334343435342D
:10328C00363437343834393461346234633464342A
:10329C006534663400346234313420346C346F3429
:1032AC006E34673420347034723465347334733450
:1032BC0020340D340A3400346234323420346C340B
:1032CC006F346E3467342034703472346534733434
:1032DC00733420340D340A3400342D342D342D3411
:1032EC002034523465347134753465347334743429
:1032FC000D340A34003473347934733474346534D3
:10330C006D34203468346F346C3464340D340A34C6
:10331C00003462343134203463346C3469346334B3
:10332C006B34653464340D340A3400346234323412
:10333C00203463346C34693463346B3465346434F2
:10334C000D340A340034543445344D3450343A344A
:10335C002034253475340D340A340034303441347F
:10336C003034313438343234303430343034313425
:10337C00003473346E343A342034253473340D34C1
:10338C000A340034503448343A34203425347534FB
:10339C000D340A3400347334613476346534643457
:1033AC000D340A34003428346E3475346C346C3477
:1033BC002934003425343034323458342034003439
:1033CC0025343034383478343A34003420342534CD
:1033DC003034323478340034203420342034003407
:0633EC00253463340034B7
:020000040001F9
:08000000FF3FFF3FFF3FFF3F00
:0A000E00EC17FE3F9F3FFF3FFE3F4F
:00000001FF
