:10000000803167288B1308007E1480314E018C1ECE
:100010000A280B283A288C120130F8070030F93DE5
:100020000030FA3D0030FB3D41016E03031D1928ED
:100030001A283A2869087802F4006A08793BF50022
:100040006B087A3BF6006C087B3BF7007708031DD2
:1000500035287608031D35287508031D35286530B9
:100060007402031C342835283A284101EE0101307E
:100070004201E3004E010F1C3E283F2843280F1089
:100080009631A02680314E018F1E472848286528CA
:1000900093318B23803173084101EC007208EB002F
:1000A0007108EA007008E9000130EE007D08A03E0A
:1000B0008600013087004201190881000130F400F8
:1000C0007408FD077D081F39FD007E10090080318E
:1000D00069280B30840095308500C03086000130DF
:1000E00087002030883102208031F801F901FA01BF
:1000F000FB01FC01FD01E930840000308500073080
:1001000093318523803157308400013085000D30D4
:10011000933185238031A030840001308500203068
:1001200093318523803120308400023085004030B7
:100130009331852380317E10400180319F28933197
:10014000CB238031943116248031943123248031A3
:100150009431EB2480313C308931272180312130AA
:100160008931272180314201A0014101E801E701E5
:10017000933180238031DA304001B8009830B900E3
:1001800084312C2480316F304001B8009930B9009F
:100190006430BA009930BB0084312C2480310430A3
:1001A0004101C1003D30890BD328C10BD328003257
:1001B00093317B2380318B170B177E01381240015E
:1001C00012167E01B81240019216EA01EB01EC0111
:1001D000ED01EE01EF014101D501D60194316C240E
:1001E0008031400123084101E6004001220841011D
:1001F000E500400121084101E400400120084101DF
:10020000E30066084001A700410165084001A6001F
:10021000410164084001A500410163084001A400B8
:10022000420162084001AB00420161084001AA009E
:10023000420160084001A90042015F084001A80096
:100240009631F326803140012708031D3329260803
:10025000031D33292508031D332914302402031CF0
:10026000322933296D29410166084201E20041012A
:1002700065084201E100410164084201E0004101DA
:1002800063084201DF00003040010C1A0130B10068
:1002900094316C24803140012308B5002208B40059
:1002A0002108B3002008B2003C308B310723803195
:1002B000003040018C1A0130B10094316C2480313F
:1002C00040012308B5002208B4002108B30020082B
:1002D000B20021308B310723803142012008031DF9
:1002E0007229732990299331802380313C30400159
:1002F000D8002130D900E830DA00E730DB002030C8
:1003000088314620803104304101C1003D30890BE5
:100310008729C10B8729003293317B238031482AFA
:100320002003031D942995299A29203096310A2605
:100330008031482A02302006031D9F29A029D12997
:100340009331802380313C304001D8002130D900E6
:10035000E830DA00E730DB00203088314620803199
:1003600004304101C1003D30890BB429C10BB429CF
:10037000003293317B23803166304001D800203039
:100380009531A52580313C304001D8002130D9007D
:10039000E830DA00E730DB0020309731A3278031E6
:1003A000482A03302006031DD629D729E5293C30E9
:1003B0004001D8002130D900E830DA00E730DB0016
:1003C00020309731A3278031482A04302006031DAE
:1003D000EA29EB29EC29482A06302006031DF129D9
:1003E000F2291A2A9331802380316E304001B800FF
:1003F0009830B90084312C24803181304001B8001C
:100400009930B90084312C24803131304001B8005A
:100410009930B90084312C24803104304101C1006D
:100420003D30890B112AC10B112A003293317B23F5
:100430008031192A07302006031D1F2A202A482A46
:1004400093318023803120304001B8009830B900CA
:1004500084312C24803181304001B8009930B900BA
:1004600084312C24803131304001B8009930B900FA
:1004700084312C24803104304101C1003D30890B8E
:100480003F2AC10B3F2A003293317B238031472A18
:100490004201630803194D2A4E2AD22BE301400181
:1004A0001A11FD0100304101DA000030D90000309E
:1004B000D8000030D700430124084101C100C20127
:1004C000C301C401430123084101C500C601C7019E
:1004D000C8010830C535C60DC70DC80D890B6A2A7D
:1004E000430126084101C900CA01CB01CC011030EB
:1004F000C935CA0DCB0DCC0D890B782A43012508CF
:100500004101CC044908C5044A08C6044B08C70485
:100510004C08C80441084504CD0042084604CE00FA
:1005200043084704CF0044084804D000D730860071
:100530008701A82ACD308400850104304101C10023
:1005400041080319A92A12001E00C10BA32AA92AD7
:100550009A2A41015A084001B0004101590840015E
:10056000AF00410158084001AE0041015708400169
:10057000AD004230AC00C830AB000030AA00003003
:10058000A9008D31C525803140012C08C6002B08FB
:10059000C5002A08C4002908C3008831B62080316C
:1005A000400144084101E200400143084101E100EB
:1005B00078304001B8009930B9004101620840012B
:1005C000BB00410161084001BA0084312C24803114
:1005D00000304101DE000030DD000030DC00003082
:1005E000DB00430128084101C100C201C301C4016D
:1005F000430127084101C500C601C701C8010830F1
:10060000C535C60DC70DC80D890B002B43012A083F
:100610004101C900CA01CB01CC011030C935CA0D56
:10062000CB0DCC0D890B0E2B430129084101CC04C5
:100630004908C5044A08C6044B08C7044C08C80446
:1006400041084504D10042084604D200430847044B
:10065000D30044084804D400DB30860087013E2BD9
:10066000D1308400850104304101C10041080319E3
:100670003F2B12001E00C10B392B3F2B302B4101A9
:100680005E084001B00041015D084001AF0041013A
:100690005C084001AE0041015B084001AD00423002
:1006A000AC00C830AB000030AA000030A9008D318A
:1006B000C525803140012C08C6002B08C5002A083A
:1006C000C4002908C3008831B620803140014408A5
:1006D0004101E000400143084101DF005930400181
:1006E000B8009930B900410160084001BB004101E8
:1006F0005F084001BA0084312C248031803102200F
:100700008031410162084001A00000309331E923AB
:100710008031410161084001A00001309331E9239B
:100720008031410160084001A00002309331E9238B
:10073000803141015F084001A00003309331E9237B
:100740008031883100208031933180238031933192
:10075000DF23803191304001B8009830B9009331E7
:10076000D523803140012308BD002208BC002108A8
:10077000BB002008BA00410162084001BF004101EE
:1007800061084001BE0084312C24803104304101D5
:10079000C1003D30890BCA2BC10BCA2B00329331EB
:1007A0007B23803194316C24803140012308410146
:1007B000E600400122084101E50040012108410115
:1007C000E400400120084101E30066084001A70061
:1007D000410165084001A600410164084001A500EF
:1007E000410163084001A40042015E084001AB00E2
:1007F00042015D084001AA0042015C084001A900D5
:1008000042015B084001A8009631F3268031400187
:100810002708031D162C2608031D162CD030240291
:100820000730253B031C152C162CEE2841016608C9
:100830004201DE00410165084201DD00410164081A
:100840004201DC00410163084201DB0088310820DD
:100850008031EE28803167283A304001D300BD2E28
:10086000253057060319352C362C3B2C570893316D
:10087000FE238431BD2ED501D601D401442C54155C
:100880000130B8070030B93D3808840039088500C8
:100890000008303A03193F2C4D2C380884003908E1
:1008A00085000008943133248431031C582C592CC2
:1008B0000E2D4001D501D6010A304001A0000030C4
:1008C000A1005608A3005508A2009431CB2484311E
:1008D00040012108D6002008D500380884003908D6
:1008E00085000008D03EC000FF3003180030C10072
:1008F0004008D5074108D63D0130B8070030B93D62
:100900003808840039088500000894313324843184
:1009100003188B2C8C2C5C2C0E2D54160E2DD416FB
:10092000D417322D530886008701403FCB00413F4A
:10093000CC000230C0004008D3074B084C04031D14
:10094000A22CA32CA72C8930CB009930CC00D1014C
:10095000D201AE2C0130D1070030D23D4B085107F7
:1009600084004C08523D85001200031DB82CB92CA0
:10097000AA2C56085202031DBF2C55085102031819
:10098000C22CC32CC82C5108D5025208D63BCF2C00
:10099000D501D601CF2C20309331FE238431FF3096
:1009A0004001D507FF30D63D550A031DDB2C560A02
:1009B000031DDB2CDC2CCB2CEA2C4B0884004C08D0
:1009C000850000089331FE23843101304001CB07BC
:1009D0000030CC3D0130D1020030D23B510A031D22
:1009E000F52C520A031DF52CF62CDD2CBD2E5308D8
:1009F000860087010108D7000230C0004008D307F5
:100A00005730CB000030CC000130D1000030D20094
:100A1000B92CC030C0004008D404322D4001390840
:100A2000C1003808C000B80A0319B90A4008840098
:100A3000410885000008D700003A0319D02E583A23
:100A400003198F2C3B3A0319F72C0F3A03198D2CFD
:100A50001F3A0319922C063A0319092D0D3A03196E
:100A6000902C002D541E352D362D462D5308860012
:100A70008701403FCD00413FCE00423FCF00433F82
:100A8000D0000430C0004008D307D22D53088600A0
:100A90008701403FC000413FC1004008CD004108F0
:100AA000CE00CF01D0010230C0004008D307D22DC4
:100AB000D701D70A0A305706031D5F2D602D612D1F
:100AC000DB2D5708C000C101C035C10DC035C10DB7
:100AD0004630400784001830413D80388500003F93
:100AE000C200013FC300023FC400033FC5004508E8
:100AF0005002031D852D44084F02031D852D430818
:100B00004E02031D852D42084D020318882D892DA4
:100B10008A2DDB2D0130C0004008D7070A30570668
:100B2000031D932D942D612DDB2DD701D70A08309D
:100B30005706031D9C2D9D2D9E2DDB2D5708C000B3
:100B4000C101C035C10DC035C10D00304007840062
:100B50001830413D80388500003FC200013FC3008E
:100B6000023FC400033FC50045085002031DC22DCB
:100B700044084F02031DC22D43084E02031DC22D1F
:100B800042084D020318C52DC62DC72DDB2D01309F
:100B9000C0004008D70708305706031DD02DD12DBF
:100BA0009E2DDB2D5408C039803A0319952D403A0B
:100BB0000319582DDB2D5608803A803C031DE22D89
:100BC000550857020318E52DE62DEF2D4001570873
:100BD000C000C1014008D5024108D63BF22D4001BA
:100BE000D501D601541DF52DF62D0C2E55085604B1
:100BF0000319FB2DFC2D212E30309331FE2384313F
:100C0000FF304001D507FF30D63D55085604031D7F
:100C10000A2E0B2EFC2D212E550856040319112ED9
:100C2000122E212E20309331FE238431FF304001DB
:100C3000D507FF30D63D55085604031D202E212E22
:100C4000122E5708C000C1014008C9004108CA005F
:100C5000B02E0030B1000030B0000030AF000A30DC
:100C6000AE004A088500490884008435850D843526
:100C7000850D463084071830053D80388500003FDB
:100C8000A000013FA100023FA200033FA3005008C3
:100C9000A7004F08A6004E08A5004D08A4009731F4
:100CA0004827843140012308B5002208B4002108F8
:100CB000B3002008B20096315526843140012E0839
:100CC000303ED700AC2E4A088500490884008435A0
:100CD000850D8435850D003084071830053D80383A
:100CE0008500003FA000013FA100023FA200033F9A
:100CF000A3005008A7004F08A6004E08A5004D0805
:100D0000A400973148278431400120080F39C800DA
:100D1000D41A8B2E8C2E912E0130C6009930C7002C
:100D2000952EF030C6009830C7004708C10046082D
:100D3000C00048084007840041080318410A8500A4
:100D40000008D700AC2E5408C039803A0319632E2E
:100D5000403A0319292EAC2E57089331FE238431D3
:100D6000FF304001C907FF30CA3D490A031DBC2EB0
:100D70004A0A031DBC2EBD2EA32E40013908C10016
:100D80003808C000B80A0319B90A400884004108AD
:100D900085000008D7005708031DCF2ED02E302C19
:100DA00008004001B00030080E3E86000130870088
:100DB000403FA400413FA500423FA600433FA7009B
:100DC0003008063E860001308700403FA800413FC2
:100DD000A900423FAA00433FAB0027082B02031D96
:100DE000FB2E26082A02031DFB2E25082902031DBF
:100DF000FB2E24082802031CFE2E002F0130012F99
:100E00000030AC0030080E3E860001308700403FC5
:100E1000A400413FA500423FA600433FA700200891
:100E2000A8002108A9002208AA002308AB00240872
:100E3000A8022508A93B2608AA3B2708AB3B2B089C
:100E4000031D2D2F2A08031D2D2F2908031D2D2FCB
:100E5000C930280203182D2F2F2F0130302F0030DA
:100E60004001AD0030080A3E860001308700403F57
:100E7000A400413FA500423FA600433FA700300821
:100E80000E3E860001308700403FA800413FA90088
:100E9000423FAA00433FAB002408A8022508A93B13
:100EA0002608AA3B2708AB3B2B08031D612F2A0805
:100EB000031D612FF53028020130293B0318612FF3
:100EC000632F0130642F00304001AE003008063E31
:100ED000860001308700403FA400413FA500423F0B
:100EE000A600433FA7002008A8002108A900220867
:100EF000AA002308AB002408A8022508A93B26085D
:100F0000AA3B2708AB3B2B08031D922F2A08031D81
:100F1000922FA03028020F30293B031C902F922FD4
:100F20000130932F00304001AF002C080319992F96
:100F30009A2FBD2F2D0803199E2F9F2FBD2F2E08EE
:100F40000319A32FA42FBD2F2F080319A82FA92FF2
:100F5000BD2F3008123E8600013087003008133E56
:100F6000840001308500000881003008133E8600AF
:100F7000013087008101810ACF2F3008123E8600A0
:100F8000013087003008133E8400013085000008DE
:100F900081003008133E860001308700810130084F
:100FA000123E8600013087000108031DD82FD92F7B
:100FB000E52F3008133E8600013087000103031D32
:100FC000E22FE32FE52F0130E62F0030080040012B
:100FD000A100A001A00A203021060319F02FF12F53
:100FE000FE2F0E3021020318F62FF72FFD2F0930A8
:100FF00021020318FC2FFD2FFE2FA001200C08005A
:101000008B170800FE0012001E00FE0B03280034A0
:101010004001C1014108BB00BC01BB35BC0D6430BF
:101020003B07840019303C3D803885000008BE0035
:101030004108BB00BC01BB35BC0D65303B078400DB
:1010400019303C3D803885000008BF00C001AC016C
:101050001030AD000030AE003E308C31BB24883102
:1010600040012C08BD003D08A2004108393E9331E3
:10107000F323883101304001BB003B08C107053034
:101080004102031C442845280A280800400158084A
:101090009331A6238831003A03194F2850286A2833
:1010A0003F304001B8009930B90084312C24883198
:1010B00040015A08860087015A088400850100080B
:1010C000013E8100953179258831400158089331DE
:1010D000B8238831400159089331A6238831003A5A
:1010E0000319732874288E284C304001B8009930B9
:1010F000B90084312C24883140015B0886008701C7
:101100005B08840085010008013E81009531792546
:101110008831400159089331B8238831400158087B
:1011200093319D238831003A031997289828B528D0
:1011300012304001B8009930B90084312C24883134
:1011400040015A08860087015A088400850100087A
:10115000013E810095317925883195317925883195
:10116000400158089331AF23883108000310400133
:10117000450D460DCC004C08031DBF28C028C928CA
:101180000030C6000030C5000030C4000030C3008D
:1011900026294308C7004408C8004508C900460876
:1011A000CA001F30CA36C90CC80CC70C890BD2281C
:1011B0004708CB00C517FF30C305FF30C405FF301B
:1011C000C5050030C6059630CC02CC1FE828E928BA
:1011D00001294C08803A973E0318EF28F028F1289F
:1011E000C0280130C636C50CC40CC30C890BF228CC
:1011F0000130C7004708CC07031DFF280029F1284C
:10120000162920304C02031C062907291129C02861
:101210000130C335C40DC50DC60D890B0929013038
:10122000CC024C08031D1529162908294B0803195F
:101230001A291B292629C309C409C509C609C30AD5
:101240000319C40A0319C50A0319C60A0800400194
:10125000A00020088600013087008101810A200A51
:101260008600013087008101810A2008023E860045
:10127000013087000130C03F0030C13FC23FC33F53
:101280002008063E8600013087000130C03F003054
:10129000C13FC23FC33F20080A3E8600013087009D
:1012A0000130C03F0030C13FC23FC33F20080E3E67
:1012B0008600013087000130C03F0030C13FC23F8F
:1012C000C33F2008123E86000130870081012008BC
:1012D000133E86000130870081012008143E8600FD
:1012E0000130870081012008153E8600013087000B
:1012F00081012008163E8600013087008101200808
:10130000173E86000130870081012008183E8600C4
:101310000130870081012008193E860001308700D6
:10132000810120081A3E86000130870081010800F3
:101330004001AE002E08063E860001308700403F87
:10134000A400413FA500423FA600433FA7002E084E
:101350000E3E860001308700403FA800413FA900B3
:10136000423FAA00433FAB0027082B02031DC229BE
:1013700026082A02031DC22925082902031DC229A5
:1013800024082802031CC529C7290130C8290030B8
:10139000AC002E08063E860001308700403FA400C6
:1013A000413FA500423FA600433FA7002008A800F8
:1013B0002108A9002208AA002308AB002408A802DB
:1013C0002508A93B2608AA3B2708AB3B2B08031D91
:1013D000F3292A08031DF329A13028020F30293BE5
:1013E0000318F329F5290130F62900304001AD003A
:1013F0002C080319FC29FD29162A2D080319012A96
:10140000022A162A2E08163E8600013087002E0872
:10141000173E840001308500000881002E08173E29
:101420008600013087008101810A282A2E08163E95
:101430008600013087002E08173E840001308500A9
:10144000000881002E08173E8600013087008101C8
:101450002E08163E8600013087000108031D312A40
:10146000322A3E2A2E08173E8600013087000103EB
:10147000031D3B2A3C2A3E2A01303F2A0030080047
:101480004001E0006008E100E201E301FC2A96303F
:10149000B8009930B9006308BB006208BA00843113
:1014A0002C248A314001E401E50164086207DA0076
:1014B0006508633DDB0059085B02031D612A58087B
:1014C0005A020318642A652A7E2A9C30B800993093
:1014D000B90062086107DA0064085A07DB005B089C
:1014E0008600023087000108DC00DD015C08BA00DC
:1014F0005D08BB0084312C248A31852AA230B800D3
:101500009930B90084312C248A3101304001E4073C
:101510000030E53D00306502103003196402031C01
:10152000922A932A552AA330B8009930B900843101
:101530002C248A314001E401E50164086207DA00E5
:101540006508633DDB0059085B02031DA92A5808A2
:101550005A020318AC2AAD2AE22A62086107DA00AF
:1015600064085A07DB005B08860002308700010828
:10157000943146248A310318BE2ABF2AC52A2E3048
:101580004001DE000030DF00D72A40016208610719
:10159000DA0064085A07DB005B0886000230870027
:1015A0000108DC00DD015C08DE005D08DF00A6301C
:1015B000B8009930B9005F08BB005E08BA008431FA
:1015C0002C248A3101304001E4070030E53D003031
:1015D0006502103003196402031CEF2AF02A9D2AC9
:1015E0002030B8009930B90084312C248A31103071
:1015F0004001E2070030E33D59086302031D022B5E
:1016000058086202031C052B062B472A08004001DC
:10161000BA003A088600013087003A0A8400013097
:101620008500000881003A0A8600013087003108F1
:1016300081003A088600013087000103031D212B39
:10164000222B522B3A0A8600013087000108031D25
:101650002A2B2B2B522B3A08063E8600013087009E
:10166000403FB600413FB700423FB800433FB9009A
:101670003A08023E8600013087003608C03F37082E
:10168000C13F3808C23F3908C33F3A08063E8600CA
:10169000013087003208C03F3308C13F3408C23FE1
:1016A0003508C33F3A088600013087000108031D52
:1016B0005A2B5B2B8B2B3A0A8600013087000103E3
:1016C000031D632B642B8B2B3A080E3E86000130E2
:1016D0008700403FB600413FB700423FB800433F5C
:1016E000B9003A080A3E8600013087003608C03F3C
:1016F0003708C13F3808C23F3908C33F3A080E3E99
:101700008600013087003208C03F3308C13F3408EB
:10171000C23F3508C33F3508A3003408A200330890
:10172000A1003208A0003A088631D1268B31003A58
:1017300003199B2B9C2BA42B40013A08183E8600D2
:10174000013087008101810A40013508A300340877
:10175000A2003308A1003208A0003A088B31D92337
:101760008B31003A0319B52BB62BBE2B40013A083A
:10177000193E8600013087008101810A4001350849
:10178000A3003408A2003308A1003208A0003A08E0
:10179000893198218B31003A0319CF2BD02BD82BCC
:1017A00040013A081A3E8600013087008101810A13
:1017B00008004001AF002F080E3E86000130870070
:1017C000403FA400413FA500423FA600433FA70081
:1017D0002F08063E860001308700403FA800413FA9
:1017E000A900423FAA00433FAB0027082B02031D7C
:1017F000032C26082A02031D032C25082902031D99
:10180000032C24082802031C062C082C0130092C68
:101810000030AC002F080E3E860001308700403FAC
:10182000A400413FA500423FA600433FA700200877
:10183000A8002108A9002208AA002308AB00240858
:10184000A8022508A93B2608AA3B2708AB3B2B0882
:10185000031D352C2A08031D352C2908031D352CA2
:10186000C93028020318352C372C0130382C0030B1
:101870004001AD002F080A3E860001308700403F3E
:10188000A400413FA500423FA600433FA7002F0808
:101890000E3E860001308700403FA800413FA9006E
:1018A000423FAA00433FAB002408A8022508A93BF9
:1018B0002608AA3B2708AB3B2B08031D6B2C2A08E4
:1018C000031D6B2CF43028020130293B031C692CCA
:1018D0006B2C01306C2C00304001AE002C08031939
:1018E000722C732C912C2D080319772C782C912CA9
:1018F0002E0803197C2C7D2C912C2F08143E860079
:10190000013087002F08153E840001308500000853
:1019100081002F08153E8600013087008101810A71
:10192000A32C2F08143E8600013087002F08153E97
:10193000840001308500000881002F08153E8600D4
:101940000130870081012F08143E86000130870096
:101950000108031DAC2CAD2CB92C2F08153E8600B8
:10196000013087000103031DB62CB72CB92C0130C0
:10197000BA2C003008004001B90040013908860047
:1019800087010108BA000130B0003008B9073A08F1
:101990008731E7278C310318CE2CD02C4001BD2C89
:1019A00000304001B8000030B7000030B600003011
:1019B000B500B4012D303A06031DDF2CE02CEC2CD1
:1019C000B401B40A3908860087010108BA00013061
:1019D000B0003008B907F32C2B303A06031DF12C68
:1019E000F22CF32CE22C30303A06031DF82CF92CA3
:1019F000332D3908860087010108BA000130B00094
:101A00003008B9072D082E040319072D082D0F2DB6
:101A100010302D062E04031D0E2D0F2D292D78308C
:101A20003A060319142D152D1B2D58303A06031DA7
:101A30001A2D1B2D292D1030AD000030AE003908B5
:101A4000860087010108BA000130B0003008B907EC
:101A5000332D2D082E04031D2E2D2F2D332D083050
:101A6000AD000030AE002D082E04031D382D392D99
:101A70003D2D0A30AD000030AE003A089431AE245E
:101A80008C31031C442D452D4E2D40013A089431D4
:101A900080248C31C93E4001BA005A2D40013A08D9
:101AA000943133248C31031C562D572D9B2D30300F
:101AB0004001BA022E08803A803C031D612D2D089A
:101AC0003A02031C642D652D662D9B2D40013A08BA
:101AD000B000B101B201B3012D08A0002E08A10091
:101AE000890D893B8909A200A3003808A70037089F
:101AF000A6003608A5003508A4009531D6258C31FE
:101B000040012008B0072108B13D2208B23D23085A
:101B1000B33D3308B8003208B7003108B6003008CA
:101B2000B5003908860087010108BA000130B0000D
:101B30003008B9073D2D40012C080319A02DA12D17
:101B4000A72D2C08860087013908FF3E8100340844
:101B50000319AB2DAC2DBC2D3509AC003609AD00F9
:101B60003709AE003809AF00AC0A0319AD0A0319F2
:101B7000AE0A0319AF0AC42D3808AF003708AE000B
:101B80003608AD003508AC00080040012C0880394B
:101B9000B6002C35BC00AB1FCE2DCF2DD02D3C1464
:101BA0003C080319D42DD52DE42D3C0A031DD92D55
:101BB000DA2DE22D0030AC000030AB000030AA007E
:101BC0000030A900AB17EC2D0030AC000030AB00AA
:101BD0000030AA000030A90030088039B100310877
:101BE000B6063035BB00AF1FF62DF72DF82D3B1490
:101BF0003B080319FC2DFD2D0C2E3B0A031D012E65
:101C0000022E0A2E0030B0000030AF000030AE00CF
:101C10000030AD00AF17142E0030B0000030AF0020
:101C20000030AE000030AD003B080319182E192E0D
:101C30001E2E3C08031D1D2E1E2E272E0030AC002C
:101C40000030AB000030AA000030A900FF2F2908A7
:101C5000A0002F0895312B258D3140012108C200AD
:101C60002008C1004108B100B201B301B401340839
:101C7000BA003308B9003208B8003108B70042088A
:101C8000B100B201B301B4013408C0003308BF0091
:101C90003208BE003108BD002A08A0002E08953188
:101CA0002B258D3140012108C2002008C1004108C8
:101CB000B100B201B301B4013108B7073208B83D31
:101CC0003308B93D3408BA3D4208B100B201B3014E
:101CD000B4013108BD073208BE3D3308BF3D3408AA
:101CE000C03D2B08A0002D0895312B258D314001DA
:101CF0002108C2002008C1004108B100B201B301AF
:101D0000B4013108B7073208B83D3308B93D34088B
:101D1000BA3D4208B100B201B301B4013108BD07B8
:101D20003208BE3D3308BF3D3408C03D0830B735EA
:101D3000B80DB90DBA0D890B972E2A08A0002D08F1
:101D400095312B258D3140012108C2002008C100AA
:101D50004108B7074208B83D0030B93DBA3D2908EF
:101D6000A0002E0895312B258D3140012108C2009D
:101D70002008C1004108B7074208B83D0030B93D0E
:101D8000BA3D0830B735B80DB90DBA0D890BC22E62
:101D90002908A0002D0895312B258D3140012108FF
:101DA000C2002008C1004108B7074208B83D003012
:101DB000B93DBA3D2A08A0002F0895312B258D3159
:101DC00040012108C2002008C1004108BD074208A7
:101DD000BE3D0030BF3DC03D2B08A0002E08953110
:101DE0002B258D3140012108C2002008C100410887
:101DF000BD074208BE3D0030BF3DC03D2B08A000DE
:101E00002F0895312B258D3140012108C200200873
:101E1000C1004108B1004208B200B301B40108306A
:101E2000B135B20DB30DB40D890B102F3108BD07BC
:101E30003208BE3D3308BF3D3408C03D3708B1000D
:101E40003808B2003908B3003A08B4001830B43684
:101E5000B30CB20CB10C890B272F3108BD07320827
:101E6000BE3D3308BF3D3408C03D0830B735B80D1E
:101E7000B90DBA0D890B362F3C083B07B100B201F2
:101E8000B20D3108823EC100FF30323DC2005F2FEB
:101E90000130BD35BE0DBF0DC00D890B492FBA1FD6
:101EA000522F532F542F3D140130B735B80DB90DB3
:101EB000BA0D890B552FFF30C107FF30C23DBF1F40
:101EC000622F632F482FBB01BA1F672F682F842F03
:101ED000FF303705B100FF303805B200FF3039055B
:101EE000B3007F303A05B4003408330432043104BF
:101EF00003197B2F7C2F7F2FBB01BB0A842F3D1C36
:101F0000822F832F842F7C2F3B080319882F892F42
:101F1000B12F0130BD070030BE3D0030BF3D003065
:101F2000C03D401C942F952FB12F3D08B1003E08B5
:101F3000B2003F08B3004008B4000130B500B43728
:101F4000B30CB20CB10CB50B9F2F3408C000330892
:101F5000BF003208BE003108BD000130C1070030AB
:101F6000C23D4208803AB10080303102031DBA2FD1
:101F7000FF304102031CBD2FBE2FC82F7F30400110
:101F8000C0008030BF000030BE000030BD00F32F25
:101F900040014208803AB10080303102031DD22F47
:101FA000013041020318D52FD62FE12F0030400118
:101FB000C0000030BF000030BE000030BD00B601E0
:101FC000F32F40014108BC00FF30BD05FF30BE05C6
:101FD0007F30BF050030C0053C1CEF2FF02FF12FE4
:101FE000BF173C36C0003608B1003108C0044008B5
:101FF000AC003F08AB003E08AA003D08A90008005D
:1026F6000F307E01A300950108007E01A3010F3073
:1027060095000800640080010131890B862B003496
:102716007B08F3007A08F2007908F1007808F000E7
:102726000800623051018D008F0191010230930043
:10273600920108004001A00020081A3E86000130E0
:102746008700010808004001A0002008183E860006
:1027560001308700010808004001A00020081A3E49
:10276600860001308700810108004001A000200892
:10277600183E860001308700810108004F0196014E
:102786009701980199019A019B019C019D010800FE
:102796009331C123933195314F259331933194234E
:1027A600933108007B084001A3007A08A20079084B
:1027B600A1007808A000080040304001D800003091
:1027C600D90020308A314022933108004001A1000F
:1027D6002108203E8600023087002008810008007C
:1027E6004001A3008B132208A00023089331E9239C
:1027F60093318B1708004001A0004E010F1E042CD8
:10280600052C002C4001200842019A0008004001D6
:10281600A0004E010F1E102C112C0C2C400120087C
:1028260042019A00080040304B019F00F3309D00A2
:102836009C014E018C12961680304B019E000800BA
:102846004E0199121912083042019F0019309B005F
:102856009C0124309E0090309D004E019916080080
:102866004001A100A0013A30210203183B2C3C2C68
:10287600442C30302102031C412C422C442CA00154
:10288600A00A200C08004001A100A0017F3021020F
:1028960003184E2C4F2C572C20302102031C542C8D
:1028A600552C572CA001A00A200C08004001A100BD
:1028B600A0015B3021020318612C622C6A2C413086
:1028C6002102031C672C682C6A2CA001A00A200C8C
:1028D60008008B137B084001A7007A08A600790838
:1028E600A5007808A4008B172708A3002608A200D5
:1028F6002508A1002408A00008004001A1007B30A3
:1029060021020318872C882C922C61302102031C8B
:102916008D2C8E2C922CDF30A0002008A1052108DA
:1029260008004001A300A401A72C24082307A20045
:10293600220886008701010894310A249431013067
:102946004001A2002208A40721082402031CAC2C83
:10295600AD2C982C08004001A300A201A20A7B30EE
:1029660023020318B72CB82CBE2C6130230203189F
:10297600BD2CBE2CC82C230894315924943103183D
:10298600C52CC62CC82C4001A2014001220C08000F
:102996004001A401A501201CD12CD22CD62C220842
:1029A600A4072308A53D0130A235A30D890BD72C1A
:1029B6000130A136A00C890BDC2C20082104031D54
:1029C600E52CE62CCE2C2508A1002408A000080042
:1029D60043018F013630900001309100D0308D00D8
:1029E600FF308E004E010F1019144001A10121087D
:1029F600203E86000230870081010130A0002008B9
:102A0600A10740302102031C092D0A2DFA2C0800CB
:102A16000134033400340134003404341534C93429
:102A26000034003400340034003400340034003400
:102A360000340034003400340034003400340034F0
:102A460000340034003400340034003400340034E0
:102A56004001A800A401A5012008A200A3012208A4
:102A6600A6002308A700281C392D3A2D3E2D26083E
:102A7600A4072708A53D0130A635A70D890B3F2DD4
:102A86000310A80C2808031D492D4A2D362D2508AC
:102A9600A1002408A0000800400198019A013F30D7
:102AA6009200133094002C307E01CE003730B800EF
:102AB600B901CF01BA01D0013730BB003F30D10098
:102AC6003F30BC003F30D2001330A00010307D01F3
:102AD600C5000F307E01A3001430A1000F30A50001
:102AE60011307D01C6001430CB0008004001A10161
:102AF600A20140011A1111304001A0003A30890BA1
:102B0600822DA00B822D000040011A1511304001C4
:102B1600A0003A30890B8D2DA00B8D2D00000130C1
:102B26004001A1070030A23D2208803AA000803073
:102B36002002031DA02D03302102031CA32DA42D6A
:102B46007C2D080040011A119331802395312330E2
:102B56004001B8009930B90084312C2495310430F5
:102B66004001D9003D30890BB62DD90BB62D003268
:102B760093317B239531C030860001308700A03029
:102B860084000030850020304001D90016001A006C
:102B9600D90BC92D0830A100A03094319424953169
:102BA60040011A15080000304001AB000030AA00B1
:102BB6000030A9000030A800201CE22DE32DEB2DEB
:102BC6002408A8072508A93D2608AA3D2708AB3DE5
:102BD6000130A435A50DA60DA70D890BEC2D0130EE
:102BE600A336A20CA10CA00C890BF32D23082204FA
:102BF60021042004031D002E012EDF2D2B08A30027
:102C06002A08A2002908A1002808A00008004001FF
:102C1600B8009331D523963140012308A700220836
:102C2600A6002108A5002008A40042015A08400178
:102C3600AB00420159084001AA0042015808400170
:102C4600A900420157084001A8009631F3269631A3
:102C560040012708031D3A2E2608031D3A2EB830D8
:102C660024020B30253B031C392E3A2E542E933169
:102C7600D5239631400123084201DA00400122089B
:102C86004201D900400121084201D8004001200834
:102C96004201D70040013808860001308700023023
:102CA600810008004001310830042F042E04031966
:102CB6005D2E5E2E972EB701B70A6C2E0130AE350B
:102CC600AF0DB00DB10D890B622E0130B60036087E
:102CD600B707B11F6F2E702E612E31083502031D06
:102CE6007E2E30083402031D7E2E2F083302031D6C
:102CF6007E2E2E083202031C812E822E8A2E2E084C
:102D0600B2022F08B33B3008B43B3108B53B013063
:102D1600B136B00CAF0CAE0C890B8B2E0130B7025E
:102D2600031D962E972E702E3508B1003408B0007C
:102D36003308AF003208AE000800003043010F1917
:102D46000130F1000030111B0130F2007208031946
:102D5600AD2EAE2EB12E4101ED01F22E71080319F2
:102D6600B52EB62EC92E7C08203E8600023087007E
:102D760001088C000130F0007008FC0740307C022E
:102D8600031CC62EC72EF02EFC01F02E0C08F300F5
:102D9600E42EED01ED0AF02E73083F39FC000230F7
:102DA600ED00F02E39307C020318DA2EDB2EE22EEF
:102DB6007C08203E86000230870073088100ED0102
:102DC600F02E41016D08003A0319CC2E013A031981
:102DD600CF2E033A0319D52EF02E43011016080004
:102DE60040012B082702031D022F2A082602031D75
:102DF600022F29082502031D022F28082402031C7E
:102E0600052F062F1B2F28082402AC002908253B76
:102E1600AD002A08263BAE002B08273BAF002F0843
:102E2600B7002E08B6002D08B5002C08B4003F2FB9
:102E36002408AC002508AD002608AE002708AF0020
:102E46002809B0002909B1002A09B2002B09B300EC
:102E56003008AC073108AD3D3208AE3D3308AF3D12
:102E660001302C07B40000302D3DB50000302E3D5A
:102E7600B60000302F3DB7003708A7003608A60079
:102E86003508A5003408A400080000304001AC0055
:102E96000030AB000030AA000030A900230822044D
:102EA600210420040319582F592F9A2FAD01AD0A7A
:102EB600672F0130A035A10DA20DA30D890B5D2F43
:102EC6000130A8002808AD07A31F6A2F6B2F5C2FBF
:102ED6000130A935AA0DAB0DAC0D890B6C2F23085B
:102EE6002702031D802F22082602031D802F21089A
:102EF6002502031D802F20082402031C832F842F04
:102F06008D2F2008A4022108A53B2208A63B2308F2
:102F1600A73B29140130A336A20CA10CA00C890BE7
:102F26008E2F0130AD02031D992F9A2F6B2F2C087F
:102F3600A3002B08A2002A08A1002908A000080067
:102F46004001DE005A08860087010108DF005B08A1
:102F5600860087010108E000AC30B8009830B9005F
:102F66005F08DC00DD015C08BA005D08BB00843147
:102F76002C249731C3304001B8009830B90060085E
:102F8600DC00DD015C08BA005D08BB0084312C243E
:102F9600973140015F08031DD12FD22FDE2F600825
:102FA600031DD62FD72FDE2F5E088600013087003F
:102FB60004308100FF2F5F03031DE22FE32FEF2F65
:102FC6006008031DE72FE82FEF2F5E08860001300B
:102FD600870006308100FF2F5F08031DF32FF42FB3
:102FE600FF2F6003031DF82FF92FFF2F5E088600C1
:102FF60001308700073081000800013400340034B6
:103006000034103400340034003400340134003409
:1030160000340034103400340034003400340134F9
:1030260000340034003410340034003400340034EA
:1030360001340034003400341034533454344134F1
:10304600543445345F3453344134563445345F3454
:1030560042344F34543454344F344D345F34433453
:1030660041344C3449344234523441345434493472
:103076004F344E345F3450344F3449344E34543424
:103086000D340A34003401340034003400340A3478
:103096000034003400346434003400340034E8343E
:1030A6000334003400341034273400340034A034A0
:1030B600863401340034403442340F3400348034D2
:1030C6009634983400340034E134F5340534003451
:1030D600CA349A343B34533454344134543445342A
:1030E6005F3453344134563445345F3454344F34AA
:1030F60050345F34433441344C34493442345234CE
:103106004134543449344F344E345F3450344F34A0
:1031160049344E3454340D340A3400345B34253487
:103126006C3475345D342034503448343A342034A9
:10313600253475342034283430342E343034313448
:103146002A3475346E346934743429340D340A34AF
:10315600003462343134203463346C34693463347B
:103166006B3465346434203463346F3475346E34B0
:1031760074343A342034253475340D340A3400342A
:1031860062343234203463346C34693463346B34DF
:1031960065346434203463346F3475346E34743477
:1031A6003A342034253475340D340A34003450341E
:1031B60048342034503472346F34623465342034E9
:1031C60077346934743468342034523453343434A4
:1031D600383435340D340A34003430343134323432
:1031E600333434343534363437343834393441347E
:1031F6004234433444344534463400343034313474
:10320600323433343434353436343734383439346C
:103216006134623463346434653466340034623451
:10322600313420346C346F346E3467342034703467
:10323600723465347334733420340D340A340034F4
:103246002D342D342D342034523465347134753494
:103256006534733474340D340A3400347334793479
:103266007334743465346D34203468346F346C349C
:1032760064340D340A340034623431342034633417
:103286006C34693463346B34653464340D340A3415
:10329600003462343234203463346C346934633439
:1032A6006B34653464340D340A3400345434453494
:1032B6004D3450343A342034253475340D340A34C0
:1032C60000343034413430343134383432343034EC
:1032D600303430343134003473346E343A3420347C
:1032E600253473340D340A340034503448343A34B7
:1032F6002034253475340D340A3400347334613483
:103306007634653464340D340A34003428346E342B
:1033160075346C346C34293400342534303432340A
:1033260058342034003425343034383478343A3440
:1033360000342034253430343234783400342034A8
:0C3346002034203400342534633400347B
:020000040001F9
:08000000FF3FFF3FFF3FFF3F00
:0A000E00EC17FE3F9F3FFF3FFE3F4F
:00000001FF
