:0400000080316628BD
:100008007E1480314E018C1E0A280B2839288C1248
:1000180001304001E6070030E73D0030E83D0030A0
:10002800E93D7A03031D19281A2839286A08660247
:10003800F4006B08673BF5006C08683BF6006D0838
:10004800693BF7007708031D35287608031D352816
:100058007508031D352865307402031C34283528BB
:100068003928FA0101304101ED004E010F1C3D28ED
:100078003E2842280F108C31542480314E018F1EA7
:100088004628472864288A310022803173084001B5
:10009800ED007208EC007108EB007008EA0001300E
:1000A800FA007B08203E86000130870042011908CB
:1000B80081000130F4007408FB077B081F39FB003E
:1000C8007E10090080316828533084008B30850009
:1000D800403086000130870020308931F12180319D
:1000E800F801F901FA01FB01FC01663084000030D7
:1000F800850008308931EB218031E53084000030FB
:10010800850009308931EB218031203084000130AD
:10011800850020308931EB218031A0308400013006
:10012800850040308931EB2180317E1040018031DB
:100138009D288A31142280318A315F2280318A31A8
:100148006C2280318B31332380317E01A3010F3043
:10015800950063304001B8009030B90083315B23CB
:100168008031C1304001B8009030B900B630BA00D3
:100178009030BB0083315B23803104304101A00003
:100188003D30890BC528A00BC52800320F307E01F1
:10019800A30095018B170B178A31B52280314001D6
:1001A80023084101E400400122084101E300400125
:1001B80021084101E200400120084101E1006408F2
:1001C8004001A300410163084001A2004101620807
:1001D8004001A100410161084001A00041016C08F3
:1001E8004001A70041016B084001A60041016A08CF
:1001F8004001A500410169084001A4008C31A424F4
:10020800803140012308031D14292208031D1429E5
:10021800A03020020F30213B031C132914296D291B
:1002280041016408EC006308EB006208EA00610819
:10023800E90040011A117E01A3010F3095009B309F
:100248004001B8009030B900410164084001BD0088
:10025800410163084001BC00410162084001BB0044
:10026800410161084001BA0083315B2380310430C9
:100278004101A0003D30890B3F29A00B3F290032E6
:100288000F307E01A30095014030860001308700C1
:10029800AC3084000030850020304101A0001600F9
:1002A8001A00A00B5329DE015E08AC3E86008701C8
:1002B80001088A314722803101304101A00020081D
:1002C800DE0708305E02031C6A296B2958294001A1
:1002D8001A1541016D08031972297329082BED01BC
:1002E80040011A11FB0100304101D7000030D6004F
:1002F8000030D5000030D400420124084101A0009C
:10030800A101A201A301420123084101A400A50102
:10031800A601A7010830A435A50DA60DA70D890BC8
:100328008F29420126084101A800A901AA01AB01B1
:100338001030A835A90DAA0DAB0D890B9D294201D6
:1003480025084101AB042808A4042908A5042A08A3
:10035800A6042B08A70420082404CC00210825049F
:10036800CD0022082604CE0023082704CF00D4306D
:1003780086008701CD29CC308400850104304101F5
:10038800A00020080319CE2912001E00A00BC829BE
:10039800CE29BF29410157084001B0004101560844
:1003A8004001AF00410155084001AE004101540829
:1003B8004001AD004230AC00C830AB000030AA00AC
:1003C8000030A9008D31C525803140012C08C600B8
:1003D8002B08C5002A08C4002908C3008D315425FC
:1003E8008031400144084101E000400143084101D7
:1003F800DF00CA304001B8009030B9004101600800
:100408004001BB0041015F084001BA0083315B2312
:10041800803100304101DB000030DA000030D900C3
:100428000030D800420128084101A000A101A20122
:10043800A301420127084101A400A501A601A701C3
:100448000830A435A50DA60DA70D890B252A420154
:100458002A084101A800A901AA01AB011030A8355A
:10046800A90DAA0DAB0D890B332A420129084101B8
:10047800AB042808A4042908A5042A08A6042B0804
:10048800A70420082404D00021082504D10022084C
:100498002604D20023082704D300D8308600870119
:1004A800632AD0308400850104304101A00020086F
:1004B8000319642A12001E00A00B5E2A642A552A1A
:1004C80041015B084001B00041015A084001AF00FA
:1004D800410159084001AE00410158084001AD00F2
:1004E8004230AC00C830AB000030AA000030A90090
:1004F8008D31C525803140012C08C6002B08C50068
:100508002A08C4002908C3008D31542580314001D0
:1005180044084101DD00400143084101DC00AB30E3
:100528004001B8009030B90041015D084001BB00AE
:1005380041015C084001BA0083315B2380317E01B0
:10054800A3010F30950004304101A0003D30890B14
:10055800AB2AA00BAB2A00320F307E01A300950115
:100568008B13410160084001A00000308A3132221B
:10057800803141015F084001A00001308A313222F8
:10058800803141015D084001A00002308A313222E9
:10059800803141015C084001A00003308A313222D9
:1005A80080318B1740011A157E01A3010F30950089
:1005B8008A311E22803120304001B8009030B900C5
:1005C8008A312822803140012308BD002208BC005E
:1005D8002108BB002008BA00410160084001BF00A3
:1005E80041015F084001BE0083315B238031043044
:1005F8004101A0003D30890BFF2AA00BFF2A0032E1
:100608000F307E01A30095018A31B5228031400167
:1006180023084101E400400122084101E3004001B0
:1006280021084101E200400120084101E10064087D
:100638004001A300410163084001A2004101620892
:100648004001A100410161084001A0004101680882
:100658004001A700410167084001A6004101660862
:100668004001A500410165084001A4008C31A42483
:10067800803140012308031D4C2B2208031D4C2BFD
:10068800D03020020730213B031C4B2B4C2BD028A9
:1006980041016408E8006308E7006208E6006108B1
:1006A800E5008B31CB238031D028803166283A3061
:1006B8004001D300EC2D253057060319642B652B18
:1006C8006A2B57088A3153228331EC2DD501D60184
:1006D800D401732B54150130B8070030B93D3808E0
:1006E8008400390885000008303A03196E2B7C2BEA
:1006F800380884003908850000088A318F22833140
:10070800031C872B882B3D2C4001D501D6010A30CC
:100718004001A0000030A1005608A3005508A2001F
:100728008B311323833140012108D6002008D500DE
:1007380038088400390885000008D03EC000FF3022
:1007480003180030C1004008D5074108D63D0130E4
:10075800B8070030B93D380884003908850000081A
:100768008A318F2283310318BA2BBB2B8B2B3D2C5C
:1007780054163D2CD416D417612C530886008701D3
:10078800403FCB00413FCC000230C0004008D307B7
:100798004B084C04031DD12BD22BD62BD330CB00C6
:1007A8009030CC00D101D201DD2B0130D1070030CF
:1007B800D23D4B08510784004C08523D8500120079
:1007C800031DE72BE82BD92B56085202031DEE2BED
:1007D800550851020318F12BF22BF72B5108D502BB
:1007E8005208D63BFE2BD501D601FE2B20308A318C
:1007F80053228331FF304001D507FF30D63D550ADB
:10080800031D0A2C560A031D0A2C0B2CFA2B192C33
:100818004B0884004C08850000088A315322833134
:1008280001304001CB070030CC3D0130D10200300F
:10083800D23B510A031D242C520A031D242C252CBB
:100848000C2CEC2D5308860087010108D7000230D4
:10085800C0004008D3075730CB000030CC0001302F
:10086800D1000030D200E82BC030C0004008D404CA
:10087800612C40013908C1003808C000B80A0319C2
:10088800B90A40088400410885000008D700003AEA
:100898000319FF2D583A0319BE2B3B3A0319262C8E
:1008A8000F3A0319BC2B1F3A0319C12B063A031937
:1008B800382C0D3A0319BF2B2F2C541E642C652C91
:1008C800752C530886008701403FCD00413FCE007C
:1008D800423FCF00433FD0000430C0004008D30758
:1008E800012D530886008701403FC000413FC100E9
:1008F8004008CD004108CE00CF01D0010230C00031
:100908004008D307012DD701D70A0A305706031D1F
:100918008E2C8F2C902C0A2D5708C000C101C03591
:10092800C10DC035C10D3B30400784001030413D3A
:1009380080388500003FC200013FC300023FC40069
:10094800033FC50045085002031DB42C44084F025C
:10095800031DB42C43084E02031DB42C42084D025B
:100968000318B72CB82CB92C0A2D0130C000400848
:10097800D7070A305706031DC22CC32C902C0A2D0A
:10098800D701D70A08305706031DCB2CCC2CCD2C09
:100998000A2D5708C000C101C035C10DC035C10DB1
:1009A8000030400784001030413D80388500003F0A
:1009B800C200013FC300023FC400033FC500450811
:1009C8005002031DF12C44084F02031DF12C43086B
:1009D8004E02031DF12C42084D020318F42CF52C8D
:1009E800F62C0A2D0130C0004008D70708305706FA
:1009F800031DFF2C002DCD2C0A2D5408C039803A38
:100A08000319C42C403A0319872C0A2D5608803A3A
:100A1800803C031D112D550857020318142D152D60
:100A28001E2D40015708C000C1014008D5024108E9
:100A3800D63B212D4001D501D601541D242D252D4D
:100A48003B2D5508560403192A2D2B2D502D3030D7
:100A58008A3153228331FF304001D507FF30D63D1C
:100A680055085604031D392D3A2D2B2D502D5508A8
:100A780056040319402D412D502D20308A31532220
:100A88008331FF304001D507FF30D63D5508560465
:100A9800031D4F2D502D412D5708C000C10140089E
:100AA800C9004108CA00DF2D0030B1000030B00095
:100AB8000030AF000A30AE004A08850049088400BB
:100AC8008435850D8435850D3B3084071030053D10
:100AD80080388500003FA000013FA100023FA2002E
:100AE800033FA3005008A7004F08A6004E08A50022
:100AF8004D08A4008C31F924833140012308B50046
:100B08002208B4002108B3002008B2008C3109245F
:100B1800833140012E08303ED700DB2D4A0885007E
:100B2800490884008435850D8435850D0030840797
:100B38001030053D80388500003FA000013FA1002E
:100B4800023FA200033FA3005008A7004F08A600D9
:100B58004E08A5004D08A4008C31F92483314001CA
:100B680020080F39C800D41ABA2DBB2DC02D8A30E1
:100B7800C6009030C700C42D7930C6009030C70039
:100B88004708C1004608C0004808400784004108DB
:100B98000318410A85000008D700DB2D5408C03926
:100BA800803A0319922D403A0319582DDB2D570826
:100BB8008A3153228331FF304001C907FF30CA3DD3
:100BC800490A031DEB2D4A0A031DEB2DEC2DD22DEE
:100BD80040013908C1003808C000B80A0319B90A29
:100BE80040088400410885000008D7005708031D05
:100BF800FE2DFF2D5F2B08004001B9004001390888
:100C0800860087010108BA000130B0003008B90732
:100C18003A088A31DD2286310318132E152E400139
:100C2800022E00304001B8000030B7000030B60096
:100C38000030B500B4012D303A06031D242E252EB0
:100C4800312EB401B40A3908860087010108BA00B8
:100C58000130B0003008B907382E2B303A06031D92
:100C6800362E372E382E272E30303A06031D3D2ECD
:100C78003E2E782E3908860087010108BA00013017
:100C8800B0003008B9072D082E0403194C2E4D2E3C
:100C9800542E10302D062E04031D532E542E6E2E66
:100CA80078303A060319592E5A2E602E58303A06D3
:100CB800031D5F2E602E6E2E1030AD000030AE008A
:100CC8003908860087010108BA000130B0003008F1
:100CD800B907782E2D082E04031D732E742E782E36
:100CE8000830AD000030AE002D082E04031D7D2E07
:100CF8007E2E822E0A30AD000030AE003A088A31CE
:100D0800F6228631031C892E8A2E932E40013A083A
:100D18008A31C9228631C93E4001BA009F2E40015E
:100D28003A088A318F228631031C9B2E9C2EE02E96
:100D380030304001BA022E08803A803C031DA62EAE
:100D48002D083A02031CA92EAA2EAB2EE02E400134
:100D58003A08B000B101B201B3012D08A0002E0875
:100D6800A100890D893B8909A200A3003808A700C2
:100D78003708A6003608A5003508A4008B3197234C
:100D8800863140012008B0072108B13D2208B23D54
:100D98002308B33D3308B8003208B7003108B6005D
:100DA8003008B5003908860087010108BA0001300B
:100DB800B0003008B907822E40012C080319E52E2F
:100DC800E62EEC2E2C08860087013908FF3E8100AC
:100DD80034080319F02EF12E012F3509AC0036091D
:100DE800AD003709AE003809AF00AC0A0319AD0AE7
:100DF8000319AE0A0319AF0A092F3808AF003708DC
:100E0800AE003608AD003508AC0008004001E0002F
:100E18006008E100E201E301C62FDA30B800903043
:100E2800B9006308BB006208BA0083315B238731CD
:100E38004001E401E50164086207DA006508633DE2
:100E4800DB0059085B02031D2B2F58085A020318B0
:100E58002E2F2F2F482FE030B8009030B9006208AD
:100E68006107DA0064085A07DB005B088600013076
:100E780087000108DC00DD015C08BA005D08BB00E2
:100E880083315B2387314F2FEC30B8009030B900A5
:100E980083315B23873101304001E4070030E53DB1
:100EA80000306502103003196402031C5C2F5D2FAB
:100EB8001F2FED30B8009030B90083315B238731A4
:100EC8004001E401E50164086207DA006508633D52
:100ED800DB0059085B02031D732F58085A020318D8
:100EE800762F772FAC2F62086107DA0064085A075B
:100EF800DB005B0886000130870001088A317C220C
:100F080087310318882F892F8F2F2E304001DE005C
:100F18000030DF00A12F400162086107DA00640891
:100F28005A07DB005B088600013087000108DC00F7
:100F3800DD015C08DE005D08DF00F030B8009030AD
:100F4800B9005F08BB005E08BA0083315B238731B4
:100F580001304001E4070030E53D00306502103003
:100F680003196402031CB92FBA2F672F3830B80051
:100F78009030B90083315B23873110304001E2079C
:100F88000030E33D59086302031DCC2F5808620264
:100F9800031CCF2FD02F112F0800400198019A0170
:100FA8003F309200133094002C307E01CE00373051
:100FB800B800B901CF01BA01D0013730BB003F30CA
:100FC800D1003F30BC003F30D2001330A0001030B9
:100FD8007D01C5000F307E01A3001430A1000F3041
:0E0FE800A50011307D01C6001430CB000800BA
:1013D600640080010131890BEC290034FE00120003
:1013E6001E00FE0BF2290034623051018D008F0180
:1013F6009101023093009201080040016908F30050
:101406006808F2006708F1006608F00008004F015E
:1014160096019701980199019A019B019C019D01F2
:1014260008008A310A228A318731D1278A318931E7
:10143600F7218A31080040304001D8000030D90039
:10144600A03087310A278A31080040016908A300C5
:101456006808A2006708A1006608A000080040010D
:10146600A1002108A03E86000130870020088100E7
:1014760008004001A3008B132208A00023088A312C
:1014860032228A318B1708004001A0004E010F1E40
:101496004D2A4E2A492A4001200842019A00080096
:1014A6004001A0004E010F1E592A5A2A552A400112
:1014B600200842019A00080040304B019F00F3309B
:1014C6009D009C014E018C12961680304B019E00A9
:1014D60008004E0199121912083042019F00193076
:1014E6009B009C0124309E0090309D004E01991671
:1014F60008004001A100A0017F3021020318842AC0
:10150600852A8D2A20302102031C8A2A8B2A8D2ABD
:10151600A001A00A200C08004001A100A0013A3059
:1015260021020318972A982AA02A30302102031C88
:101536009D2A9E2AA02AA001A00A200C080040018C
:10154600A100A0015B3021020318AA2AAB2AB32A04
:1015560041302102031CB02AB12AB32AA001A00AF5
:10156600200C08008B1340016908A7006808A60034
:101576006708A5006608A4008B172708A30026089D
:10158600A2002508A1002408A00008004001A1002F
:101596007B3021020318D02AD12ADB2A61302102AE
:1015A600031CD62AD72ADB2ADF30A0002008A10593
:1015B600210808004001A100A001A00A2030210650
:1015C6000319E62AE72AF42A0E3021020318EC2A28
:1015D600ED2AF32A093021020318F22AF32AF42A03
:1015E600A001200C08004001A300A201A20A7B3042
:1015F60023020318FF2A002B062B6130230203184F
:10160600052B062B102B23088A31A2228A310318B8
:101616000D2B0E2B102B4001A2014001220C0800BD
:101626004001A401A501201C192B1A2B1E2B2208F0
:10163600A4072308A53D0130A235A30D890B1F2B56
:101646000130A136A00C890B242B20082104031D90
:101656002D2B2E2B162B2508A1002408A0000800F0
:1016660043018F013630900001309100D0308D005B
:10167600FF308E004E010F1019144001A101210800
:10168600A03E86000130870081010130A0002008BD
:10169600A10740302102031C512B522B422B08007C
:1016A6000134033400340134003404341534C934AD
:1016B6000034003400340034003400340034003484
:1016C6000034003400340034003400340034003474
:1016D6000034003400340034003400340034003464
:1016E6004001A800A401A5012008A200A301220828
:1016F600A6002308A700281C812B822B862B2608F0
:10170600A4072708A53D0130A635A70D890B872B11
:101716000310A80C2808031D912B922B7E2B25085D
:10172600A1002408A000080000304001AB000030F2
:10173600AA000030A9000030A800201CA32BA42B6F
:10174600AC2B2408A8072508A93D2608AA3D27088A
:10175600AB3D0130A435A50DA60DA70D890BAD2B0C
:101766000130A336A20CA10CA00C890BB42B2308C4
:10177600220421042004031DC12BC22BA02B2B08FD
:10178600A3002A08A2002908A1002808A000080032
:101796004001C1014108BB00BC01BB35BC0DB630E0
:1017A6003B07840010303C3D803885000008BE00B1
:1017B6004108BB00BC01BB35BC0DB7303B078400FC
:1017C60010303C3D803885000008BF00C001AC01E8
:1017D6001030AD000030AE003E30863100268B3131
:1017E60040012C08BD003D08A2004108393E8A315F
:1017F6003C228B3101304001BB003B08C10705305C
:101806004102031C072C082CCD2B0800400131088F
:1018160030042F042E040319112C122C4B2CB70163
:10182600B70A202C0130AE35AF0DB00DB10D890BC6
:10183600162C0130B6003608B707B11F232C242C0E
:10184600152C31083502031D322C30083402031DD5
:10185600322C2F083302031D322C2E083202031CB1
:10186600352C362C3E2C2E08B2022F08B33B3008FE
:10187600B43B3108B53B0130B136B00CAF0CAE0C01
:10188600890B3F2C0130B702031D4A2C4B2C242C0C
:101896003508B1003408B0003308AF003208AE0096
:1018A6000800003043010F190130F1000030111B10
:1018B6000130F20072080319612C622C642CF801C5
:1018C600A32C71080319682C692C7C2C7908A03E7E
:1018D60086000130870001088C000130F000700896
:1018E600F90740307902031C792C7A2CA22CF901D5
:1018F600A22C0C08F300972CF801F80AA22C730806
:101906003F39F9000230F800A22C39307902031869
:101916008D2C8E2C952C7908A03E860001308700F0
:1019260073088100F801A22C7808003A03197F2C6D
:10193600013A0319822C033A0319882CA22C10169B
:101946000800400127082302031DB32C26082202A3
:10195600031DB32C25082102031DB32C24082002E5
:10196600031CB62CB72CCC2C24082002A800250872
:10197600213BA9002608223BAA002708233BAB00EF
:101986002B08B3002A08B2002908B1002808B000C5
:10199600F02C2008A8002108A9002208AA00230884
:1019A600AB002409AC002509AD002609AE002709C5
:1019B600AF002C08A8072D08A93D2E08AA3D2F0820
:1019C600AB3D01302807B0000030293DB1000030A2
:1019D6002A3DB20000302B3DB3003308A300320885
:1019E600A2003108A1003008A00008000030400124
:1019F600AC000030AB000030AA000030A90023087C
:101A06002204210420040319092D0A2D4B2DAD01B2
:101A1600AD0A182D0130A035A10DA20DA30D890B1D
:101A26000E2D0130A8002808AD07A31F1B2D1C2D65
:101A36000D2D0130A935AA0DAB0DAC0D890B1D2D51
:101A460023082702031D312D22082602031D312DEE
:101A560021082502031D312D20082402031C342DE4
:101A6600352D3E2D2008A4022108A53B2208A63BC1
:101A76002308A73B29140130A336A20CA10CA00C05
:101A8600890B3F2D0130AD02031D4A2D4B2D1C2D18
:101A96002C08A3002B08A2002A08A1002908A000F0
:101AA600080003104001450D460DCC004C08031DEF
:101AB6005D2D5E2D672D0030C6000030C50000305C
:101AC600C4000030C300C42D4308C7004408C80042
:101AD6004508C9004608CA001F30CA36C90CC80CDA
:101AE600C70C890B702D4708CB00C517FF30C305FF
:101AF600FF30C405FF30C5050030C6059630CC0260
:101B0600CC1F862D872D9F2D4C08803A973E0318B3
:101B16008D2D8E2D8F2D5E2D0130C636C50CC40C35
:101B2600C30C890B902D0130C7004708CC07031D55
:101B36009D2D9E2D8F2DB42D20304C02031CA42DDF
:101B4600A52DAF2D5E2D0130C335C40DC50DC60DB7
:101B5600890BA72D0130CC024C08031DB32DB42DE3
:101B6600A62D4B080319B82DB92DC42DC309C409D8
:101B7600C509C609C30A0319C40A0319C50A031904
:101B8600C60A080040012C088039B6002C35BC0076
:101B9600AB1FCE2DCF2DD02D3C143C080319D42DD0
:101BA600D52DE42D3C0A031DD92DDA2DE22D00306A
:101BB600AC000030AB000030AA000030A900AB1723
:101BC600EC2D0030AC000030AB000030AA00003035
:101BD600A90030088039B1003108B6063035BB009F
:101BE600AF1FF62DF72DF82D3B143B080319FC2DDE
:101BF600FD2D0C2E3B0A031D012E022E0A2E00304F
:101C0600B0000030AF000030AE000030AD00AF17BE
:101C1600142E0030B0000030AF000030AE000030AF
:101C2600AD003B080319182E192E1E2E3C08031D65
:101C36001D2E1E2E272E0030AC000030AB000030CB
:101C4600AA000030A900FF2F2908A0002F088B3119
:101C560073238D3140012108C2002008C1004108CC
:101C6600B100B201B301B4013408BA003308B900B7
:101C76003208B8003108B7004208B100B201B3011A
:101C8600B4013408C0003308BF003208BE00310872
:101C9600BD002A08A0002E088B3173238D31400128
:101CA6002108C2002008C1004108B100B201B301F9
:101CB600B4013108B7073208B83D3308B93D3408D6
:101CC600BA3D4208B100B201B301B4013108BD0703
:101CD6003208BE3D3308BF3D3408C03D2B08A00086
:101CE6002D088B3173238D3140012108C200200855
:101CF600C1004108B100B201B301B4013108B70710
:101D06003208B83D3308B93D3408BA3D4208B1003F
:101D1600B201B301B4013108BD073208BE3D330834
:101D2600BF3D3408C03D0830B735B80DB90DBA0D02
:101D3600890B972E2A08A0002D088B3173238D312D
:101D460040012108C2002008C1004108B707420827
:101D5600B83D0030B93DBA3D2908A0002E088B31A8
:101D660073238D3140012108C2002008C1004108BB
:101D7600B7074208B83D0030B93DBA3D0830B7351F
:101D8600B80DB90DBA0D890BC22E2908A0002D0871
:101D96008B3173238D3140012108C2002008C10018
:101DA6004108B7074208B83D0030B93DBA3D2A0898
:101DB600A0002F088B3173238D3140012108C2000A
:101DC6002008C1004108BD074208BE3D0030BF3DA6
:101DD600C03D2B08A0002E088B3173238D314001A6
:101DE6002108C2002008C1004108BD074208BE3DC7
:101DF6000030BF3DC03D2B08A0002F088B31732358
:101E06008D3140012108C2002008C1004108B100FF
:101E16004208B200B301B4010830B135B20DB30DBA
:101E2600B40D890B102F3108BD073208BE3D3308AB
:101E3600BF3D3408C03D3708B1003808B200390844
:101E4600B3003A08B4001830B436B30CB20CB10C77
:101E5600890B272F3108BD073208BE3D3308BF3D29
:101E66003408C03D0830B735B80DB90DBA0D890B29
:101E7600362F3C083B07B100B201B20D3108823E55
:101E8600C100FF30323DC2005F2F0130BD35BE0DAF
:101E9600BF0DC00D890B492FBA1F522F532F542F38
:101EA6003D140130B735B80DB90DBA0D890B552F54
:101EB600FF30C107FF30C23DBF1F622F632F482F7F
:101EC600BB01BA1F672F682F842FFF303705B1007B
:101ED600FF303805B200FF303905B3007F303A05D0
:101EE600B400340833043204310403197B2F7C2FE9
:101EF6007F2FBB01BB0A842F3D1C822F832F842F8B
:101F06007C2F3B080319882F892FB12F0130BD077D
:101F16000030BE3D0030BF3D0030C03D401C942F18
:101F2600952FB12F3D08B1003E08B2003F08B3001F
:101F36004008B4000130B500B437B30CB20CB10C94
:101F4600B50B9F2F3408C0003308BF003208BE000F
:101F56003108BD000130C1070030C23D4208803A59
:101F6600B10080303102031DBA2FFF304102031C3D
:101F7600BD2FBE2FC82F7F304001C0008030BF006C
:101F86000030BE000030BD00F32F40014208803A09
:101F9600B10080303102031DD22F013041020318F7
:101FA600D52FD62FE12F00304001C0000030BF00F2
:101FB6000030BE000030BD00B601F32F40014108DD
:101FC600BC00FF30BD05FF30BE057F30BF050030C9
:101FD600C0053C1CEF2FF02FF12FBF173C36C00079
:101FE6003608B1003108C0044008AC003F08AB0019
:101FF6003E08AA003D08A900080001340034003458
:102006000034103400340034003400340134003419
:102016000034003410340034003400340034013409
:1020260000340034003410340034003400340034FA
:10203600013400340034003410345B3425346C34FD
:1020460075345D342034503448343A3420342534E1
:1020560075342034283430342E34303431342A3434
:1020660075346E346934743429340D340A340034CA
:1020760001340034003400340A34003400340034AF
:102086006434003400340034E8340334003400345B
:102096001034273400340034A0348634013400343C
:1020A600403442340F34003480349634983400344B
:1020B6000034E134F53405340034CA349A343B3400
:1020C600503448342034503472346F3462346534BA
:1020D60020347734693474346834203452345334B9
:1020E6003434383435340D340A3400343034313431
:1020F600323433343434353436343734383439348E
:102106004134423443344434453446340034303464
:102116003134323433343434353436343734383475
:10212600393461346234633464346534663400347B
:102136005B3425346C3475345D3420345234653464
:10214600713475346534733474340D340A340034A0
:10215600543445344D3450343A34203425347534AF
:102166000D340A34003430344134303431343834A8
:1021760032343034303430343134003473346E34E5
:102186003A342034253473340D340A340034503450
:1021960048343A342034253475340D340A34003446
:1021A60028346E3475346C346C3429340034253458
:1021B6003034383478343A340034203425343034EA
:1021C60032347834003425343034323458342034C0
:1021D6000034203420342034003425346334003471
:020000040001F9
:08000000FF3FFF3FFF3FFF3F00
:0A000E00EC17FE3F9F3FFF3FFE3F4F
:00000001FF
