:10000000803169288B1308007E1480314E018C1ECC
:100010000A280B283B288C120130F8070030F93DE4
:100020000030FA3D0030FB3D40016E03031D1928EE
:100030001A283B28410168087802F4006908793BD6
:10004000F5006A087A3BF6006B087B3BF7007708FF
:10005000031D36287608031D36287508031D36282B
:10006000C9307402031C352836283B284001EE01B4
:1000700001304101EC004E010F1C3F28402844286C
:100080000F1088311B2080314E018F1E48284928CF
:10009000672894311C24803173084101EB007208F9
:1000A000EA007108E9007008E80001304001EE0044
:1000B0007D08C83E86000130870042011908810092
:1000C0000130F4007408FD077D081F39FD007E1023
:1000D000090080316B281B30840095308500533037
:1000E00086000130870018309331F6238031D830F4
:1000F000840087308500A0308600013087002830DA
:100100009331F6238031C030840097308500A030D1
:1001100086000230870040309331F6238031F801A9
:10012000F901FA01FB01FC01FD01EB01EC01ED011C
:10013000EE01EF01E4308400003085000930933196
:10014000F02380313B30840001308500183093313A
:10015000F0238031C8308400013085002030933195
:10016000F02380312030840002308500403093310C
:10017000F02380312030840003308500203093311B
:10018000F02380317E1040018031C628943138241C
:1001900080319431792480319431942480319531A7
:1001A000C62580317E013812400112167E01B81238
:1001B00040019216C930A0000030A10089311D21F4
:1001C000803120304001A0000130A10089311D2183
:1001D000803102304001EA00E901E8019331EB236C
:1001E0008031FE304001AE009830AF008331A02353
:1001F000803187304001AE009930AF007230B000DE
:100200009930B1008331A023803104304001E600F1
:100210003D30890B0929E60B0929003294318624E7
:1002200080318B170B179431DD2480314001230876
:100230004101A300400122084101A2004001210820
:100240004101A100400120084101A0002308400114
:10025000A300410122084001A20041012108400100
:10026000A100410120084001A000410167084001B0
:10027000A700410166084001A60041016508400150
:10028000A500410164084001A40088316E2080313E
:1002900040012308031D58292208031D582921085D
:1002A000031D582914302002031C572958292E2BCE
:1002B00041012308E7002208E6002108E5002008A4
:1002C000E400C9304001B2000030B30000300C1A25
:1002D0000130B4009431DD24803140012308B8009E
:1002E0002208B7002108B6002008B5008E3102268A
:1002F000803120304001B2000130B30000308C1A50
:100300000130B4009431DD24803140012308B8006D
:100310002208B7002108B6002008B5008E31022659
:1003200080312E2B410123084001A3004101220806
:100330004001A200410121084001A1004101200823
:100340004001A000420152084001A70042015108AB
:100350004001A600420150084001A50042014F089B
:100360004001A40088316E20803140012308031D24
:10037000C4292208031DC429883020021330213BE0
:10038000031CC329C429DE29410123084201D200EC
:10039000410122084201D100410121084201D0005F
:1003A000410120084201CF00A4304001CD006A3055
:1003B00095318725803106304001EA000430400144
:1003C000E6003D30890BE229E60BE2290032933149
:1003D000EB238031C9304001CD002030CE006930A0
:1003E000CF006830D0006A308B31872380310430F1
:1003F0004001E6003D30890BFB29E60BFB2900326A
:10040000943186248031462BE901E801410123081B
:100410004001A300410122084001A200410121083E
:100420004001A100410120084001A000420146080E
:100430004001A700420145084001A60042014408CE
:100440004001A500420143084001A40088316E200C
:10045000803140012308031D382A2208031D382A51
:10046000883020021330213B031C372A382A572AB0
:10047000410123084201C600410122084201C50092
:10048000410121084201C400410120084201C3008A
:1004900097310C27803104304001E6003D30890B54
:1004A0004F2AE60B4F2A003205304001EA00C930DE
:1004B0004001CD002030CE006930CF006830D00040
:1004C0006A308B318723803104304001E6003D30B3
:1004D000890B682AE60B682A0032C9304001A00067
:1004E0002030A1006930A2006830A3006A30963144
:1004F0006F268031462BA430CD006A308A313022FD
:10050000803104304001EA00462BA430CD006A302F
:10051000893193218031812A4101EC01FD01A43010
:1005200096313C26803104304001E6003D30890B95
:10053000972AE60B972A00329331EB2380319431CE
:100540004224803195304001AE009130AF0041012E
:1005500026084001B100410125084001B0004101D9
:100560003E084001B30041013D084001B200410195
:1005700042084001B500410141084001B400833107
:10058000A02380310E304001AE009230AF008331A5
:10059000A023803196311026803194318624803119
:1005A000812A4101EC01FD0140011A11A43087317B
:1005B0000E2780318031022080314001A0010030BF
:1005C00094314C248031410124084001A0000130C5
:1005D00094314C248031410146084001A000023092
:1005E00094314C248031410145084001A000033082
:1005F00094314C2480319331E923803140011A1524
:100600009331EB238031943142248031003040011A
:10061000AE009830AF00410124084001E600E70138
:100620006608B0006708B100410146084001B30008
:10063000410145084001B2008331A0238031DE3002
:100640004001AE009830AF008331A0238031943157
:100650008624803102304001EA00462B40016A08BE
:10066000023A03199229013A0319462B073A031952
:10067000042A013A03198C2A033A0319D12A013AB0
:1006800003197B2A0F3A0319852A462B9431DD245E
:100690008031400123084101A300400122084101AB
:1006A000A200400121084101A100400120084101B0
:1006B000A00023084001A300410122084001A2003C
:1006C000410121084001A100410120084001A00092
:1006D000420142084001A700420141084001A60032
:1006E000420140084001A50042013F084001A4002A
:1006F00088316E20803140012308031D8A2B220897
:10070000031D8A2BD03020020730213B031C892B8C
:100710008A2B1329410123084201C200410122080A
:100720004201C100410121084201C00041012008ED
:100730004201BF0097318227803113298031692817
:1007400030304001C600D22D25304C060319A92BAC
:10075000AA2BAF2B4C08943161248331D22DCA01CE
:10076000CB01C901B82B49150130AE070030AF3DB0
:100770002E0884002F0885000008303A0319B32B97
:10078000C12B2E0884002F08850000089431B7245F
:100790008331031CCC2BCD2B802C4001CA01CB0113
:1007A0000A304001A0000030A1004B08A3004A0815
:1007B000A2009531A625833140012108CB002008F5
:1007C000CA002E0884002F0885000008D03EBA0019
:1007D000FF3003180030BB003A08CA073B08CB3D86
:1007E0000130AE070030AF3D2E0884002F08850091
:1007F00000089431B72483310318FF2B002CD02B31
:10080000802CC916C917A12C460886008701403FD5
:10081000C200413FC3000230BA003A08C60742088E
:100820004304031D142C152C192C9030C200993050
:10083000C300C701C801202C0130C7070030C83DE4
:100840004208470784004308483D85001200031D05
:100850002A2C2B2C1C2C4B084802031D312C4A0837
:1008600047020318342C352C3A2C4708CA02480892
:10087000CB3B412CCA01CB01412C20309431612467
:100880008331FF304001CA07FF30CB3D4A0A031DC8
:100890004D2C4B0A031D4D2C4E2C3D2C5C2C42083C
:1008A00084004308850000089431612483310130BD
:1008B0004001C2070030C33D0130C7020030C83BD1
:1008C000470A031D672C480A031D672C682C4F2C10
:1008D000D22D4608860087010108CC000230BA00FC
:1008E0003A08C6074C30C2000030C3000130C700D0
:1008F0000030C8002B2CC030BA003A08C904A12C23
:1009000040012F08BB002E08BA00AE0A0319AF0A37
:100910003A0884003B0885000008CC00003A03191F
:10092000E52D583A0319012C3B3A0319692C103A6A
:100930000319042C063A03197B2C0D3A0319022CD7
:10094000722C460886008701403FC400413FC50025
:100950000230BA003A08C6070B2DCC01CC0A05308C
:100960004C06031DB42CB52CB62C142D4C08BA0023
:10097000BB01BA35BB0D7D303A07840019303B3DD1
:1009800080388500003FBC00013FBD003D084502A6
:10099000031DCC2C3C0844020318CF2CD02CD12CA6
:1009A000142D0130BA003A08CC0705304C06031D5F
:1009B000DA2CDB2CB62C142DCC01CC0A04304C06DE
:1009C000031DE32CE42CE52C142D4C08BA00BB01CC
:1009D000BA35BB0D00303A07840010303B3D8038FB
:1009E0008500003FBC00013FBD003D084502031DDE
:1009F000FB2C3C0844020318FE2CFF2C002D142D68
:100A00000130BA003A08CC0704304C06031D092D0A
:100A10000A2DE52C142D4908C039803A0319DC2C25
:100A2000403A0319AD2C142D4B08803A803C031D2D
:100A30001B2D4A084C0203181E2D1F2D282D400186
:100A40004C08BA00BB013A08CA023B08CB3B2B2D2D
:100A50004001CA01CB01491D2E2D2F2D452D4A08DD
:100A60004B040319342D352D5A2D30309431612427
:100A70008331FF304001CA07FF30CB3D4A084B04A9
:100A8000031D432D442D352D5A2D4A084B040319BF
:100A90004A2D4B2D5A2D2030943161248331FF3063
:100AA0004001CA07FF30CB3D4A084B04031D592DB6
:100AB0005A2D4B2D4C08C100C82D0A30A80000301B
:100AC000A9004108BA00BB01BA35BB0D7D303A0719
:100AD000840019303B3D80388500003FA000013F75
:100AE000A1004508A3004408A2009731452783319F
:100AF00040012108AB002008AA009631D726833197
:100B000040012808303ECC00C42D4108BA00BB018A
:100B1000BA35BB0D00303A07840010303B3D8038B9
:100B20008500003FA000013FA1004508A300440844
:100B3000A200973145278331400120080F39C000BA
:100B4000C91AA32DA42DA92D2530BE009930BF00B0
:100B5000AD2D1430BE009930BF003F08BB003E08E9
:100B6000BA0040083A0784003B0803183B0A850096
:100B70000008CC00C42D4908C039803A0319852DDE
:100B8000403A03195D2DC42D4C0894316124833102
:100B9000FF304001BA003A08C107410A031DD12DB8
:100BA000D22DBB2D40012F08BB002E08BA00AE0A83
:100BB0000319AF0A3A0884003B0885000008CC00FE
:100BC0004C08031DE42DE52DA42B0800400120084E
:100BD0008600210887004E31403FA600413FA70014
:100BE000423FA800433FA900200886002108870053
:100BF0004631403FAA00413FAB00423FAC00433F7B
:100C0000AD0029082D02031D0F2E28082C02031DFC
:100C10000F2E27082B02031D0F2E26082A02031C65
:100C2000122E142E0130152E0030AE002008860042
:100C3000210887004E31403FA600413FA700423FB8
:100C4000A800433FA9002208AA002308AB002408FB
:100C5000AC002508AD002608AA022708AB3B2808EF
:100C6000AC3B2908AD3B2D08031D412E2C08031D6C
:100C7000412E2B08031D412EC9302A020318412E94
:100C8000432E0130442E00304001AF002008860082
:100C9000210887004A31403FA600413FA700423F5C
:100CA000A800433FA90020088600210887004E3194
:100CB000403FAA00413FAB00423FAC00433FAD0084
:100CC0002608AA022708AB3B2808AC3B2908AD3B05
:100CD0002D08031D752E2C08031D752EF5302A02D4
:100CE00001302B3B0318752E772E0130782E003003
:100CF0004001B00020088600210887004631403FAF
:100D0000A600413FA700423FA800433FA900220898
:100D1000AA002308AB002408AC002508AD00260873
:100D2000AA022708AB3B2808AC3B2908AD3B2D089D
:100D3000031DA62E2C08031DA62EA0302A020F305C
:100D40002B3B031CA42EA62E0130A72E0030400101
:100D5000B1002E080319AD2EAE2EDD2E2F0803197B
:100D6000B22EB32EDD2E30080319B72EB82EDD2E8D
:100D700031080319BC2EBD2EDD2E20088600210867
:100D8000870053310108A6002008123EA70000305A
:100D9000213DA80027088600280887002608810032
:100DA0002008133EA6000030213DA700260886003B
:100DB0002708870001308100F62E200886002108D0
:100DC000870053310108A6002008123EA70000301A
:100DD000213DA800270886002808870026088100F2
:100DE00020088600210887005331810120088600F1
:100DF0002108870052310108031DFF2E002F0C2F00
:100E0000200886002108870053310103031D092FA4
:100E10000A2F0C2F01300D2F003008004001E50093
:100E20009331EB238731BB304001AE009830AF00E7
:100E30008331A023873104304001CD003D30890B40
:100E40001F2FCD0B1F2F0032943186248731400194
:100E5000D901DA0143014C084001CD00CE01CF0198
:100E6000D00143014B084001D100D201D301D4018C
:100E70000830D135D20DD30DD40D890B392F430154
:100E80004E084001D500D601D701D8011030D53524
:100E9000D60DD70DD80D890B472F43014D084001C2
:100EA000D8045508D1045608D2045708D30458086A
:100EB000D4044D085104DD004E085204DE004F08F2
:100EC0005304DF0050085404E000593086008701C5
:100ED000772F5D308400850102304001CD004D0840
:100EE0000319782F12001E00CD0B722F782F692F57
:100EF00040016508860087015D088100DB01DC0197
:100F0000430150084001CD00CE01CF01D001430183
:100F10004F084001D100D201D301D4010830D135AE
:100F2000D20DD30DD40D890B8F2F430152084001F0
:100F3000D500D601D701D8011030D535D60DD70D43
:100F4000D80D890B9D2F430151084001D804550845
:100F5000D1045608D2045708D3045808D4044D08C5
:100F60005104E1004E085204E2004F085304E3002C
:100F700050085404E4005B3086008701CD2F6130B7
:100F80008400850102304001CD004D080319CE2FA9
:100F900012001E00CD0BC82FCE2FBF2F40016508B9
:100FA000213E860087016108C03F6208C13F0800FA
:100FB0000134033400340134003404341534C934AA
:100FC0000034003400340034003400340034003481
:100FD0000034003400340034003400340034003471
:100FE0000034003400340034003400340034003461
:100FF0000134063400343F340034FF34F93486348D
:101002004001A400A301142823082407A2002208F7
:1010120086008701010894316D2488310130400136
:10102200A2002208A30721082302031C19281A2858
:1010320005280800003043010F190130F10000308B
:10104200111B0130F20072080319282829282C28C4
:101052004001EB016D28710803193028312844281A
:101062007C08203E86000230870001088C00013097
:10107200F0007008FC0740307C02031C4128422823
:101082006B28FC016B280C08F3005F28EB01EB0ACC
:101092006B2873083F39FC000230EB006B283930B3
:1010A2007C020318552856285D287C08203E8600BD
:1010B2000230870073088100EB016B2840016B0846
:1010C200003A03194728013A03194A28033A031937
:1010D20050286B28430110160800400127082302FC
:1010E200031D7D2826082202031D7D2825082102D2
:1010F200031D7D2824082002031C802881289628AD
:1011020024082002A8002508213BA9002608223B2A
:10111200AA002708233BAB002B08B3002A08B20021
:101122002908B1002808B000BA282008A800210820
:10113200A9002208AA002308AB002409AC00250953
:10114200AD002609AE002709AF002C08A8072D081C
:10115200A93D2E08AA3D2F08AB3D01302807B0005B
:101162000030293DB10000302A3DB20000302B3D55
:10117200B3003308A3003208A2003108A1003008EE
:10118200A00008004001A700FF30AC00FF30AD0016
:101192000130A500A030A600A801A9010A2940013A
:1011A20028082707A2002208860087010108A30059
:1011B200A4012308AC062408AD06AA01AB01400134
:1011C2002C1CE428E528EF280130AD36AC0C890B45
:1011D200E6282508AC062608AD06F4280130AD360F
:1011E200AC0C890BF0280130AA070030AB3D2B086C
:1011F200803AA20080302202031D012908302A020F
:10120200031C04290529E02801304001A807003009
:10121200A93D2908803AA20080302202031D132929
:1012220020082802031C16291729D02840012D085E
:10123200A1002C08A0000800400120088600210817
:101242008700013081002008013EA2000030213DCC
:10125200A3002208860023088700013081002008AD
:1012620086002108870042310130C03F0030C13F73
:10127200C23FC33F20088600210887004631013063
:10128200C03F0030C13FC23FC33F20088600210853
:1012920087004A310130C03F0030C13FC23FC33FE7
:1012A20020088600210887004E310130C03F0030FF
:1012B200C13FC23FC33F2008860021088700523148
:1012C200810120088600210887005331810120080E
:1012D20086002108870054318101200886002108F8
:1012E2008700553181012008860021088700563188
:1012F20081012008860021088700573181012008DA
:1013020086002108870058318101200886002108C3
:1013120087005931810120088600210887005A314F
:10132200810108004001DE009331EB2389313D3019
:101332004001AE009830AF008331A02389310430E0
:101342004001CE003D30890BA429CE0BA4290032E6
:10135200943186248931C0308600013087005630AE
:1013620084000030850008304001CE0016001A00CB
:10137200CE0BB7294D0886008701433FDA004D089E
:1013820086008701443FDB004D0A860087014D0835
:101392001D3E84008501403F803F413F813F063032
:1013A200AE00563095316925893108304001A100DF
:1013B200563088310120893104304001CE003D3061
:1013C200890BE129CE0BE12900329331EB238931DC
:1013D20004304001CE003D30890BED29CE0BED29C2
:1013E200003208304001AE009030AF004D0A860056
:1013F2008701403FB000413FB1005A08CE00CF0103
:101402004E08B2004F08B3005B08D000D10150086B
:10141200B4005108B5005C08D200D3015208B600EE
:101422005308B7005D08D400D5015408B800550828
:10143200B9008331A023893104304001CE003D3010
:10144200890B212ACE0B212A00329431862489313C
:1014520040015E08860087010430810008004001D7
:10146200DE009331EB238A316A304001AE009830BE
:10147200AF008331A0238A3104304001CE003D30D9
:10148200890B412ACE0B412A0032943186248A31BB
:1014920053308600013087005630840000308500CA
:1014A20008304001CE0016001A00CE0B542A4D0817
:1014B20086008701433FDA004D0886008701443FDA
:1014C200DB004D0A860087014D08193E8400850124
:1014D200403F803F413F813F0630AE00563095315C
:1014E20069258A3108304001A10056308831012037
:1014F2008A3104304001CE003D30890B7E2ACE0B6A
:101502007E2A00329331EB238A3104304001CE002F
:101512003D30890B8A2ACE0B8A2A0032D030400114
:10152200AE009030AF004D0A86008701403FB00008
:10153200413FB1005A08CE00CF014E08B2004F0819
:10154200B3005B08D000D1015008B4005108B500C7
:101552005C08D200D3015208B6005308B7005D08F8
:10156200D400D5015408B8005508B9008331A0232E
:101572008A3104304001CE003D30890BBE2ACE0BA9
:10158200BE2A0032943186248A3140015E088600E8
:1015920087010430810008004001200886002108EC
:1015A20087004631403FA600413FA700423FA800C6
:1015B200433FA90020088600210887004E31403FA2
:1015C200AA00413FAB00423FAC00433FAD002908B7
:1015D2002D02031DF62A28082C02031DF62A2708CD
:1015E2002B02031DF62A26082A02031CF92AFB2ACB
:1015F2000130FC2A0030AE00200886002108870056
:101602004631403FA600413FA700423FA800433F6A
:10161200A9002208AA002308AB002408AC00250870
:10162200AD002608AA022708AB3B2808AC3B2908D4
:10163200AD3B2D08031D272B2C08031D272BA130A2
:101642002A020F302B3B0318272B292B01302A2B80
:1016520000304001AF002E080319302B312B562BDE
:101662002F080319352B362B562B2008860021080C
:10167200870057310108A6002008163EA700003057
:10168200213DA80027088600280887002608810037
:101692002008173EA6000030213DA700260886003C
:1016A20027088700013081006F2B2008860021085F
:1016B200870057310108A6002008163EA700003017
:1016C200213DA800270886002808870026088100F7
:1016D20020088600210887005731810120088600F2
:1016E2002108870056310108031D782B792B852BA1
:1016F200200886002108870057310103031D822B31
:10170200832B852B0130862B003008004001D1004D
:101712004D08A0000030A100943104248B31003A1E
:101722000319942B952BB22B58304001AE009930FF
:10173200AF008331A0238B3140014F08860087011F
:101742004F08840085010008013E81009631102671
:101752008B3140014D08A0000030A10094311424C7
:101762008B3140014E08A0000130A10094310424C5
:101772008B31003A0319BE2BBF2BDC2B65304001A5
:10178200AE009930AF008331A0238B314001500865
:10179200860087015008840085010008013E81000F
:1017A200963110268B3140014E08A0000130A10075
:1017B200943114248B3140014D08A0000030A10067
:1017C2009331FC238B31003A0319E82BE92B162CB9
:1017D20036304001AE009930AF008331A0238B3107
:1017E20040014F08860087014F08840085010008E8
:1017F200013E8100963110268B31963110268B31B5
:10180200963110268B3140014D08A0000030A10016
:1018120094310C248B314001510886008701043039
:1018220081004F0886008701810140014E08A00017
:101832000130A1009331FC238B31003A0319222C91
:10184200232C462C47304001AE009930AF00833143
:10185200A0238B31963110268B31963110268B3195
:10186200963110268B3140014E08A0000130A100B4
:1018720094310C248B3140015108860087010230DB
:1018820081004F0886008701810108004001D500D0
:101892005508D600D701D801032D9D30AE009930EE
:1018A200AF005808B1005708B0008331A0238C3133
:1018B2004001D901DA0159085707CF005A08583DAB
:1018C200D0004E085002031D682C4D084F02031829
:1018D2006B2C6C2C852CA330AE009930AF005708CE
:1018E2005607CF0059084F07D00050088600023033
:1018F20087000108D100D2015108B0005208B1009E
:101902008331A0238C318C2CA930AE009930AF00EA
:101912008331A0238C3101304001D9070030DA3DF8
:1019220000305A02103003195902031C992C9A2CC8
:101932005C2CAA30AE009930AF008331A0238C31E9
:101942004001D901DA0159085707CF005A08583D1A
:10195200D0004E085002031DB02C4D084F02031850
:10196200B32CB42CE92C57085607CF0059084F075F
:10197200D000500886000230870001089431A42468
:101982008C310318C52CC62CCC2C2E304001D30030
:101992000030D400DE2C400157085607CF0059080A
:1019A2004F07D00050088600023087000108D1009E
:1019B200D2015108D3005208D400AD30AE009930A4
:1019C200AF005408B1005308B0008331A0238C311A
:1019D20001304001D9070030DA3D00305A021030A0
:1019E20003195902031CF62CF72CA42CA330AE00C9
:1019F2009230AF008331A0238C3110304001D707E1
:101A02000030D83D4E085802031D092D4D085702DB
:101A1200031C0C2D0D2D4E2C0800400120088600C1
:101A2200210887004E31403FA600413FA700423FB8
:101A3200A800433FA90020088600210887004631FC
:101A4200403FAA00413FAB00423FAC00433FAD00E4
:101A520029082D02031D372D28082C02031D372DBE
:101A620027082B02031D372D26082A02031C3A2DB4
:101A72003C2D01303D2D0030AE00200886002108AB
:101A820087004E31403FA600413FA700423FA800D9
:101A9200433FA9002208AA002308AB002408AC0097
:101AA2002508AD002608AA022708AB3B2808AC3B54
:101AB2002908AD3B2D08031D692D2C08031D692D36
:101AC2002B08031D692DC9302A020318692D6B2DBD
:101AD20001306C2D00304001AF0020088600210843
:101AE20087004A31403FA600413FA700423FA8007D
:101AF200433FA90020088600210887004E31403F5D
:101B0200AA00413FAB00423FAC00433FAD00260874
:101B1200AA022708AB3B2808AC3B2908AD3B2D089D
:101B2200031D9F2D2C08031D9F2DF4302A02013026
:101B32002B3B031C9D2D9F2D0130A02D0030400119
:101B4200B0002E080319A62DA72DD12D2F08031999
:101B5200AB2DAC2DD12D30080319B02DB12DD12DC7
:101B6200200886002108870055310108A6002008B8
:101B7200143EA7000030213DA8002708860028084F
:101B82008700260881002008153EA6000030213D6E
:101B9200A700260886002708870001308100EA2D69
:101BA200200886002108870055310108A600200878
:101BB200143EA7000030213DA8002708860028080F
:101BC20087002608810020088600210887005531F9
:101BD2008101200886002108870054310108031D75
:101BE200F32DF42D002E20088600210887005531A0
:101BF2000103031DFD2DFE2D002E0130012E0030AC
:101C0200080040013208860033088700413101088C
:101C1200B90032088600330887003908810032088B
:101C2200013EB9000030333DBA00390886003A0857
:101C320087003408810032088600330887000103D8
:101C4200031D242E252E562E3208860033088700C7
:101C520041310108031D2E2E2F2E562E32088600EA
:101C6200330887004631403FB900413FBA00423F46
:101C7200BB00433FBC003208860033088700423174
:101C82003908C03F3A08C13F3B08C23F3C08C33F46
:101C9200320886003308870046313508C03F3608CF
:101CA200C13F3708C23F3808C33F320886003308B5
:101CB20087000108031D5E2E5F2E902E32088600DB
:101CC2003308870041310103031D682E692E902ECF
:101CD20032088600330887004E31403FB900413F49
:101CE200BA00423FBB00433FBC00320886003308C3
:101CF20087004A313908C03F3A08C13F3B08C23F1A
:101D02003C08C33F32088600330887004E3135084D
:101D1200C03F3608C13F3708C23F3808C33F3308C7
:101D2200A1003208A0003808A5003708A400360830
:101D3200A3003508A2008531E6258E31003A031949
:101D4200A32EA42EB12E40013208183EB900003055
:101D5200333DBA00390886003A0887000130810015
:101D620040013308A1003208A0003808A500370856
:101D7200A4003608A3003508A2008D310E258E314D
:101D8200003A0319C52EC62ED32E40013208193E41
:101D9200B9000030333DBA00390886003A0887009E
:101DA2000130810040013308A1003208A000380848
:101DB200A5003708A4003608A3003508A2008A311E
:101DC200CD228E31003A0319E72EE82EF52E40017E
:101DD20032081A3EB9000030333DBA003908860095
:101DE2003A0887000130810008004001B900400133
:101DF2003908860087010108BA000130B0003008B6
:101E0200B9073A08953133258E310318092F0B2F64
:101E12004001F82E00304001B8000030B700003019
:101E2200B6000030B500B4012D303A06031D1A2F5A
:101E32001B2F272FB401B40A390886008701010835
:101E4200BA000130B0003008B9072E2F2B303A0605
:101E5200031D2C2F2D2F2E2F1D2F30303A06031D40
:101E6200332F342F6E2F3908860087010108BA00FC
:101E72000130B0003008B9072D082E040319422F93
:101E8200432F4A2F10302D062E04031D492F4A2FAF
:101E9200642F78303A0603194F2F502F562F58309F
:101EA2003A06031D552F562F642F1030AD00003017
:101EB200AE003908860087010108BA000130B0007F
:101EC2003008B9076E2F2D082E04031D692F6A2FC3
:101ED2006E2F0830AD000030AE002D082E04031D19
:101EE200732F742F782F0A30AD000030AE003A08FD
:101EF20095314C258E31031C7F2F802F892F400175
:101F02003A089431F1248E31C93E4001BA00952F2E
:101F120040013A089431B7248E31031C912F922F3D
:101F2200D62F30304001BA022E08803A803C031D81
:101F32009C2F2D083A02031C9F2FA02FA12FD62FD2
:101F420040013A08B000B101B201B3012D08A0006E
:101F52002E08A100890D893B8909A200A300380837
:101F6200A7003708A6003608A5003508A400963158
:101F7200A3268E3140012008B0072108B13D220876
:101F8200B23D2308B33D3308B8003208B700310828
:101F9200B6003008B5003908860087010108BA008A
:101FA2000130B0003008B907782F40012C0803191E
:101FB200DB2FDC2FE22F2C08860087013908FF3E39
:101FC200810034080319E62FE72FF72F3509AC00FB
:101FD2003609AD003709AE003809AF00AC0A031963
:101FE200AD0A0319AE0A0319AF0AFF2F3808AF0072
:101FF2003708AE003608AD003508AC0008000134E1
:1020020000341034003400340134003410345B34B2
:10201200523458342D3442345534463446344534DF
:1020220052345D34203470344834343438343534E6
:102032002D34433461346C34693462347234613423
:10204200743469346F346E345F3442346F347434B0
:1020520074346F346D345F34563461346C34753497
:1020620065343A3420342D342D342D342D3420343B
:102072000D340A342034703448342034413444342A
:1020820043345F34763461346C34753465343A34B5
:1020920020342534753420340D340A3470344834F5
:1020A20020344134443443345F344834693467342F
:1020B20068342034423479347434653473343A34B5
:1020C20020343034783425343034323458342034A7
:1020D2000D340A34703448342034413444344334A7
:1020E2005F344C346F3477342034203442347934C2
:1020F2007434653473343A342034303478342534CB
:1021020030343234583420340D340A347034483484
:1021120020344134443443345F344C346F347734A4
:102122002034203443345234433420344834693424
:1021320067346834203442347934743465343A3440
:102142002034303478342534303432345834203426
:102152000D340A3470344834203441344434433426
:102162005F344C346F347734203420344334523467
:102172004334203448346934673468342034423478
:102182007934743465343A34203430347834253434
:1021920030343234583420340D340A3400345B3451
:1021A200523458342D34423455344634463445344E
:1021B20052345D3420347034483434343834353455
:1021C2002D34433461346C34693462347234613492
:1021D200743469346F346E345F3454346F34703411
:1021E2005F34563461346C34753465343A34203497
:1021F2002D342D342D342D3420340D340A34203432
:102202007034483420344134443443345F347634B7
:1022120061346C34753465343A3420342534753481
:1022220020340D340A347034483420344134443478
:1022320043345F3448346934673468342034423478
:1022420079347434653473343A3420343034783425
:10225200253430343234583420340D340A34703456
:10226200483420344134443443345F344C346F3482
:1022720077342034203442347934743465347334FE
:102282003A342034303478342534303432345834CB
:1022920020340D340A347034483420344134443408
:1022A20043345F344C346F34773420342034433435
:1022B2005234433420344834693467346834203427
:1022C20042347934743465343A34203430347834D6
:1022D200253430343234583420340D340A347034D6
:1022E200483420344134443443345F344C346F3402
:1022F2007734203420344334523443342034483445
:10230200693467346834203442347934743465343F
:102312003A3420343034783425343034323458343A
:1023220020340D340A3400345B34523458342D34A2
:102332004234553446344634453452345D342034C4
:102342004134443443345F34763461346C3475340C
:1023520065342034663472346F346D342034703412
:1023620048343434383435345F34703472346F3432
:10237200623465343A3420340D340A3470346834AB
:1023820020344134443443345F34763461346C3421
:10239200753465345F344C346934733474343A348C
:1023A20020342534753420340D340A3470344834E2
:1023B200203454346F3470345F3450346F346934A1
:1023C2006E34743420344134443443343A34203447
:1023D20020342034203420342534753420340D3414
:1023E2000A3470344834203442346F3474347434D0
:1023F2006F346D345F3450346F3469346E347434F6
:1024020020344134443443343A34203420342534A3
:10241200753420340D340A3400345B34433461346F
:102422006C346934623472346134743469346F34B4
:102432006E345D3420342D342D342D3420340D345B
:102442000A342D342D3459346F34753420346834C1
:102452006134763465342034353420347334653451
:1024620063346F346E3464347334203474346F34B0
:1024720020347034723465347334733420347434D9
:10248200683465342034633461346C3469346234C2
:1024920072346134743469346F346E34203462348B
:1024A2007534743474346F346E342D342D342034D6
:1024B2000D340A3400345B3452346534713475346B
:1024C2006534733474345D342034533465346E347B
:1024D200643420344134443443345F3464346134EA
:1024E2007434613420347234653471347534653433
:1024F20073347434203474346F3420347034483478
:102502003434383435345F34703472346F34623476
:10251200653420342D342034433441344C3449342E
:10252200423452344134543449344F344E342034DA
:102532004D344F344434453420342D342D342D342D
:10254200203420340D340A3400345B345234653480
:10255200713475346534733474345D3420345334D7
:1025620065346E34643420346434613474346134D8
:102572002034723465347134753465347334743490
:10258200203474346F342034703448343434383462
:1025920035345F34703472346F34623465342034CD
:1025A2002D3420344D34453441345334553452346F
:1025B20045344D3445344E34543420344D344F3444
:1025C2004434453420342D342D342D3420342034F9
:0625D2000D340A34003450
:1027D2008B1708007E01A3010F30950008006400EA
:1027E20080010131890BF12B0034FE0012001E0022
:1027F200FE0BF72B003440012008860021088700D9
:102802005A3101080800400120088600210887008B
:10281200583101080800400120088600210887007D
:102822005A318101080040012008860021088700F2
:102832005831810108007B08F3007A08F200790818
:10284200F1007808F0000800623051018D008F011C
:10285200910102309300920108004F019601970105
:10286200980199019A019B019C019D0108009431F4
:102872002E2494319531E6259431943125249431D6
:10288200080040304001CD000030CE0020308C31B5
:102892004724943108004001A1002108203E86000F
:1028A200023087002008810008004001A3008B133A
:1028B2002208A000230894314C2494318B1708007D
:1028C2004001A0004E010F1E672C682C632C4001B2
:1028D200200842019A0008004001A0004E010F1E8C
:1028E200732C742C6F2C4001200842019A000800BE
:1028F20040304B019F00F3309D009C014E018C1231
:10290200961680304B019E00080004304001A00062
:102912003D30890B8A2CA00B8A2C00320F307E01AD
:10292200A300950108004E019912191208304201C4
:102932009F0019309B009C0124309E0090309D0026
:102942004E01991608004001A100A0017F3021022A
:102952000318AC2CAD2CB52C20302102031CB22C58
:10296200B32CB52CA001A00A200C08004001A10044
:10297200A0013A3021020318BF2CC02CC82C3030E1
:102982002102031CC52CC62CC82CA001A00A200CB5
:1029920008004001A100A0015B3021020318D22CE3
:1029A200D32CDB2C41302102031CD82CD92CDB2C5C
:1029B200A001A00A200C08008B137B084001A7008D
:1029C2007A08A6007908A5007808A4008B172708C2
:1029D200A3002608A2002508A1002408A0000800E0
:1029E2004001A1007B3021020318F82CF92C032DA1
:1029F20061302102031CFE2CFF2C032DDF30A000CE
:102A02002008A10521080800A030860001308700B7
:102A1200263084000030850020304001A5001600D9
:102A22001A00A50B102D0830A10026308831012094
:102A3200953108000134063400343E340034FF344A
:102A4200A83446340134033402342E34E034A4343E
:102A52006C340034013403340034663400340134FD
:102A6200643415344001A100A001A00A20302106DF
:102A720003193C2D3D2D4A2D0E3021020318422D03
:102A8200432D492D093021020318482D492D4A2D85
:102A9200A001200C08004001A300A201A20A7B3081
:102AA20023020318552D562D5C2D61302302031885
:102AB2005B2D5C2D662D23089431CA2495310318B1
:102AC200632D642D662D4001A2014001220C0800F5
:102AD2004001B2002E08A00032088831C32095318F
:102AE20040012108B1002008B0002E083207AF00D3
:102AF2002F0886008701300881002E083207AF00B8
:102B02002F0A8600870131088100080040011A114E
:102B12009331EB239531A6304001AE009230AF00E5
:102B22008331A023953104304001CE003D30890B22
:102B3200982DCE0B982D0032943186249531953103
:102B42000525953140011A1508004001A401A5018F
:102B5200201CAC2DAD2DB12D2208A4072308A53DC4
:102B62000130A235A30D890BB22D0130A136A00C84
:102B7200890BB72D20082104031DC02DC12DA92DBD
:102B82002508A1002408A000080043018F01363067
:102B9200900001309100D0308D00FF308E004E0148
:102BA2000F1019144001A1012108203E86000230B5
:102BB200870081010130A0002008A10740302102D6
:102BC200031CE42DE52DD52D0800400198019A0142
:102BD2003F309200133094002C307E01CE0037300B
:102BE200B800B901CF01BA01D0013730BB003F3084
:102BF200D1003F30BC003F30D2001330A000103073
:102C02007D01C5000F307E01A3001430A1000F30FA
:102C1200A50011307D01C6001430CB000800400130
:102C2200A101A20140011A1111304001A0003A3065
:102C3200890B192EA00B192E000040011A15113014
:102C42004001A0003A30890B242EA00B242E000054
:102C520001304001A1070030A23D2208803AA000C5
:102C620080302002031D372E03302102031C3A2E2E
:102C72003B2E132E08004001CE009331EB239631F8
:102C820094304001AE009830AF008331A0239631DA
:102C920004304001CD003D30890B4D2ECD0B4D2E21
:102CA200003294318624963140014E08033E86005C
:102CB200870142015E08810040014E08043E860001
:102CC200870142015F08810040014E0A86008701A8
:102CD20042015F08C03F5E08C13F08004001A600F4
:102CE2002208860087010108A400230886008701C4
:102CF2000108A5002403031D7F2E802E8F2E250898
:102D0200031D842E852E8F2E26088600870107300C
:102D120081002208860087018101A22E2408031D5A
:102D2200932E942EA22E2503031D982E992EA22EA9
:102D32002608860087010830810023088600870163
:102D42008101080000304001AB000030AA000030D1
:102D5200A9000030A800201CAF2EB02EB82E2408E7
:102D6200A8072508A93D2608AA3D2708AB3D013042
:102D7200A435A50DA60DA70D890BB92E0130A336DA
:102D8200A20CA10CA00C890BC02E23082204210442
:102D92002004031DCD2ECE2EAC2E2B08A3002A0814
:102DA200A2002908A1002808A00008004001280864
:102DB20029040319DD2EDE2E072FAD01AD0AEA2EFE
:102DC2000130A835A90D890BE22E0130AC002C0888
:102DD200AD07A91FED2EEE2EE12E29082B02031DB1
:102DE200F42E28082A02031CF72EF82EFC2E28089F
:102DF200AA022908AB3B0130A936A80C890BFD2E8B
:102E02000130AD02031D062F072FEE2E2B08A9005D
:102E12002A08A80008009331EB2397315C30400167
:102E2200AE009230AF008331A023973104304001CD
:102E3200CD003D30890B1B2FCD0B1B2F003294315F
:102E42008624973104304001CD003D30890B272F75
:102E5200CD0B272F003263308600013087004E30C1
:102E620084000030850008304001CD0016001A00B1
:102E7200CD0B372F1A110830A1004E3088310120B6
:102E8200973140011A1508004001A501A60120084A
:102E9200210403194D2F4E2F7D2FA701A70A5A2F68
:102EA2000130A035A10D890B522F0130A400240856
:102EB200A707A11F5D2F5E2F512F0130A535A60D4B
:102EC200890B5F2F21082302031D692F200822028C
:102ED200031C6C2F6D2F722F2008A2022108A33B26
:102EE20025140130A136A00C890B732F0130A702E3
:102EF200031D7C2F7D2F5E2F2608A1002508A00030
:102F020008004001C1014108BB00BC01BB35BC0D3A
:102F120072303B07840019303C3D80388500000840
:102F2200BE004108BB00BC01BB35BC0D73303B0782
:102F3200840019303C3D803885000008BF00C00184
:102F4200AC011030AD000030AE003E308E31F626BE
:102F5200973140012C08BD003D08A2004108393ECE
:102F620094315624973101304001BB003B08C10720
:102F720005304102031CBE2FBF2F842F08000134ED
:102F82000634003438340134C934C73400340034D0
:102F9200003400340034003400340034003400348F
:102FA200003400340034003400340034003400347F
:102FB200003400340034003400340034003401346E
:102FC2000634003436340134A83404340034003476
:102FD200003400340034003400340034003400344F
:102FE200003400340034003400340034003400343F
:102FF20000340034003400340034003400345B34D4
:10300200523458342D3442345534463446344534DF
:1030120052345D342034763461346C347534653422
:103022002034663472346F346D3420347034483452
:103032003434383435345F34703472346F3462343B
:1030420065343A3420340D340A3470344834203430
:1030520020343A3420342534753420340D340A3483
:10306200543445344D3450343A3420342534753494
:1030720020340D340A34003453345434413454343B
:1030820045345F3453344134563445345F3442342A
:103092004F34543454344F344D345F344334413418
:1030A2004C344934423452344134543449344F3428
:1030B2004E345F3450344F3449344E345434203417
:1030C2005334613476346534643420340D340A3434
:1030D2000034533454344134543445345F3453341B
:1030E2004134563445345F3454344F3450345F34B1
:1030F200433441344C3449344234523441345434EC
:1031020049344F344E345F3450344F3449344E34A2
:103112005434203453346134763465346434203486
:103122000D340A3400345B3452346534633465340C
:103132006934763465345D34203441344434433464
:103142005F346434613474346134203466347234EC
:103152006F346D3420347034483434343834353478
:103162005F34703472346F346234653420340D3419
:103172000A3400345B345234653463346534693460
:10318200763465345D3420346434613474346134AB
:103192002034663472346F346D34203470344834E1
:1031A2003434383435345F34703472346F346234CA
:1031B200653420340D340A3400342D342D342D344A
:1031C2002D342D342D342D342D342D342D342D34F5
:1031D2002D342D342D342D342D342D342D342D34E5
:1031E2002D342D342D342D342D342D342D342D34D5
:1031F2002D3420340D340A34003450344834203411
:10320200503472346F346234653420347734693424
:1032120074346834203452345334343438343534CA
:103222000D340A34003430343134323433343434EB
:103232003534363437343834393441344234433413
:103242004434453446340034303431343234333447
:1032520034343534363437343834393461346234C2
:103262006334643465346634003462343134203477
:103272006C346F346E346734203470347234653495
:103282007334733420340D340A34003462343234EB
:1032920020346C346F346E346734203470347234BA
:1032A20065347334733420340D340A340034623498
:1032B2003134203463346C34693463346B346534B0
:1032C20064340D340A3400346234323420346334CA
:1032D2006C34693463346B34653464340D340A34C9
:1032E20000343034413430343134383432343034D0
:1032F2003034303431340034013400340A34003490
:1033020064340034E83403341034273473346E34B4
:103312003A342034253473340D340A3400342834DA
:103322006E3475346C346C342934003425343034C2
:10333200323458342034003425343034383478343C
:103342003A34003420342534303432347834003482
:0E335200203420342034003425346334003419
:020000040001F9
:08000000FF3FFF3FFF3FFF3F00
:0A000E00EC17FE3F9F3FFF3FFE3F4F
:00000001FF
