:10000000803169288B1308007E1480314E018C1ECC
:100010000A280B283B288C120130F8070030F93DE4
:100020000030FA3D0030FB3D40016F03031D1928ED
:100030001A283B28420158087802F4005908793BF5
:10004000F5005A087A3BF6005B087B3BF70077081F
:10005000031D36287608031D36287508031D36282B
:1000600065307402031C352836283B284001EF0117
:1000700001304101EF004E010F1C3F284028442869
:100080000F109231952280314E018F1E4828492849
:1000900067289C319224803173084201DB0072088A
:1000A000DA007108D9007008D80001304001EF0073
:1000B0007D08203E8600013087004201190881003A
:1000C0000130F4007408FD077D081F39FD007E1023
:1000D000090080316B282A3084009D3085005D3016
:1000E00086000130870010308731FA2780311A30BE
:1000F00084009D308500E03086000130870010309C
:100100008731FA27803155308400923085002030C5
:1001100086000230870040308731FA278031023074
:10012000840088308500C03086000230870020308F
:100130008731FA278031F801F901FA01FB01FC014E
:10014000FD01EF014101EE01EF012030840001309B
:1001500085003D309C316C248031A030840001301A
:10016000850040309C316C248031A0308400023006
:10017000850020309C316C2480317E1040018B3111
:10018000EC2B30304001C900AB2D25304F06031950
:10019000CA28CB28D0284F089C31D7248031AB2DDA
:1001A000CD01CE01D001D101E128D0150130AE073B
:1001B0000030AF3DE1285014D628D115D62850156F
:1001C000D6282E0884002F0885000008203A03193D
:1001D000DB28033A0319DD280E3A0319D5281D3A06
:1001E0000319DF28F328D01DF628F728FB28FB3059
:1001F000D005FF30D1052E0884002F0885000008A7
:100200009D314D258031031C062907293B294001DA
:10021000CD01CE010A304001A0000030A1004E08FF
:10022000A3004D08A2009E316F26803140012108B5
:10023000CE002008CD002E0884002F08850000087D
:10024000D03EBA00FF3003180030BB003A08CD079B
:100250003B08CE3D0130AE070030AF3D2E08840094
:100260002F08850000089D314D258031031839295C
:100270003A290A29552940012E0884002F088500B3
:1002800012002A3A031D45294629552949088600A6
:100290008701403FCD00413FCE000230BA003A080E
:1002A000C9070130AE070030AF3D40012E08840081
:1002B0002F08850012002E3A031D5F296029AB2903
:1002C00051170130AE070030AF3D2E0884002F08D3
:1002D000850012002A3A031D6E296F2986294908D4
:1002E000860087010108CC000230BA003A08C9072D
:1002F000CC1F7B297C298129CC01FF30D005BF3060
:10030000D1050130AE070030AF3D692ACC019E29EE
:1003100040014C08A0000A309D319B2580314001EE
:10032000CC002E0884002F0885000008D03EBA00BB
:100330003A08CC070130AE070030AF3D2E088400EC
:100340002F08850000089D314D2580310318A9290B
:10035000AA298829692ACC01692A5017932AD0161C
:10036000D017932A490886008701403FC500413FC6
:10037000C6000230BA003A08C90745084604031D02
:10038000C229C329C7296330C5009A30C600C701F6
:10039000C801CE290130C7070030C83D45084707CE
:1003A00084004608483D85001200031DD829D9293C
:1003B000CA294C080319DD29DE29F9294C08BA009D
:1003C000BB01BA1BBB033B08803ABC004808803A1B
:1003D0003C02031DED2947083A020318F029F129D0
:1003E000F92940014C08BA00BB013A08C7003B0894
:1003F000C80040014E084802031D002A4D0847026C
:100400000318032A042A092A4708CD024808CE3BCC
:100410000B2ACD01CE01D0190E2A0F2A2F2A142A19
:1004200020309C31D7248031FF304001CD07FF3090
:10043000CE3D4D0A031D202A4E0A031D202A212AE3
:10044000102A2F2A450884004608850000089C31A0
:10045000D724803101304001C5070030C63D01304E
:10046000C7020030C83B470A031D3A2A480A031D49
:100470003A2A3B2A222AD01D3E2A3F2AAB2D442A63
:1004800020309C31D7248031FF304001CD07FF3030
:10049000CE3D4D0A031D502A4E0A031D502A512AF3
:1004A000402AAB2D4908860087010108CF000230A1
:1004B000BA003A08C9074F30C5000030C600013005
:1004C000C7000030C800D929C030D0040030D104A2
:1004D000932A40012F08BB002E08BA00AE0A031968
:1004E000AF0A3A0884003B0885000008CF00003AB4
:1004F0000319BE2D583A0319AF293B3A0319522A62
:10050000073A0319932A0D3A0319932A063A031955
:10051000AD291C3A0319B229063A0319642A0D3A87
:100520000319B0295B2AC0305005BA0000305105CC
:10053000BB003A083B04031D9E2A9F2AB82A49089B
:1005400086008701403FCA00413FCB000230BA001D
:100550003A08C907CB1FAD2AAE2AC32A0330D004FC
:100560000030D104CA09CB09CA0A0319CB0AC32A2D
:10057000490886008701403FCA00413FCB00023056
:10058000BA003A08C9074C08031DC72AC82A602BBD
:100590004A084B04031DCD2ACE2A602B0130BA0035
:1005A0003A08CC07602BCF01CF0A05304F06031D58
:1005B000DA2ADB2ADC2A6F2B4F08BA00BB01BA35D6
:1005C000BB0D3F303A0784001A303B3D8038850030
:1005D000003FBC00013FBD003D084B02031DF22A55
:1005E0003C084A020318F52AF62AF72A6F2B013035
:1005F000BA003A08CF0705304F06031D002B012B28
:10060000DC2A6F2BCF01CF0A04304F06031D092BC4
:100610000A2B0B2B6F2B4F08BA00BB01BA35BB0D51
:1006200000303A07840010303B3D80388500003FA1
:10063000BC00013FBD003D084B02031D212B3C08BF
:100640004A020318242B252B262B6F2B0130BA00CE
:100650003A08CF0704304F06031D2F2B302B0B2BEE
:100660006F2BCF01CF0A06304F06031D382B392BD5
:100670003A2B6F2B4F08BA00BB01BA35BB0D1D30AA
:100680003A0784001A303B3D80388500003FBC00AB
:10069000013FBD003D084B02031D502B3C084A02A0
:1006A0000318532B542B552B6F2B0130BA003A08EB
:1006B000CF0706304F06031D5E2B5F2B3A2B6F2BA7
:1006C0005008C039003A0319D32A403A0319312B94
:1006D000C03A0319022B403A0319D32A6F2B4C0856
:1006E000BA00BB01BA1BBB033B08803A803C031D28
:1006F0007B2B3A084F0203187E2B7F2B832B400164
:100700004C08CF00992B40014C08BA00BB01BA1B22
:10071000BB033B08803ABC0080303C02031D922B97
:100720004F083A020318952B962B992B40014F083E
:10073000CC0040014D084E0403199F2BA02BB02B79
:1007400003305005BA0000305105BB003A083B04A5
:100750000319AB2BAC2BB02BFF30CD07FF30CE3DB8
:10076000511FB32BB42BD52B4C08BA00BB01BA1BBD
:10077000BB033B08803ABC004E08803A3C02031D94
:10078000C32B4D083A020318C62BC72BD22B4001AE
:100790004C08BA00BB01BA1BBB033A08CD023B08A8
:1007A000CE3BD52B4001CD01CE01C4305005BA005F
:1007B00008305105BB0040303A06083003193B06AB
:1007C000031DE32BE42BEF2B4D084E040319E92BFB
:1007D000EA2B142CFF30CD07FF30CE3D142CC03057
:1007E0005005BA0008305105BB0080303A06083089
:1007F00003193B06031DFD2BFE2B142C4E08803ADB
:10080000BA0080303A02031D072C03304D02031C4E
:100810000A2C0B2C112CFE304001CD07FF30CE3DB1
:10082000142C4001CD01CE014E08803A803C031DBE
:100830001B2C4D084F0203181E2C1F2C282C400186
:100840004F08BA00BB013A08CD023B08CE3B2B2C27
:100850004001CD01CE01501D2E2C2F2C852C0330B4
:100860005005BA0000305105BB003A083B0403199B
:100870003A2C3B2C402C2D309C31D72480316E2CCF
:10088000501C432C442C492C20309C31D7248031DF
:100890006E2CC0305005BA0008305105BB008030C6
:1008A0003A06083003193B06031D572C582C6E2CB2
:1008B00030309C31D72480314001D01A602C612C1B
:1008C000662C7830BE000030BF006A2C5830BE0065
:1008D0000030BF003E089C31D724803140014D08D4
:1008E0004E040319742C752C812D30309C31D72483
:1008F0008031FF304001CD07FF30CE3D4D084E0422
:10090000031D832C842C752C812D4D084E04031956
:100910008A2C8B2C9E2CD0198E2C8F2C9E2C203028
:100920009C31D7248031FF304001CD07FF30CE3DD0
:100930004D084E04031D9D2C9E2C8F2C033050051A
:10094000BA0000305105BB003A083B040319A92C3A
:10095000AA2CAF2C2D309C31D7248031B72C501CC1
:10096000B22CB32CB72C20309C31D7248031C0302E
:1009700040015005BA0008305105BB0040303A062E
:10098000083003193B06031DC62CC72CCC2C303075
:100990009C31D7248031812DC0305005BA000830F9
:1009A0005105BB0080303A06083003193B06031D91
:1009B000DA2CDB2CF22C30309C31D72480314001F2
:1009C000D01AE32CE42CE92C7830C0000030C100B0
:1009D000ED2C5830C0000030C10040089C31D724B5
:1009E0008031812D812D0A30A8000030A9004C08EB
:1009F000BA00BB01BA35BB0D3F303A0784001A304C
:100A00003B3D80388500003FA000013FA1004B081E
:100A1000A3004A08A2009F31C3278031400121086A
:100A2000AB002008AA009F318E27803140012808A2
:100A3000303ECF007D2D4C08BA00BB01BA35BB0D4E
:100A400000303A07840010303B3D80388500003F7D
:100A5000A000013FA1004B08A3004A08A2009F315B
:100A6000C3278031400120080F39C400D01A392D26
:100A70003A2D3F2DD030C2009930C300432DBF30F6
:100A8000C2009930C3004308BB004208BA004408C2
:100A90003A0784003B0803183B0A85000008CF0092
:100AA0007D2D4C08BA00BB01BA35BB0D1D303A078D
:100AB00084001A303B3D80388500003FA000013F94
:100AC000A1004B08A3004A08A2009F31C327803130
:100AD000400120080739303ECF007D2D5008C03935
:100AE000003A0319F32C403A0319512DC03A031967
:100AF0001B2D403A0319F32C7D2D4F089C31D72430
:100B00008031FF304001BA003A08CC074C0A031D7F
:100B10008A2D8B2D6E2DD01D8E2D8F2DAB2D4E0839
:100B2000803ABA0080303A02031D982D01304D0200
:100B3000031C9B2D9C2DAB2D20309C31D724803164
:100B4000FF304001CD07FF30CE3D4D084E04031D60
:100B5000AA2DAB2D9C2D40012F08BB002E08BA00FA
:100B6000AE0A0319AF0A3A0884003B088500000862
:100B7000CF004F08031DBD2DBE2DC5280800400124
:100B80002C088039B6002C35BC00AB1FC82DC92DF0
:100B9000CA2D3C143C080319CE2DCF2DDE2D3C0A66
:100BA000031DD32DD42DDC2D0030AC000030AB0064
:100BB0000030AA000030A900AB17E62D0030AC00D1
:100BC0000030AB000030AA000030A90030088039A6
:100BD000B1003108B6063035BB00AF1FF02DF12D46
:100BE000F22D3B143B080319F62DF72D062E3B0A78
:100BF000031DFB2DFC2D042E0030B0000030AF0093
:100C00000030AE000030AD00AF170E2E0030B00047
:100C10000030AF000030AE000030AD003B080319DB
:100C2000122E132E182E3C08031D172E182E212EBF
:100C30000030AC000030AB000030AA000030A9004A
:100C4000F92F2908A0002F089E31AF2685314001D9
:100C50002108C2002008C1004108B100B201B3015F
:100C6000B4013408BA003308B9003208B8003108BA
:100C7000B7004208B100B201B301B4013408C000AA
:100C80003308BF003208BE003108BD002A08A000AA
:100C90002E089E31AF26853140012108C200200870
:100CA000C1004108B100B201B301B4013108B70776
:100CB0003208B83D3308B93D3408BA3D4208B100A6
:100CC000B201B301B4013108BD073208BE3D33089B
:100CD000BF3D3408C03D2B08A0002D089E31AF2633
:100CE000853140012108C2002008C1004108B1003F
:100CF000B201B301B4013108B7073208B83D330877
:100D0000B93D3408BA3D4208B100B201B301B401A3
:100D10003108BD073208BE3D3308BF3D3408C03D31
:100D20000830B735B80DB90DBA0D890B912E2A08C8
:100D3000A0002D089E31AF26853140012108C20058
:100D40002008C1004108B7074208B83D0030B93D4E
:100D5000BA3D2908A0002E089E31AF2685314001FA
:100D60002108C2002008C1004108B7074208B83D69
:100D70000030B93DBA3D0830B735B80DB90DBA0DE0
:100D8000890BBC2E2908A0002D089E31AF26853185
:100D900040012108C2002008C1004108B7074208ED
:100DA000B83D0030B93DBA3D2A08A0002F089E3159
:100DB000AF26853140012108C2002008C10041084A
:100DC000BD074208BE3D0030BF3DC03D2B08A0001E
:100DD0002E089E31AF26853140012108C20020082F
:100DE000C1004108BD074208BE3D0030BF3DC03DC7
:100DF0002B08A0002F089E31AF2685314001210825
:100E0000C2002008C1004108B1004208B200B3018D
:100E1000B4010830B135B20DB30DB40D890B0A2FF2
:100E20003108BD073208BE3D3308BF3D3408C03D20
:100E30003708B1003808B2003908B3003A08B400E6
:100E40001830B436B30CB20CB10C890B212F310819
:100E5000BD073208BE3D3308BF3D3408C03D0830F1
:100E6000B735B80DB90DBA0D890B302F3C083B07CB
:100E7000B100B201B20D3108823EC100FF30323DF7
:100E8000C200592F0130BD35BE0DBF0DC00D890BFD
:100E9000432FBA1F4C2F4D2F4E2F3D140130B73525
:100EA000B80DB90DBA0D890B4F2FFF30C107FF30B8
:100EB000C23DBF1F5C2F5D2F422FBB01BA1F612FA8
:100EC000622F7E2FFF303705B100FF303805B200AA
:100ED000FF303905B3007F303A05B40034083304DD
:100EE000320431040319752F762F792FBB01BB0A09
:100EF0007E2F3D1C7C2F7D2F7E2F762F3B080319E4
:100F0000822F832FAB2F0130BD070030BE3D003054
:100F1000BF3D0030C03D401C8E2F8F2FAB2F3D08B2
:100F2000B1003E08B2003F08B3004008B4000130F1
:100F3000B500B437B30CB20CB10CB50B992F340813
:100F4000C0003308BF003208BE003108BD000130C8
:100F5000C1070030C23D4208803AB1008030310202
:100F6000031DB42FFF304102031CB72FB82FC22F2F
:100F70007F304001C0008030BF000030BE00003034
:100F8000BD00ED2F40014208803AB10080303102AF
:100F9000031DCC2F013041020318CF2FD02FDB2FA0
:100FA00000304001C0000030BF000030BE00003003
:100FB000BD00B601ED2F40014108BC00FF30BD056A
:100FC000FF30BE057F30BF050030C0053C1CE92F57
:100FD000EA2FEB2FBF173C36C0003608B1003108AE
:100FE000C0044008AC003F08AB003E08AA003D0822
:100FF000A9000800FE0012001E00FE0BFB2F0034AB
:101000008B17080001340634003438340134C934F5
:10101000C734003400340034003400340034003469
:101020000034003400340034003400340034003420
:101030000034003400340034003400340034003410
:10104000003400344001AF002F080E3E86008701B7
:10105000403FA400413FA500423FA600433FA700F8
:101060002F08063E86008701403FA800413FA900A7
:10107000423FAA00433FAB0027082B02031D4A282A
:1010800026082A02031D4A2825082902031D4A288A
:1010900024082802031C4D284F2801305028003016
:1010A000AC002F080E3E86008701403FA400413F60
:1010B000A500423FA600433FA7002008A800210842
:1010C000A9002208AA002308AB002408A8022508CA
:1010D000A93B2608AA3B2708AB3B2B08031D7B280E
:1010E0002A08031D7B282908031D7B28C9302802F4
:1010F00003187B287D2801307E2800304001AD0098
:101100002F080A3E86008701403FA400413FA5000A
:10111000423FA600433FA7002F080E3E86008701EE
:10112000403FA800413FA900423FAA00433FAB0017
:101130002408A8022508A93B2608AA3B2708AB3BA0
:101140002B08031DAF282A08031DAF28F4302802FE
:101150000130293B031CAD28AF280130B0280030F6
:101160004001AE002C080319B628B728D2282D0854
:101170000319BB28BC28D2282E080319C028C1286F
:10118000D2282F08143E860087012F08153E8400C0
:101190008501000881002F08153E86008701810126
:1011A000810AE1282F08143E860087012F08153E8A
:1011B00084008501000881002F08153E8600870104
:1011C00081012F08143E860087010108031DE928CC
:1011D000EA28F5282F08153E860087010103031D24
:1011E000F228F328F5280130F628003008004001E5
:1011F000EA00420124084001D200D301D401D50104
:10120000420123084001D600D701D801D901083096
:10121000D635D70DD80DD90D890B082942012608DE
:101220004001DA00DB01DC01DD011030DA35DB0DD5
:10123000DC0DDD0D890B1629420125084001DD0476
:101240005A08D6045B08D7045C08D8045D08D904A2
:1012500052085604DE0053085704DF0054085804AF
:10126000E00055085904E1006A08860087015E081D
:1012700081004930AE009A30AF006A0886008701CD
:101280000108D200D3015208B0005308B1008031E8
:10129000C120883100304001E9000030E800003012
:1012A000E7000030E600420128084001D200D301E7
:1012B000D401D501420127084001D600D701D80149
:1012C000D9010830D635D70DD80DD90D890B622933
:1012D00042012A084001DA00DB01DC01DD011030A7
:1012E000DA35DB0DDC0DDD0D890B70294201290893
:1012F0004001DD045A08D6045B08D7045C08D80412
:101300005D08D90452085604E20053085704E3006C
:1013100054085804E40055085904E5006630860076
:101320008701A02962308400850104304001D20089
:1013300052080319A12912001E00D20B9B29A129D2
:10134000922940016908B0006808AF006708AE0044
:101350006608AD004230AC00C830AB000030AA00D7
:101360000030A9008531BF25883140012C08C60016
:101370002B08C5002A08C4002908C3009431C924D9
:10138000883140016A080D3E860087014308C03F4E
:101390004408C13F2930AE009A30AF006A080D3EC4
:1013A00086008701403FB000413FB1008031C1203D
:1013B000883108004001B00030080E3E86008701E9
:1013C000403FA400413FA500423FA600433FA70085
:1013D0003008063E86008701403FA800413FA90033
:1013E000423FAA00433FAB0027082B02031D022AFD
:1013F00026082A02031D022A25082902031D022AA3
:1014000024082802031C052A072A0130082A003074
:10141000AC0030080E3E86008701403FA400413FEB
:10142000A500423FA600433FA7002008A8002108CE
:10143000A9002208AA002308AB002408A802250856
:10144000A93B2608AA3B2708AB3B2B08031D332AE0
:101450002A08031D332A2908031D332AC93028020C
:101460000318332A352A0130362A00304001AD00F6
:1014700030080A3E86008701403FA400413FA50096
:10148000423FA600433FA70030080E3E860087017A
:10149000403FA800413FA900423FAA00433FAB00A4
:1014A0002408A8022508A93B2608AA3B2708AB3B2D
:1014B0002B08031D652A2A08031D652AF53028021A
:1014C0000130293B0318652A672A0130682A003059
:1014D0004001AE003008063E86008701403FA40070
:1014E000413FA500423FA600433FA7002008A800B7
:1014F0002108A9002208AA002308AB002408A8029A
:101500002508A93B2608AA3B2708AB3B2B08031D4F
:10151000952A2A08031D952AA03028020F30293B5E
:10152000031C932A952A0130962A00304001AF000F
:101530002C0803199C2A9D2ABD2A2D080319A12ACB
:10154000A22ABD2A2E080319A62AA72ABD2A2F08D7
:101550000319AB2AAC2ABD2A3008123E8600870147
:101560003008133E84008501000881003008133ED6
:10157000860087018101810ACC2A3008123E86004C
:1015800087013008133E840085010008810030087F
:10159000133E8600870181013008123E86008701D4
:1015A0000108031DD42AD52AE02A3008133E8600FC
:1015B00087010103031DDD2ADE2AE02A0130E12A2A
:1015C000003008004001B900400139088600870159
:1015D0000108BA000130B0003008B9073A089D315F
:1015E000C7258A310318F52AF72A4001E42A00307A
:1015F0004001B8000030B7000030B6000030B50040
:10160000B4012D303A06031D062B072B132BB40112
:10161000B40A3908860087010108BA000130B00019
:101620003008B9071A2B2B303A06031D182B192B3B
:101630001A2B092B30303A06031D1F2B202B5A2B57
:101640003908860087010108BA000130B00030086F
:10165000B9072D082E0403192E2B2F2B362B1030F3
:101660002D062E04031D352B362B502B78303A06D1
:1016700003193B2B3C2B422B58303A06031D412BC0
:10168000422B502B1030AD000030AE0039088600E0
:1016900087010108BA000130B0003008B9075A2BA1
:1016A0002D082E04031D552B562B5A2B0830AD0048
:1016B0000030AE002D082E04031D5F2B602B642B21
:1016C0000A30AD000030AE003A089E3115268A314E
:1016D000031C6B2B6C2B752B40013A089D31872521
:1016E0008A31C93E4001BA00812B40013A089D3140
:1016F0004D258A31031C7D2B7E2BC22B30304001BF
:10170000BA022E08803A803C031D882B2D083A022D
:10171000031C8B2B8C2B8D2BC22B40013A08B00065
:10172000B101B201B3012D08A0002E08A100890D5E
:10173000893B8909A200A3003808A7003708A60042
:101740003608A5003508A4009F315A278A31400188
:101750002008B0072108B13D2208B23D2308B33D5F
:101760003308B8003208B7003108B6003008B500B9
:101770003908860087010108BA000130B00030083E
:10178000B907642B40012C080319C72BC82BCE2B9B
:101790002C08860087013908FF3E810034080319B0
:1017A000D22BD32BE32B3509AC003609AD0037091A
:1017B000AE003809AF00AC0A0319AD0A0319AE0A2E
:1017C0000319AF0AEB2B3808AF003708AE00360814
:1017D000AD003508AC0008009C31AE248B319C3143
:1017E000EF248B319D310A258B319E318F268B3131
:1017F0009C3167248B31A9304001AE009930AF0095
:101800008031C1208B3152304001AE009A30AF00A0
:101810003430B0009A30B1008031C1208B310430B7
:101820004001EB003D30890B132CEB0B132C0032E5
:101830009C31FC248B318B170B177E013812400131
:1018400012167E01B81240019216B83093319723D8
:101850008B31D330933197238B3104304101A60073
:10186000A101A0019D3173258B3140012308410165
:10187000A500400122084101A400400121084101C6
:10188000A300400120084101A2004630A70025081E
:101890004001A300410124084001A20041012308A6
:1018A0004001A100410122084001A0004201570867
:1018B0004001A700420156084001A6004201550818
:1018C0004001A500420154084001A4009231E822E1
:1018D0008B3140012308031D792C2208031D792C2C
:1018E0002108031D792C14302002031C782C792C3C
:1018F0008B2F410125084201D700410124084201F4
:10190000D600410123084201D500410122084201CD
:10191000D400003040010C1A0130B1009D31732514
:101920008B3140012308B5002208B4002108B30020
:101930002008B200B830963177268B310030400154
:101940008C1A0130B1009D3173258B314001230881
:10195000B5002208B4002108B3002008B200D3303B
:10196000963177268B318B2FA6304001D200003084
:10197000D300B830D400D330D500A130D600A03089
:10198000D7009531D7258B31A62F25084001A3001C
:10199000410124084001A200410123084001A100A7
:1019A000410122084001A000420153084001A70064
:1019B000420152084001A600420151084001A50021
:1019C000420150084001A4009231E8228B314001CD
:1019D0002308031DF62C2208031DF62CA03020023C
:1019E0000F30213B031CF52CF62C192D4101250845
:1019F0004201D300410124084201D20041012308E1
:101A00004201D100410122084201D000A73040012B
:101A1000D200A6309E3150268B3121304001EB00A0
:101A20007630890B112DEB0B112D00000630410192
:101A3000A600410125084001A300410124084001FE
:101A4000A200410123084001A100410122084001F8
:101A5000A00042014B084001A70042014A08400192
:101A6000A600420149084001A50042014808400182
:101A7000A4009231E8228B3140012308031D4C2D34
:101A80002208031D4C2D2108031D4C2D1E30200261
:101A9000031C4B2D4C2DA62F410125084201CB00E4
:101AA000410124084201CA00410123084201C90042
:101AB000410122084201C80004304001EB003D30E2
:101AC000890B602DEB0B602D00329C3167248B312C
:101AD000A6304001D2000030D300B830D400D3305B
:101AE000D500A130D600A030D7009531D7258B3155
:101AF00004304001EB003D30890B7C2DEB0B7C2D3D
:101B000000329C31FC248B31A62FA101A0012508B5
:101B10004001A300410124084001A2004101230823
:101B20004001A100410122084001A00042015308E8
:101B30004001A700420152084001A600420151089D
:101B40004001A500420150084001A4009231E82262
:101B50008B3140012308031DB82D2208031DB82D29
:101B6000A03020020F30213B031CB72DB82DD72DFC
:101B7000410125084201D300410124084201D2005D
:101B8000410123084201D100410122084201D00055
:101B90009F3129278B3121304001EB007630890BB2
:101BA000CF2DEB0BCF2D000005304101A6004101E8
:101BB00025084001A300410124084001A200410181
:101BC00023084001A100410122084001A000420178
:101BD0004F084001A70042014E084001A600420103
:101BE0004D084001A50042014C084001A40092317B
:101BF000E8228B3140012308031D0A2E2208031D11
:101C00000A2E2108031D0A2E1E302002031C092E55
:101C10000A2EA62F410125084201CF0041012408C8
:101C20004201CE00410123084201CD0041012208BA
:101C30004201CC009C3167248B31A6304001D20098
:101C40000030D300B830D400D330D500A130D60056
:101C5000A030D7009531D7258B3104304001EB00FF
:101C60003D30890B312EEB0B312E00329C31FC24A0
:101C70008B3103304101A600A62FB8304001A000EF
:101C8000D330A100A130A200A030A300A630913132
:101C9000DD218B31A62F9C3167248B3186304001AA
:101CA000AE009930AF008031C1208B315B304001F4
:101CB000AE009A30AF008031C1208B319C31FC24C2
:101CC0008B31A7304001D200A630943161248B3192
:101CD00004304101A600A62F9C3167248B31F430DB
:101CE0004001AE009830AF008031C1208B315B30B5
:101CF0004001AE009A30AF008031C1208B319C3161
:101D0000FC248B31A7304001D200A6309331F92357
:101D10008B31682E04304001EB003D30890B8E2E54
:101D2000EB0B8E2E00329C3167248B3163304001E7
:101D3000AE009930AF008031C1208B31A7309D318A
:101D4000FA258B3111304001EB003A30890BA62E79
:101D5000EB0BA62E00009C3167248B310030400134
:101D6000AE009830AF00410129084001B1004101A7
:101D700028084001B00041012A084001EB00EC01B5
:101D80006B08B2006C08B30041012B084001ED0064
:101D9000EE016D08B4006E08B5008031C1208B31B2
:101DA00004304001EB003D30890BD42EEB0BD42ED8
:101DB00000329C31FC248B3141016F080319E12E64
:101DC000E22E682EEF01FD0140011A11A7309D316E
:101DD000FA258B3104304001EB003D30890BEE2EAB
:101DE000EB0BEE2E003240011A159C3167248B312B
:101DF0009C31B8248B3104304001EB003D30890B1D
:101E0000FF2EEB0BFF2E00329C31FC248B31682E11
:101E100004304001EB003D30890B0C2FEB0B0C2FF5
:101E200000329C3167248B311A304001AE0099306A
:101E3000AF008031C1208B3104304001EB003D30D8
:101E4000890B202FEB0B202F00329C31FC248B318F
:101E500041016F0803192D2F2E2F872FEF01FD0150
:101E600040011A11A7308831F7208B3180310220D0
:101E70008B314001A00100309C31C2248B314101E3
:101E800027084001A00001309C31C2248B31410160
:101E900035084001A00002309C31C2248B31410141
:101EA00034084001A00003309C31C2248B318831BA
:101EB00000208B3140011A159C3167248B319C31F5
:101EC000B8248B313F304001AE009930AF00410162
:101ED00027084001EB00EC016B08B0006C08B10072
:101EE000410135084001B300410134084001B2000E
:101EF0008031C1208B3104304001EB003D30890B33
:101F00007F2FEB0B7F2F00329C31FC248B31023072
:101F10004101A600A62F41012608003A0319B42C5E
:101F2000023A0319C52C013A03193D2E073A031949
:101F3000852D013A03198A2E033A0319082F013A15
:101F400003194B2E0F3A03196C2EA62F9D317325C2
:101F50008B31400123084101A500400122084101C5
:101F6000A400400121084101A300400120084101D3
:101F7000A20025084001A300410124084001A2005D
:101F8000410123084001A100410122084001A000B5
:101F9000420147084001A700420146084001A6004F
:101FA000420145084001A500420144084001A40047
:101FB0009231E8228B3140012308031DEA2F2208C9
:101FC000031DEA2FD03020020730213B031CE92FEC
:101FD000EA2F322C410125084201C70041012408A3
:101FE0004201C600410123084201C5004101220807
:101FF0004201C400923117228B31322C8031692882
:10200000013400341034003400340134003410340E
:102010005B34523458342D344234553446344634CB
:10202000453452345D3420347034483434343834D8
:1020300035342D34433461346C3469346234723451
:102040006134743469346F346E345F3442346F34C5
:10205000743474346F346D345F34563461346C349A
:10206000753465343A3420342D342D342D342D34E8
:1020700020340D340A34203461342D342D342D3481
:102080002D342D342D3470344834203441344434CC
:1020900043345F34763461346C34753465343A34A7
:1020A00020342534753420340D340A3461342D3411
:1020B0002D342D342D342D342D34703448342034C7
:1020C0004134443443345F344834693467346834C9
:1020D0002034423479347434653473343A342034DF
:1020E00030347834253430343234583420340D349C
:1020F0000A3461342D342D342D342D342D342D34C7
:102100007034483420344134443443345F344C34E4
:102110006F34773420342034423479347434653465
:1021200073343A3420343034783425343034323413
:10213000583420340D340A3461342D342D342D3488
:102140002D342D342D34703448342034413444340B
:1021500043345F344C346F34773420342034433488
:10216000523443342034483469346734683420347A
:1021700042347934743465343A3420343034783429
:10218000253430343234583420340D340A34613438
:102190002D342D342D342D342D342D3470344834D9
:1021A00020344134443443345F344C346F34773416
:1021B0002034203443345234433420344834693496
:1021C00067346834203442347934743465343A34B2
:1021D0002034303478342534303432345834203498
:1021E0000D340A3400345B34523458342D344234C4
:1021F000553446344634453452345D3420347034DA
:1022000048343434383435342D34433461346C3408
:102210006934623472346134743469346F346E34C6
:102220005F3454346F3470345F34563461346C34FA
:10223000753465343A3420342D342D342D342D3416
:1022400020340D340A34203461342D342D342D34AF
:102250002D342D342D3470344834203441344434FA
:1022600043345F34763461346C34753465343A34D5
:1022700020342534753420340D340A3461342D343F
:102280002D342D342D342D342D34703448342034F5
:102290004134443443345F344834693467346834F7
:1022A0002034423479347434653473343A3420340D
:1022B00030347834253430343234583420340D34CA
:1022C0000A3461342D342D342D342D342D342D34F5
:1022D0007034483420344134443443345F344C3413
:1022E0006F34773420342034423479347434653494
:1022F00073343A3420343034783425343034323442
:10230000583420340D340A3461342D342D342D34B6
:102310002D342D342D347034483420344134443439
:1023200043345F344C346F347734203420344334B6
:1023300052344334203448346934673468342034A8
:1023400042347934743465343A3420343034783457
:10235000253430343234583420340D340A34613466
:102360002D342D342D342D342D342D347034483407
:1023700020344134443443345F344C346F34773444
:1023800020342034433452344334203448346934C4
:1023900067346834203442347934743465343A34E0
:1023A00020343034783425343034323458342034C6
:0623B0000D340A34003474
:1023BA004001A6002208860087010108A40023081C
:1023CA00860087010108A5002403031DED29EE29D3
:1023DA00FD292508031DF229F329FD29260886006F
:1023EA008701073081002208860087018101162AA9
:1023FA002408031D012A022A112A2503031D062A7D
:10240A00072A112A26088600870108308100230836
:10241A00860087018101162A260886008701043072
:10242A00810008004001C1014108BB00BC01BB3565
:10243A00BC0D34303B0784001A303C3D803885009F
:10244A000008BE004108BB00BC01BB35BC0D3530DD
:10245A003B0784001A303C3D803885000008BF00E5
:10246A00C001AC011030AD000030AE003E308A3100
:10247A00E222923140012C08BD003D08A200410829
:10248A00393E9C31CC24923101304001BB003B08DB
:10249A00C10705304102031C532A542A192A08008D
:1024AA0001340634003436340134A8340434003498
:1024BA000034003400340034003400340034003472
:1024CA000034003400340034003400340034003462
:1024DA000034003400340034003400340034003452
:1024EA000134033400340134003404341534C9345B
:1024FA000034003400340034003400340034003432
:10250A000034003400340034003400340034003421
:10251A000034003400340034003400340034003411
:10252A00003043010F190130F1000030111B013056
:10253A00F20072080319A22AA32AA62A4101EE016F
:10254A00E72A71080319AA2AAB2ABE2A7C08A03EE8
:10255A0086000130870001088C000130F000700805
:10256A00FC0740307C02031CBB2ABC2AE52AFC017A
:10257A00E52A0C08F300D92AEE01EE0AE52A7308C7
:10258A003F39FC000230EE00E52A39307C0203189C
:10259A00CF2AD02AD72A7C08A03E8600013087009D
:1025AA0073088100EE01E52A41016E08003A031919
:1025BA00C12A013A0319C42A033A0319CA2AE52A85
:1025CA00430110160800400127082302031DF72AB9
:1025DA0026082202031DF72A25082102031DF72ACD
:1025EA0024082002031CFA2AFB2A102B24082002A2
:1025FA00A8002508213BA9002608223BAA00270893
:10260A00233BAB002B08B3002A08B2002908B1000B
:10261A002808B000342B2008A8002108A9002208A5
:10262A00AA002308AB002409AC002509AD0026093D
:10263A00AE002709AF002C08A8072D08A93D2E08CF
:10264A00AA3D2F08AB3D01302807B0000030293DD4
:10265A00B10000302A3DB20000302B3DB3003308F0
:10266A00A3003208A2003108A1003008A000080027
:10267A004001A700FF30AC00FF30AD000130A500DB
:10268A00A030A600A801A901842B40012808270729
:10269A00A2002208860087010108A300A4012308DA
:1026AA00AC062408AD06AA01AB0140012C1C5E2B26
:1026BA005F2B692B0130AD36AC0C890B602B2508DA
:1026CA00AC062608AD066E2B0130AD36AC0C890B74
:1026DA006A2B0130AA070030AB3D2B08803AA200D2
:1026EA0080302202031D7B2B08302A02031C7E2B1A
:1026FA007F2B5A2B01304001A8070030A93D290839
:10270A00803AA20080302202031D8D2B2008280265
:10271A00031C902B912B4A2B40012D08A1002C0859
:10272A00A00008004001A00020088600870181015E
:10273A00810A200A860087018101810A2008023E57
:10274A00860087010130C03F0030C13FC23FC33F0E
:10275A002008063E860087010130C03F0030C13F95
:10276A00C23FC33F20080A3E860087010130C03FAE
:10277A000030C13FC23FC33F20080E3E860087019A
:10278A000130C03F0030C13FC23FC33F2008123E64
:10279A008600870181012008133E86008701810196
:1027AA002008143E8600870181012008153E860014
:1027BA00870181012008163E8600870181012008D1
:1027CA00173E8600870181012008183E860087018E
:1027DA0081012008193E86008701810120081A3EDE
:1027EA0086008701810108004001E300E03086008D
:1027FA00013087005B308400003085000830D30048
:10280A0016001A00D30B052C520886008701433F95
:10281A00DF00520886008701443FE0000630AE0020
:10282A005B309E313226933108304001A1005B3083
:10283A009D31E02593319C31672493310830400162
:10284A00AE009030AF00520A86008701403FB000C8
:10285A00413FB1005F08D300D4015308B2005408C5
:10286A00B3006008D500D6015508B4005608B50073
:10287A006108D700D8015708B6005808B70062089F
:10288A00D900DA015908B8005A08B9008031C120C4
:10289A00933104304001D3003D30890B522CD30BC5
:1028AA00522C00329C31FC2493314001630886008B
:1028BA0087010430810008004001E300E830860007
:1028CA00013087005B308400003085000830D30077
:1028DA0016001A00D30B6D2C520886008701433F5D
:1028EA00DF00520886008701443FE0000630AE0050
:1028FA005B309E313226943108304001A1005B30B2
:10290A009D31E02594319C3167249431F3304001A4
:10291A00AE009030AF00520A86008701403FB000F7
:10292A00413FB1005F08D300D4015308B2005408F4
:10293A00B3006008D500D6015508B4005608B500A2
:10294A006108D700D8015708B6005808B7006208CE
:10295A00D900DA015908B8005A08B9008031C120F3
:10296A00943104304001D3003D30890BBA2CD30B8B
:10297A00BA2C00329C31FC24943140016308860051
:10298A00870104308100080003104001450D460DFF
:10299A00CC004C08031DD22CD32CDC2C0030C600F2
:1029AA000030C5000030C4000030C300392D430890
:1029BA00C7004408C8004508C9004608CA001F30B5
:1029CA00CA36C90CC80CC70C890BE52C4708CB00C2
:1029DA00C517FF30C305FF30C405FF30C5050030F9
:1029EA00C6059630CC02CC1FFB2CFC2C142D4C08AF
:1029FA00803A973E0318022D032D042DD32C013063
:102A0A00C636C50CC40CC30C890B052D0130C70092
:102A1A004708CC07031D122D132D042D292D203014
:102A2A004C02031C192D1A2D242DD32C0130C33529
:102A3A00C40DC50DC60D890B1C2D0130CC024C08E6
:102A4A00031D282D292D1B2D4B0803192D2D2E2D45
:102A5A00392DC309C409C509C609C30A0319C40A19
:102A6A000319C50A0319C60A08004001AE002E0858
:102A7A00063E86008701403FA400413FA500423F31
:102A8A00A600433FA7002E080E3E86008701403F5E
:102A9A00A800413FA900423FAA00433FAB002708D4
:102AAA002B02031D622D26082A02031D622D25080A
:102ABA002902031D622D24082802031C652D672D97
:102ACA000130682D0030AC002E08063E86008701D2
:102ADA00403FA400413FA500423FA600433FA70054
:102AEA002008A8002108A9002208AA002308AB0090
:102AFA002408A8022508A93B2608AA3B2708AB3BBD
:102B0A002B08031D922D2A08031D922DA13028029D
:102B1A000F30293B0318922D942D0130952D00304A
:102B2A004001AD002C0803199B2D9C2DB22D2D08B8
:102B3A000319A02DA12DB22D2E08163E860087015D
:102B4A002E08173E84008501000881002E08173ED2
:102B5A00860087018101810AC12D2E08163E860052
:102B6A0087012E08173E84008501000881002E087F
:102B7A00173E8600870181012E08163E86008701CE
:102B8A000108031DC92DCA2DD52D2E08173E860012
:102B9A0087010103031DD22DD32DD52D0130D62D4A
:102BAA0000300800400154089C317A249531003ADB
:102BBA000319E02DE12DFB2D03304001AE009A30C0
:102BCA00AF008031C1209531400156088600870147
:102BDA005608840085010008013E81009E31FD26C9
:102BEA009531400154089C318A2495314001550899
:102BFA009C317A249531003A0319042E052E1F2E92
:102C0A0010304001AE009A30AF008031C1209531BA
:102C1A00400157088600870157088400850100088B
:102C2A00013E81009E31FD269531400155089C31B7
:102C3A008A249531400154089C3172249531003A16
:102C4A000319282E292E542EE1304001AE00993066
:102C5A00AF008031C12095314001560886008701B6
:102C6A005608840085010008013E81009E31FD2638
:102C7A0095319E31FD2695319E31FD2695314001D3
:102C8A0054089C3182249531400152088600530829
:102C9A0087000430810056088600870181014001BF
:102CAA0055089C3172249531003A03195D2E5E2E27
:102CBA00762EF2304001AE009930AF008031C1204B
:102CCA0095319E31FD2695319E31FD269531400183
:102CDA0055089C31822495314001560886008701A7
:102CEA00810108004001BA003A08860087013A0AC1
:102CFA0084008501000881003A0A860087013108AC
:102D0A0081003A08860087010103031D8D2E8E2E4D
:102D1A00BA2E3A0A860087010108031D952E962EBF
:102D2A00BA2E3A08063E86008701403FB600413F68
:102D3A00B700423FB800433FB9003A08023E860056
:102D4A0087013608C03F3708C13F3808C23F3908F3
:102D5A00C33F3A08063E860087013208C03F33085F
:102D6A00C13F3408C23F3508C33F3A08860087018D
:102D7A000108031DC12EC22EEE2E3A0A86008701D3
:102D8A000103031DC92ECA2EEE2E3A080E3E8600F6
:102D9A008701403FB600413FB700423FB800433F7A
:102DAA00B9003A080A3E860087013608C03F37084C
:102DBA00C13F3808C23F3908C33F3A080E3E860071
:102DCA0087013208C03F3308C13F3408C23F350883
:102DDA00C33F3508A3003408A2003308A100320813
:102DEA00A0003A088931DA219631003A0319FE2EF9
:102DFA00FF2E062F40013A08183E860087018101FE
:102E0A00810A40013508A3003408A2003308A10052
:102E1A003208A0003A08883122209631003A031974
:102E2A00172F182F1F2F40013A08193E86008701D5
:102E3A008101810A40013508A3003408A200330841
:102E4A00A1003208A0003A0895313A259631003A95
:102E5A000319302F312F382F40013A081A3E8600C5
:102E6A0087018101810A08004001DA005A08DB0063
:102E7A00DC01DD01F52F7030AE009A30AF005D083D
:102E8A00B1005C08B0008031C12097314001DE01F9
:102E9A00DF015E085C07D4005F085D3DD50053087A
:102EAA005502031D5A2F5208540203185D2F5E2F34
:102EBA00772F7630AE009A30AF005C085B07D400FB
:102ECA005E085407D50055088600013087000108BE
:102EDA00D600D7015608B0005708B1008031C1208A
:102EEA0097317E2F7C30AE009A30AF008031C120FE
:102EFA00973101304001DE070030DF3D00305F02CC
:102F0A00103003195E02031C8B2F8C2F4E2F7D303D
:102F1A00AE009A30AF008031C12097314001DE0106
:102F2A00DF015E085C07D4005F085D3DD5005308E9
:102F3A005502031DA22F520854020318A52FA62FCB
:102F4A00DB2F5C085B07D4005E085407D5005508E0
:102F5A0086000130870001089D313A259731031810
:102F6A00B72FB82FBE2F2E304001D8000030D9001D
:102F7A00D02F40015C085B07D4005E085407D500D7
:102F8A0055088600013087000108D600D701560887
:102F9A00D8005708D9008030AE009A30AF005908DF
:102FAA00B1005808B0008031C1209731013040018A
:102FBA00DE070030DF3D00305F02103003195E0289
:102FCA00031CE82FE92F962FB630AE009830AF00D9
:102FDA008031C120973110304001DC070030DD3DDF
:102FEA0053085D02031DFB2F52085C02031CFE2FCF
:102FFA00FF2F402F08005B34523458342D344234AA
:10300A00553446344634453452345D3420347034B1
:10301A0048343434383435342D34433461346C34E0
:10302A006934623472346134743469346F346E349E
:10303A005F34563461346C34753465343A34203430
:10304A002D342D342D342D3420340D340A342034CB
:10305A007034483420344134443443345F34763451
:10306A0061346C34753465343A342034253475341B
:10307A0020340D340A347034483420344134443412
:10308A0043345F3448346934673468342034423412
:10309A0079347434653473343A34203430347834BF
:1030AA00253430343234583420340D340A347034F0
:1030BA00483420344134443443345F344C346F341C
:1030CA007734203420344234793474346534733498
:1030DA003A34203430347834253430343234583465
:1030EA0020340D340A3400345B345234653471347C
:1030FA0075346534733474345D3420344134443463
:10310A0043345F34763461346C3475346534203436
:10311A00663472346F346D34203470346834343425
:10312A00383435342034703472346F346234653450
:10313A0020342D342034433441344C34493442341D
:10314A0052344134543449344F344E3420344D349B
:10315A004F344434453420342D342D342D34203426
:10316A0020340D340A3400345B34523465347134FB
:10317A0075346534733474345D34203464346134A2
:10318A00743461342034663472346F346D342034CC
:10319A00703468343434383435342034703472340A
:1031AA006F346234653420342D3420344D34453440
:1031BA00413453345534523445344D3445344E3405
:1031CA00543420344D344F344434453420342D346F
:1031DA002D342D34203420340D340A340034533441
:1031EA0054344134543445345F34533441345634BE
:1031FA0045345F3442344F34543454344F344D34AC
:10320A005F34433441344C344934423452344134C7
:10321A00543449344F344E345F3450344F34493483
:10322A004E3454340D340A3400345B345034493447
:10323A0043345D34203469346E3474346F3420344A
:10324A007434683465342034533454344134543437
:10325A0045345F344F34553454345034553454342F
:10326A005F34563441344C345534453420340D34AB
:10327A000A3400345B34523458342D3442345534D1
:10328A0046344634453452345D342034703448343C
:10329A003434383435342034763461346C3475340B
:1032AA0065343A3420340D340A34543445344D34B8
:1032BA0050343A3420342534753400345B34503475
:1032CA00493443345D34203469346E3474346F3491
:1032DA0020347434683465342034533454344134DB
:1032EA00543445345F344F3455345434503455349F
:1032FA0054345F3441344434433420340D340A3472
:10330A000034533454344134543445345F345334E0
:10331A004134563445345F3454344F3450345F3476
:10332A00433441344C3449344234523441345434B1
:10333A0049344F344E345F3450344F3449344E3468
:10334A0054340D340A340034503448342034503460
:10335A0072346F34623465342034773469347434A7
:10336A0068342034523453343434383435340D34D8
:10337A000A3400343034313432343334343435346A
:10338A0036343734383439344134423443344434AB
:10339A0045344634003430343134323433343434FE
:1033AA00353436343734383439346134623463343A
:1033BA0064346534663400346234313420346C3415
:1033CA006F346E3467342034703472346534733435
:1033DA00733420340D340A340034623432342034E5
:1033EA006C346F346E34673420347034723465341C
:1033FA007334733420340D340A3400346234313473
:10340A00203463346C34693463346B346534643423
:10341A000D340A34003462343234203463346C3468
:10342A00693463346B34653464340D340A340034DB
:10343A000134003408340034403400340034023497
:10344A000034103400348034543445344D3450340C
:10345A003A342034253475340D340A340034303487
:10346A004134303431343834323430343034303416
:10347A0031340034013400340A3400346434003402
:10348A00E834033410342734503448343A3420347E
:10349A00253475340D340A34003473346E343A34B6
:1034AA002034253473340D340A34003473346134CF
:1034BA007634653464340D340A34003428346E3476
:1034CA0075346C346C342934003425343034323455
:1034DA0058342034003425343034383478343A348B
:1034EA0000342034253430343234783400342034F3
:0C34FA00203420340034253463340034C6
:1038CE007E01A3010F3095000800640080010131D4
:1038DE00890B6D2C00344001A00020081A3E860092
:1038EE008701010808004001A0002008183E86004C
:1038FE008701010808004001A00020081A3E86003A
:10390E008701810108004001A0002008183E8600B2
:10391E008701810108007B08F3007A08F20079081C
:10392E00F1007808F0000800623051018D008F011F
:10393E00910102309300920108004F019601970108
:10394E00980199019A019B019C019D0108009C31EF
:10395E00A4249C319E31D3269C319C319B249C31D6
:10396E00080040304001D2000030D300A030973123
:10397E0039279C3108004001A1002108A03E860095
:10398E00013087002008810008004001A3008B133E
:10399E002208A00023089C31C2249C318B170800FA
:1039AE004001A0004E010F1EDD2CDE2CD92C400153
:1039BE00200842019A0008004001A0004E010F1E8F
:1039CE00E92CEA2CE52C4001200842019A0008005F
:1039DE0040304B019F00F3309D009C014E018C1234
:1039EE00961680304B019E00080004304001A00066
:1039FE003D30890B002DA00B002D00320F307E01C3
:103A0E00A300950108004E019912191208304201C7
:103A1E009F0019309B009C0124309E0090309D0029
:103A2E004E01991608000134063400343F34003438
:103A3E00FF34F93486340134063400343E34003415
:103A4E00FF34A83446340134033402342E34E034C7
:103A5E00A4346C340034013403340034663400343E
:103A6E000134643415344001A100A0017F302102DD
:103A7E000318422D432D4B2D20302102031C482DBF
:103A8E00492D4B2DA001A00A200C08004001A100D9
:103A9E00A0013A3021020318552D562D5E2D3030DF
:103AAE002102031C5B2D5C2D5E2DA001A00A200CB3
:103ABE0008004001A100A0015B3021020318682D0F
:103ACE00692D712D41302102031C6E2D6F2D712D2C
:103ADE00A001A00A200C08008B137B084001A70050
:103AEE007A08A6007908A5007808A4008B17270885
:103AFE00A3002608A2002508A1002408A0000800A3
:103B0E004001A1007B30210203188E2D8F2D992D9F
:103B1E0061302102031C942D952D992DDF30A000CC
:103B2E002008A105210808004001A300A201231CC2
:103B3E00A12DA22DA62D2008A1002108A207031059
:103B4E00A00D0310A30C2308031DAE2DAF2D9E2D2B
:103B5E00220808004030860002308700263084009C
:103B6E000030850020304001A50016001A00A50B7C
:103B7E00BC2D0830A10026309D31E0259D31080076
:103B8E004001A100A001A00A203021060319D02D6A
:103B9E00D12DDE2D0E3021020318D62DD72DDD2D81
:103BAE00093021020318DC2DDD2DDE2DA001200CA5
:103BBE0008004001A400A301F32D23082407A2004E
:103BCE0022088600870101089C31E3249D310130D3
:103BDE004001A2002208A30721082302031CF82D8E
:103BEE00F92DE42D08004001A0002008033E8600B8
:103BFE00870142016008810040012008043E8600D2
:103C0E0087014201610881004001200A8600870178
:103C1E0042016108C03F6008C13F08004001A30097
:103C2E00A201A20A7B30230203181E2E1F2E252E60
:103C3E00613023020318242E252E2F2E23089D31AA
:103C4E0060259E3103182C2E2D2E2F2E4001A20101
:103C5E004001220C08004001B2002E08A0003208DC
:103C6E0093313D239E3140012108B1002008B00060
:103C7E002E083207AF002F0886008701300881001A
:103C8E002E083207AF002F0A860087013108810007
:103C9E00080040011A119C3167249E31B930400151
:103CAE00AE009830AF008031C1209E31043040010B
:103CBE00D3003D30890B612ED30B612E00329C3127
:103CCE00FC249E319D31B1259E3140011A1508000C
:103CDE004001A401A501201C752E762E7A2E2208F5
:103CEE00A4072308A53D0130A235A30D890B7B2E19
:103CFE000130A136A00C890B802E20082104031D53
:103D0E00892E8A2E722E2508A1002408A0000800F4
:103D1E0043018F013630900001309100D0308D007C
:103D2E00FF308E004E010F1019144001A101210821
:103D3E00A03E86000130870081010130A0002008DE
:103D4E00A10740302102031CAD2EAE2E9E2E080080
:103D5E004001A800A401A5012008A200A301220889
:103D6E00A6002308A700281CBD2EBE2EC22E260894
:103D7E00A4072708A53D0130A635A70D890BC32E34
:103D8E000310A80C2808031DCD2ECE2EBA2E250802
:103D9E00A1002408A0000800400198019A013F30BC
:103DAE009200133094002C307E01CE003730B800D4
:103DBE00B901CF01BA01D0013730BB003F30D1007D
:103DCE003F30BC003F30D2001330A00010307D01D8
:103DDE00C5000F307E01A3001430A1000F30A500E6
:103DEE0011307D01C6001430CB0008004001A10146
:103DFE00A20140011A1111304001A0003A30890B86
:103E0E00062FA00B062F000040011A15113040019D
:103E1E00A0003A30890B112FA00B112F000001309A
:103E2E004001A1070030A23D2208803AA000803058
:103E3E002002031D242F03302102031C272F282FBD
:103E4E00002F080040011A119C3167249F317930F0
:103E5E004001AE009830AF008031C1209F31043058
:103E6E004001D2003D30890B3A2FD20B3A2F00324F
:103E7E009C31FC249F316530860001308700533021
:103E8E0084000030850008304001D20016001A0070
:103E9E00D20B4D2F0830A10053309D31E0259F31BC
:103EAE0040011A15080000304001AB000030AA0096
:103EBE000030A9000030A800201C662F672F6F2F3E
:103ECE002408A8072508A93D2608AA3D2708AB3DCA
:103EDE000130A435A50DA60DA70D890B702F01304D
:103EEE00A336A20CA10CA00C890B772F2308220459
:103EFE0021042004031D842F852F632F2B08A3007C
:103F0E002A08A2002908A1002808A00008004001E4
:103F1E00280829040319942F952FBE2FAD01AD0A41
:103F2E00A12F0130A835A90D890B992F0130AC00B6
:103F3E002C08AD07A91FA42FA52F982F29082B02F7
:103F4E00031DAB2F28082A02031CAE2FAF2FB32F51
:103F5E002808AA022908AB3B0130A936A80C890B08
:103F6E00B42F0130AD02031DBD2FBE2FA52F2B0880
:103F7E00A9002A08A80008004001A501A6012008F2
:103F8E0021040319CB2FCC2FFB2FA701A70AD82F63
:103F9E000130A035A10D890BD02F0130A4002408CB
:103FAE00A707A11FDB2FDC2FCF2F0130A535A60DC4
:103FBE00890BDD2F21082302031DE72F2008220283
:103FCE00031CEA2FEB2FF02F2008A2022108A33B9F
:103FDE0025140130A136A00C890BF12F0130A70258
:103FEE00031DFA2FFB2FDC2F2608A1002508A000A9
:023FFE000800B9
:020000040001F9
:08000000FF3FFF3FFF3FFF3F00
:0A000E00EC17FE3F9F3FFF3FFE3F4F
:00000001FF
