:10000000803169288B1308007E1480314E018C1ECC
:100010000A280B283B288C120130F8070030F93DE4
:100020000030FA3D0030FB3D40016F03031D1928ED
:100030001A283B28410154087802F4005508793BFE
:10004000F50056087A3BF60057087B3BF700770827
:10005000031D36287608031D36287508031D36282B
:1000600065307402031C352836283B284001EF0117
:1000700001304201EF004E010F1C3F284028442868
:100080000F1092317F2280314E018F1E482849285F
:1000900067289D31AE25803173084101D700720871
:1000A000D6007108D5007008D40001304001EF007F
:1000B0007D08A03E860001308700420119088100BA
:1000C0000130F4007408FD077D081F39FD007E1023
:1000D000090080316B28F830840087308500DA30E1
:1000E00086000030870008309D31A825803192308D
:1000F00084009F308500C0308600013087002030AA
:100100009D31A8258031FE30840091308500A030DB
:1001100086000230870040309D31A8258031BE30F6
:100120008400913085002030860003308700403005
:100130009D31A8258031F801F901FA01FB01FC018C
:10014000FD01EF01C43084000030850016309D3180
:10015000A2258031673084000130850009309D314F
:10016000A2258031A03084000130850020309D31EF
:10017000A2258031203084000230850040309D313E
:10018000A2258031A03084000330850020309D31CD
:10019000A22580317E1040018C310F2C303040017F
:1001A000C900B82D25304F060319D728D828DD28D7
:1001B0004F089E3121268031B82DCD01CE01D001CE
:1001C000D101EE28D0150130AE070030AF3DEE284A
:1001D0005014E328D115E3285015E3282E08840095
:1001E0002F0885000008203A0319E828033A03196C
:1001F000EA280E3A0319E2281D3A0319EC280029CF
:10020000D01D032904290829FB30D005FF30D10572
:100210002E0884002F08850000089E317726803143
:10022000031C1329142948294001CD01CE010A30AD
:100230004001A0000030A1004E08A3004D08A2001C
:100240009F315227803140012108CE002008CD0087
:100250002E0884002F0885000008D03EBA00FF3029
:1002600003180030BB003A08CD073B08CE3D0130F3
:10027000AE070030AF3D2E0884002F08850000082F
:100280009E3177268031031846294729172962298C
:1002900040012E0884002F08850012002A3A031D11
:1002A000522953296229490886008701403FCD0021
:1002B000413FCE000230BA003A08C9070130AE070C
:1002C0000030AF3D40012E0884002F088500120049
:1002D0002E3A031D6C296D29B82951170130AE073C
:1002E0000030AF3D2E0884002F08850012002A3A06
:1002F000031D7B297C299329490886008701010871
:10030000CC000230BA003A08C907CC1F88298929D5
:100310008E29CC01FF30D005BF30D1050130AE07AA
:100320000030AF3D762ACC01AB2940014C08A0003B
:100330000A309031012080314001CC002E08840029
:100340002F0885000008D03EBA003A08CC070130DB
:10035000AE070030AF3D2E0884002F08850000084E
:100360009E31772680310318B629B7299529762A38
:10037000CC01762A5017A02AD016D017A02A4908F7
:1003800086008701403FC500413FC6000230BA00E9
:100390003A08C90745084604031DCF29D029D429A6
:1003A0004330C5009A30C600C701C801DB290130BF
:1003B000C7070030C83D4508470784004608483D48
:1003C00085001200031DE529E629D7294C080319E9
:1003D000EA29EB29062A4C08BA00BB01BA1BBB0369
:1003E0003B08803ABC004808803A3C02031DFA29C9
:1003F00047083A020318FD29FE29062A40014C0845
:10040000BA00BB013A08C7003B08C80040014E08CB
:100410004802031D0D2A4D0847020318102A112A0D
:10042000162A4708CD024808CE3B182ACD01CE0136
:10043000D0191B2A1C2A3C2A212A20309E31212631
:100440008031FF304001CD07FF30CE3D4D0A031D06
:100450002D2A4E0A031D2D2A2E2A1D2A3C2A450824
:1004600084004608850000089E3121268031013035
:100470004001C5070030C63D0130C7020030C83B0F
:10048000470A031D472A480A031D472A482A2F2ADC
:10049000D01D4B2A4C2AB82D512A20309E312126BE
:1004A0008031FF304001CD07FF30CE3D4D0A031DA6
:1004B0005D2A4E0A031D5D2A5E2A4D2AB82D490881
:1004C000860087010108CF000230BA003A08C90748
:1004D0004F30C5000030C6000130C7000030C800F2
:1004E000E629C030D0040030D104A02A40012F08F2
:1004F000BB002E08BA00AE0A0319AF0A3A088400FE
:100500003B0885000008CF00003A0319CB2D583A6C
:100510000319BC293B3A03195F2A073A0319A02A99
:100520000D3A0319A02A063A0319BA291C3A0319ED
:10053000BF29063A0319712A0D3A0319BD29682A01
:10054000C0305005BA0000305105BB003A083B04EA
:10055000031DAB2AAC2AC52A490886008701403F03
:10056000CA00413FCB000230BA003A08C907CB1F8E
:10057000BA2ABB2AD02A0330D0040030D104CA09D9
:10058000CB09CA0A0319CB0AD02A49088600870179
:10059000403FCA00413FCB000230BA003A08C907C9
:1005A0004C08031DD42AD52A6D2B4A084B04031D81
:1005B000DA2ADB2A6D2B0130BA003A08CC076D2B02
:1005C000CF01CF0A05304F06031DE72AE82AE92AA2
:1005D0007C2B4F08BA00BB01BA35BB0D1F303A0760
:1005E00084001A303B3D80388500003FBC00013F4D
:1005F000BD003D084B02031DFF2A3C084A020318B8
:10060000022B032B042B7C2B0130BA003A08CF07B6
:1006100005304F06031D0D2B0E2BE92A7C2BCF0135
:10062000CF0A04304F06031D162B172B182B7C2BDB
:100630004F08BA00BB01BA35BB0D00303A07840041
:1006400018303B3D80388500003FBC00013FBD00B5
:100650003D084B02031D2E2B3C084A020318312B88
:10066000322B332B7C2B0130BA003A08CF070430F1
:100670004F06031D3C2B3D2B182B7C2BCF01CF0AA3
:1006800006304F06031D452B462B472B7C2B4F086E
:10069000BA00BB01BA35BB0DFD303A0784001930F2
:1006A0003B3D80388500003FBC00013FBD003D0858
:1006B0004B02031D5D2B3C084A020318602B612B83
:1006C000622B7C2B0130BA003A08CF0706304F0668
:1006D000031D6B2B6C2B472B7C2B5008C039003A29
:1006E0000319E02A403A03193E2BC03A03190F2B95
:1006F000403A0319E02A7C2B4C08BA00BB01BA1B14
:10070000BB033B08803A803C031D882B3A084F020C
:1007100003188B2B8C2B902B40014C08CF00A62B61
:1007200040014C08BA00BB01BA1BBB033B08803A2E
:10073000BC0080303C02031D9F2B4F083A02031877
:10074000A22BA32BA62B40014F08CC0040014D0843
:100750004E040319AC2BAD2BBD2B03305005BA0052
:1007600000305105BB003A083B040319B82BB92BE4
:10077000BD2BFF30CD07FF30CE3D511FC02BC12B0D
:10078000E22B4C08BA00BB01BA1BBB033B08803A02
:10079000BC004E08803A3C02031DD02B4D083A02A3
:1007A0000318D32BD42BDF2B40014C08BA00BB011C
:1007B000BA1BBB033A08CD023B08CE3BE22B4001FB
:1007C000CD01CE01C4305005BA0008305105BB0040
:1007D00040303A06083003193B06031DF02BF12B7D
:1007E000FC2B4D084E040319F62BF72B212CFF3060
:1007F000CD07FF30CE3D212CC0305005BA00083067
:100800005105BB0080303A06083003193B06031D32
:100810000A2C0B2C212C4E08803ABA0080303A0268
:10082000031D142C03304D02031C172C182C1E2CF6
:10083000FE304001CD07FF30CE3D212C4001CD01DF
:10084000CE014E08803A803C031D282C4D084F02F3
:1008500003182B2C2C2C352C40014F08BA00BB015F
:100860003A08CD023B08CE3B382C4001CD01CE01E9
:10087000501D3B2C3C2C922C03305005BA0000300C
:100880005105BB003A083B040319472C482C4D2C5A
:100890002D309E31212680317B2C501C502C512C28
:1008A000562C20309E31212680317B2CC0305005C3
:1008B000BA0008305105BB0080303A0608300319F1
:1008C0003B06031D642C652C7B2C30309E31212689
:1008D00080314001D01A6D2C6E2C732C7830BE0004
:1008E0000030BF00772C5830BE000030BF003E08FB
:1008F0009E312126803140014D084E040319812C80
:10090000822C8E2D30309E3121268031FF304001E7
:10091000CD07FF30CE3D4D084E04031D902C912C89
:10092000822C8E2D4D084E040319972C982CAB2C3D
:10093000D0199B2C9C2CAB2C20309E312126803151
:10094000FF304001CD07FF30CE3D4D084E04031D62
:10095000AA2CAB2C9C2C03305005BA00003051055A
:10096000BB003A083B040319B62CB72CBC2C2D3025
:100970009E3121268031C42C501CBF2CC02CC42C8D
:1009800020309E3121268031C03040015005BA0010
:1009900008305105BB0040303A06083003193B06C9
:1009A000031DD32CD42CD92C30309E3121268031FC
:1009B0008E2DC0305005BA0008305105BB00803084
:1009C0003A06083003193B06031DE72CE82CFF2CE0
:1009D00030309E31212680314001D01AF02CF12C8C
:1009E000F62C7830C0000030C100FA2C5830C0001E
:1009F0000030C10040089E31212680318E2D8E2D81
:100A00000A30A8000030A9004C08BA00BB01BA3572
:100A1000BB0D1F303A0784001A303B3D80388500FB
:100A2000003FA000013FA1004B08A3004A08A2001C
:100A300091314321803140012108AB002008AA00F8
:100A400091310E21803140012808303ECF008A2D9F
:100A50004C08BA00BB01BA35BB0D00303A07840020
:100A600018303B3D80388500003FA000013FA100C9
:100A70004B08A3004A08A200913143218031400174
:100A800020080F39C400D01A462D472D4C2DB03008
:100A9000C2009930C300502D9F30C2009930C3006E
:100AA0004308BB004208BA0044083A0784003B08E8
:100AB00003183B0A85000008CF008A2D4C08BA00B5
:100AC000BB01BA35BB0DFD303A07840019303B3D00
:100AD00080388500003FA000013FA1004B08A30023
:100AE0004A08A20091314321803140012008073992
:100AF000303ECF008A2D5008C039003A0319002D2E
:100B0000403A03195E2DC03A0319282D403A0319C3
:100B1000002D8A2D4F089E3121268031FF30400163
:100B2000BA003A08CC074C0A031D972D982D7B2D4F
:100B3000D01D9B2D9C2DB82D4E08803ABA008030D8
:100B40003A02031DA52D01304D02031CA82DA92D2D
:100B5000B82D20309E3121268031FF304001CD0755
:100B6000FF30CE3D4D084E04031DB72DB82DA92DE5
:100B700040012F08BB002E08BA00AE0A0319AF0AC5
:100B80003A0884003B0885000008CF004F08031D89
:100B9000CA2DCB2DD22808004001EE000030E9001C
:100BA0000030E8000030E7000030E6004301240890
:100BB0004001D200D301D401D501430123084001F3
:100BC000D600D701D801D9010830D635D70DD80DB8
:100BD000D90D890BE52D430126084001DA00DB0120
:100BE000DC01DD011030DA35DB0DDC0DDD0D890BAC
:100BF000F32D430125084001DD045A08D6045B08A3
:100C0000D7045C08D8045D08D90452085604DE00F5
:100C100053085704DF0054085804E00055085904ED
:100C2000E100663086008701232E5E308400850156
:100C300004304001D20052080319242E12001E0075
:100C4000D20B1E2E242E152E40016908B000680814
:100C5000AF006708AE006608AD004230AC00C83097
:100C6000AB000030AA000030A9008931D4218531C1
:100C700040012C08C6002B08C5002A08C40029081A
:100C8000C30093318123853140016E088600013015
:100C900087004308C03F4408C13F2930AE009A3066
:100CA000AF006E08860001308700403FB000413F32
:100CB000B1008031CE20853100304001ED000030A0
:100CC000EC000030EB000030EA004301280840014E
:100CD000D200D301D401D501430127084001D60039
:100CE000D701D801D9010830D635D70DD80DD90D87
:100CF000890B742E43012A084001DA00DB01DC0174
:100D0000DD011030DA35DB0DDC0DDD0D890B822EB7
:100D1000430129084001DD045A08D6045B08D704C2
:100D20005C08D8045D08D90452085604E200530850
:100D30005704E30054085804E40055085904E5003A
:100D40006A3086008701B22E62308400850104304B
:100D50004001D20052080319B32E12001E00D20B1C
:100D6000AD2EB32EA42E40016D08B0006C08AF006C
:100D70006B08AE006A08AD004230AC00C830AB0072
:100D80000030AA000030A9008931D421853140010A
:100D90002C08C6002B08C5002A08C4002908C30077
:100DA00093318123853140016E08063E8600013073
:100DB00087004308C03F4408C13F0930AE009A3065
:100DC000AF006E08063E860001308700403FB0004D
:100DD000413FB1008031CE20853108004001B9008B
:100DE00040013908860087010108BA000130B000CF
:100DF0003008B9073A089E31C52686310318012FFD
:100E0000032F4001F02E00304001B8000030B70041
:100E10000030B6000030B500B4012D303A06031D95
:100E2000122F132F1F2FB401B40A3908860087012F
:100E30000108BA000130B0003008B907262F2B3066
:100E40003A06031D242F252F262F152F30303A0662
:100E5000031D2B2F2C2F662F3908860087010108D0
:100E6000BA000130B0003008B9072D082E0403196C
:100E70003A2F3B2F422F10302D062E04031D412FF9
:100E8000422F5C2F78303A060319472F482F4E2FF8
:100E900058303A06031D4D2F4E2F5C2F1030AD00F9
:100EA0000030AE003908860087010108BA00013021
:100EB000B0003008B907662F2D082E04031D612FDE
:100EC000622F662F0830AD000030AE002D082E04D2
:100ED000031D6B2F6C2F702F0A30AD000030AE0059
:100EE0003A089E31F8268631031C772F782F812F00
:100EF00040013A089E31B1268631C93E4001BA0010
:100F00008D2F40013A089E3177268631031C892FA8
:100F10008A2FCE2F30304001BA022E08803A803C12
:100F2000031D942F2D083A02031C972F982F992FF9
:100F3000CE2F40013A08B000B101B201B3012D0833
:100F4000A0002E08A100890D893B8909A200A300F9
:100F50003808A7003708A6003608A5003508A40001
:100F60009031DA20863140012008B0072108B13DD8
:100F70002208B23D2308B33D3308B8003208B70059
:100F80003108B6003008B50039088600870101082D
:100F9000BA000130B0003008B907702F40012C08AA
:100FA0000319D32FD42FDA2F2C0886008701390894
:100FB000FF3E810034080319DE2FDF2FEF2F3509A4
:100FC000AC003609AD003709AE003809AF00AC0AF5
:100FD0000319AD0A0319AE0A0319AF0AF72F38082F
:100FE000AF003708AE003608AD003508AC00080089
:100FF0000134063400343E342E34E03400340034FE
:10100000C030860001308700263084000030850023
:1010100020304001A50016001A00A50B0B2808304F
:10102000A10026309E31DE26883108004001AE0046
:101030002E08063E860001308700403FA400413F55
:10104000A500423FA600433FA7002E080E3E8600A3
:1010500001308700403FA800413FA900423FAA005D
:10106000433FAB0027082B02031D402826082A0215
:10107000031D402825082902031D402824082802B2
:10108000031C43284528013046280030AC002E08B8
:10109000063E860001308700403FA400413FA50086
:1010A000423FA600433FA7002008A8002108A9004E
:1010B0002208AA002308AB002408A8022508A93B9F
:1010C0002608AA3B2708AB3B2B08031D71282A08DA
:1010D000031D7128A13028020F30293B0318712805
:1010E00073280130742800304001AD002C0803192A
:1010F0007A287B2894282D0803197F288028942893
:101100002E08163E8600013087002E08173E840008
:1011100001308500000881002E08173E860001304E
:1011200087008101810AA6282E08163E860001301C
:1011300087002E08173E84000130850000088100DA
:101140002E08173E86000130870081012E08163ECA
:101150008600013087000108031DAF28B028BC2895
:101160002E08173E8600013087000103031DB928B1
:10117000BA28BC280130BD28003008004001B0006A
:1011800030080E3E860001308700403FA400413FFA
:10119000A500423FA600433FA7003008063E860058
:1011A00001308700403FA800413FA900423FAA000C
:1011B000433FAB0027082B02031DE82826082A021C
:1011C000031DE82825082902031DE8282408280211
:1011D000031CEB28ED280130EE280030AC0030086D
:1011E0000E3E860001308700403FA400413FA5002D
:1011F000423FA600433FA7002008A8002108A900FD
:101200002208AA002308AB002408A8022508A93B4D
:101210002608AA3B2708AB3B2B08031D1A292A08DE
:10122000031D1A292908031D1A29C9302802031889
:101230001A291C2901301D2900304001AD00300859
:101240000A3E860001308700403FA400413FA500D0
:10125000423FA600433FA70030080E3E8600013003
:101260008700403FA800413FA900423FAA00433FFA
:10127000AB002408A8022508A93B2608AA3B27089A
:10128000AB3B2B08031D4E292A08031D4E29F530C0
:1012900028020130293B03184E29502901305129D9
:1012A00000304001AE003008063E86000130870065
:1012B000403FA400413FA500423FA600433FA70096
:1012C0002008A8002108A9002208AA002308AB00D2
:1012D0002408A8022508A93B2608AA3B2708AB3BFF
:1012E0002B08031D7F292A08031D7F29A03028020F
:1012F0000F30293B031C7D297F29013080290030D4
:101300004001AF002C08031986298729AA292D0836
:1013100003198B298C29AA292E08031990299129B0
:10132000AA292F08031995299629AA293008123EBF
:101330008600013087003008133E840001308500AC
:10134000000881003008133E8600013087008101CB
:10135000810ABC293008123E86000130870030081F
:10136000133E840001308500000881003008133EE0
:1013700086000130870081013008123E860001306E
:1013800087000108031DC529C629D2293008133E4C
:101390008600013087000103031DCF29D029D229FF
:1013A0000130D3290030080040012C088039B600F4
:1013B0002C35BC00AB1FDD29DE29DF293C143C089D
:1013C0000319E329E429F3293C0A031DE829E92943
:1013D000F1290030AC000030AB000030AA00003032
:1013E000A900AB17FB290030AC000030AB00003087
:1013F000AA000030A90030088039B1003108B606D3
:101400003035BB00AF1F052A062A072A3B143B08CC
:1014100003190B2A0C2A1B2A3B0A031D102A112A26
:10142000192A0030B0000030AF000030AE000030AC
:10143000AD00AF17232A0030B0000030AF000030FD
:10144000AE000030AD003B080319272A282A2D2AB8
:101450003C08031D2C2A2D2A362A0030AC0000300F
:10146000AB000030AA000030A9000E2C2908A00013
:101470002F089F31B227893140012108C20020087E
:10148000C1004108B100B201B301B4013408BA008F
:101490003308B9003208B8003108B7004208B1007B
:1014A000B201B301B4013408C0003308BF003208F0
:1014B000BE003108BD002A08A0002E089F31B227C7
:1014C000893140012108C2002008C1004108B10053
:1014D000B201B301B4013108B7073208B83D33088F
:1014E000B93D3408BA3D4208B100B201B301B401BC
:1014F0003108BD073208BE3D3308BF3D3408C03D4A
:101500002B08A0002D089F31B22789314001210806
:10151000C2002008C1004108B100B201B301B4010A
:101520003108B7073208B83D3308B93D3408BA3D31
:101530004208B100B201B301B4013108BD0732085D
:10154000BE3D3308BF3D3408C03D0830B735B80D47
:10155000B90DBA0D890BA62A2A08A0002D089F31C3
:10156000B227893140012108C2002008C10041088A
:10157000B7074208B83D0030B93DBA3D2908A00080
:101580002E089F31B227893140012108C20020086E
:10159000C1004108B7074208B83D0030B93DBA3D27
:1015A0000830B735B80DB90DBA0D890BD12A290805
:1015B000A0002D089F31B227893140012108C200C7
:1015C0002008C1004108B7074208B83D0030B93DC6
:1015D000BA3D2A08A0002F089F31B2278931400167
:1015E0002108C2002008C1004108BD074208BE3DD5
:1015F0000030BF3DC03D2B08A0002E089F31B22710
:10160000893140012108C2002008C1004108BD07FE
:101610004208BE3D0030BF3DC03D2B08A0002F0852
:101620009F31B227893140012108C2002008C10042
:101630004108B1004208B200B301B4010830B1352D
:10164000B20DB30DB40D890B1F2B3108BD07320845
:10165000BE3D3308BF3D3408C03D3708B1003808EF
:10166000B2003908B3003A08B4001830B436B30CED
:10167000B20CB10C890B362B3108BD073208BE3DC8
:101680003308BF3D3408C03D0830B735B80DB90D3B
:10169000BA0D890B452B3C083B07B100B201B20DD6
:1016A0003108823EC100FF30323DC2006E2B013056
:1016B000BD35BE0DBF0DC00D890B582BBA1F612B58
:1016C000622B632B3D140130B735B80DB90DBA0D3F
:1016D000890B642BFF30C107FF30C23DBF1F712B48
:1016E000722B572BBB01BA1F762B772B932BFF3016
:1016F0003705B100FF303805B200FF303905B300BF
:101700007F303A05B400340833043204310403193D
:101710008A2B8B2B8E2BBB01BB0A932B3D1C912B51
:10172000922B932B8B2B3B080319972B982BC02BB9
:101730000130BD070030BE3D0030BF3D0030C03D30
:10174000401CA32BA42BC02B3D08B1003E08B200C7
:101750003F08B3004008B4000130B500B437B30C03
:10176000B20CB10CB50BAE2B3408C0003308BF006F
:101770003208BE003108BD000130C1070030C23D53
:101780004208803AB10080303102031DC92BFF307E
:101790004102031CCC2BCD2BD72B7F304001C00046
:1017A0008030BF000030BE000030BD00022C400180
:1017B0004208803AB10080303102031DE12B013034
:1017C00041020318E42BE52BF02B00304001C00050
:1017D0000030BF000030BE000030BD00B601022C5A
:1017E00040014108BC00FF30BD05FF30BE057F3021
:1017F000BF050030C0053C1CFE2BFF2B002CBF1783
:101800003C36C0003608B1003108C0044008AC00C6
:101810003F08AB003E08AA003D08A90008009D3122
:10182000EE258C319E3139268C319E3154268C31F7
:101830009F3172278C3131309331F2238C314C300F
:101840009331F2238C3102304201A600A101A001A4
:101850009D319D258C3189304001AE009930AF001B
:101860008031CE208C3132304001AE009A30AF0052
:101870001430B0009A30B1008031CE208C31043069
:101880004101C0003D30890B432CC00B432C00327A
:101890009E3146268C318B170B177E013812400182
:1018A00012167E01B812400192169E319D268C318F
:1018B000400123084201A500400122084201A40082
:1018C000400121084201A300400120084201A2007A
:1018D00025084001A300420124084001A200420162
:1018E00023084001A100420122084001A00042015A
:1018F0006E084001A70042016D084001A6004201A8
:101900006C084001A50042016B084001A40092311F
:10191000D2228C3140012308031D9A2C2208031D7A
:101920009A2C2108031D9A2C14302002031C992C98
:101930009A2C8B2F42012508EE002408ED00230885
:10194000EC002208EB00003040010C1A0130B1001D
:101950009E319D268C3140012308B5002208B40039
:101960002108B3002008B200313096314C268C316A
:10197000003040018C1A0130B1009E319D268C311F
:1019800040012308B5002208B4002108B300200854
:10199000B2004C3096314C268C318B2F26304001D2
:1019A000D2000130D3003130D4004C30D50021308A
:1019B000D6002030D7009431DD248C31A62F2508A5
:1019C0004001A300420124084001A2004201230873
:1019D0004001A100420122084001A00042016A0822
:1019E0004001A700420169084001A60042016808C1
:1019F0004001A500420167084001A4009231D222B3
:101A00008C3140012308031D102D2208031D102DC9
:101A1000D03020020730213B031C0F2D102D2C2D20
:101A200042012508EA002408E9002308E80022080A
:101A3000E70027304001D20026309F3133278C3118
:101A400021304101C0007630890B242DC00B242D9C
:101A5000000006304201A600420125084001A30013
:101A6000420124084001A200420123084001A100D4
:101A7000420122084001A00041014F084001A70097
:101A800041014E084001A60041014D084001A5005A
:101A900041014C084001A4009231D2228C31400116
:101AA0002308031D5F2D2208031D5F2D2108031D40
:101AB0005F2D32302002031C5E2D5F2DA62F4201C8
:101AC00025084101CF00420124084101CE00420116
:101AD00023084101CD00420122084101CC0004301D
:101AE0004101C0003D30890B732DC00B732D0032B6
:101AF0009D319D258C3126304001D2000130D3002C
:101B00003130D4004C30D5002130D6002030D70001
:101B10009431DD248C3104304101C0003D30890B0B
:101B20008F2DC00B8F2D00329E3146268C31A62F73
:101B3000A101A00125084001A300420124084001A1
:101B4000A200420123084001A100420122084001F5
:101B5000A00042016A084001A70042016908400153
:101B6000A600420168084001A50042016708400143
:101B7000A4009231D2228C3140012308031DCB2DC9
:101B80002208031DCB2DD03020020730213B031C3F
:101B9000CA2DCB2DE32D42012508EA002408E900D7
:101BA0002308E8002208E700903143208C312130DF
:101BB0004101C0007630890BDB2DC00BDB2D00000E
:101BC00005304201A600420125084001A300420160
:101BD00024084001A200420123084001A100420163
:101BE00022084001A000410153084001A700410123
:101BF00052084001A600410151084001A5004101E1
:101C000050084001A4009231D2228C3140012308B7
:101C1000031D162E2208031D162E2108031D162E45
:101C200032302002031C152E162EA62F4201250845
:101C30004101D300420124084101D200420123089E
:101C40004101D100420122084101D0009D319D2572
:101C50008C3126304001D2000130D3003130D40025
:101C60004C30D5002130D6002030D7009431DD240F
:101C70008C319E3146268C3103304201A600A62FBE
:101C800031304001A0004C30A1002130A2002030B2
:101C9000A300263092313E228C31A62F9D319D2506
:101CA0008C31F8304001AE009830AF008031CE204A
:101CB0008C313B304001AE009A30AF008031CE20F5
:101CC0008C319E3146268C3127304001B3002630BE
:101CD0009031A7208C3104304201A600A62F9D31FF
:101CE0009D258C3188304001AE009830AF008031A6
:101CF000CE208C313B304001AE009A30AF008031B5
:101D0000CE208C319E3146268C3127304001B300E5
:101D10002630903174208C316B2E04304101C0008C
:101D20003D30890B912EC00B912E00329D319D25A7
:101D30008C3157304001AE009930AF008031CE2059
:101D40008C3104304101C0003D30890BA52EC00B01
:101D5000A52E00329E3146268C3142016F080319B0
:101D6000B22EB32E6B2EEF01FD0140011A119E31F0
:101D700046268C312730943163248C3140011A156A
:101D80009D319D258C319D31F8258C3108304001E5
:101D9000AE009830AF009E3102268C3140012308FE
:101DA000B3002208B2002108B1002008B0004201AF
:101DB0002A084001B500420129084001B40042014F
:101DC0002B084101C000C10140084001B60041019B
:101DD00041084001B70042012C084101C200C30183
:101DE00042084001B800410143084001B900803178
:101DF000CE208C3104304101C0003D30890BFE2ED5
:101E0000C00BFE2E00329E3146268C316B2E0430E4
:101E10004101C0003D30890B0B2FC00B0B2F00324E
:101E20009D319D258C31AE304001AE009830AF0021
:101E30008031CE208C3104304101C0003D30890B0F
:101E40001F2FC00B1F2F00329E3146268C314201BE
:101E50006F0803192C2F2D2F872FEF01FD01400153
:101E60001A1127308531CC258C31803102208C31FC
:101E7000420128084001A00000309E310C268C3120
:101E8000420127084001A00001309E310C268C3110
:101E900042012E084001A00002309E310C268C31F8
:101EA00042012D084001A00003309E310C268C31E8
:101EB0009D319B258C3140011A159D319D258C311A
:101EC0009D31F8258C31D3304001AE009830AF0001
:101ED000420128084001B100420127084001B0003A
:101EE00042012E084001B30042012D084001B2001A
:101EF0008031CE208C3104304101C0003D30890B4F
:101F00007F2FC00B7F2F00329E3146268C3102304E
:101F10004201A600A62F42012608003A0319CE2C42
:101F2000023A0319DF2C013A0319402E073A03192C
:101F3000982D013A03198D2E033A0319072F013A00
:101F400003194E2E0F3A03196F2EA62F9E319D2690
:101F50008C31400123084201A500400122084201C2
:101F6000A400400121084201A300400120084201D1
:101F7000A20025084001A300420124084001A2005C
:101F8000420123084001A100420122084001A000B3
:101F900041014B084001A70041014A084001A60049
:101FA000410149084001A500410148084001A40041
:101FB0009231D2228C3140012308031DEA2F2208DE
:101FC000031DEA2FD03020020730213B031CE92FEC
:101FD000EA2F552C420125084101CB00420124087B
:101FE0004101CA00420123084101C90042012208FF
:101FF0004101C800913180218C31552C80316928F4
:102002004001A300A201231C072808280C2820084D
:10201200A1002108A2070310A00D0310A30C23089E
:10202200031D142815280428220808004001A101D4
:10203200A20140011A1111304001A0003A30890B6F
:102042002028A00B2028000040011A151130400161
:10205200A0003A30890B2B28A00B2B28000001305E
:102062004001A1070030A23D2208803AA000803042
:102072002002031D3E2803302102031C412842286E
:102082001A28080040011A119D319D2590311B30FC
:102092004001AE009930AF008031CE209031043043
:1020A2004001D2003D30890B5428D20B5428003213
:1020B2009E31462690314030860003308700A030A2
:1020C20084000030850020304001D20016001A0042
:1020D200D20B67280830A100A0309E31DE26903155
:1020E20040011A1508004001D50020308600033057
:1020F200870035308400003085002030B40016009F
:102102001A00B40B802833088600013087000130A2
:10211200443FB90033088600013087000130453F53
:10212200BA000630AE0035309F31152790310830A5
:102132004001A10035309E31DE2690314001550824
:102142008600013087000430810008004001BD0094
:10215200DA30860000308700353084000030850098
:102162000830B40016001A00B40BB32833088600F6
:10217200013087000130443FB90033088600013046
:1021820087000130453FBA000630AE0035309F313E
:102192001527903108304001A10035309E31DE26EE
:1021A200903140013D0886000130870004308100F3
:1021B200080000304001AB000030AA000030A90046
:1021C2000030A800201CE628E728EF282408A807EA
:1021D2002508A93D2608AA3D2708AB3D0130A435B4
:1021E200A50DA60DA70D890BF0280130A336A20C70
:1021F200A10CA00C890BF728230822042104200437
:10220200031D04290529E3282B08A3002A08A2009C
:102212002908A1002808A000080040012808290474
:102222000319142915293E29AD01AD0A21290130CE
:10223200A835A90D890B19290130AC002C08AD076E
:10224200A91F24292529182929082B02031D2B2916
:1022520028082A02031C2E292F2933292808AA021A
:102262002908AB3B0130A936A80C890B342901306F
:10227200AD02031D3D293E2925292B08A9002A0864
:10228200A80008004001A501A601200821040319A5
:102292004B294C297B29A701A70A58290130A035CF
:1022A200A10D890B50290130A4002408A707A11F02
:1022B2005B295C294F290130A535A60D890B5D29C3
:1022C20021082302031D672920082202031C6A2910
:1022D2006B2970292008A2022108A33B2514013092
:1022E200A136A00C890B71290130A702031D7A299E
:1022F2007B295C292608A1002508A00008004001CE
:10230200C1014108BB00BC01BB35BC0D14303B0709
:1023120084001A303C3D803885000008BE00410828
:10232200BB00BC01BB35BC0D15303B0784001A3025
:102332003C3D803885000008BF00C001AC01103070
:10234200AD000030AE003E308631EE2691314001C4
:102352002C08BD003D08A2004108393E9E311626D8
:10236200913101304001BB003B08C10705304102F9
:10237200031CBC29BD29822908000134063400341B
:102382003F340034FF34003400340034003400346D
:10239200003400340034003400340034003400349B
:1023A200003400340034003400340034003400348B
:1023B2000034003400340034003401340334003477
:1023C200663400340134643415340034003400348B
:1023D200003400340034003400340034003400345B
:1023E200003400340034003400340034003400344B
:1023F2000034003400340034003401340634003434
:1024020038340134C934C734003400340034003461
:10241200003400340034003400340034003400341A
:10242200003400340034003400340034003400340A
:1024320000340034003400340034013406340034F3
:1024420036340134A8340434003400340034003407
:1024520000340034003400340034003400340034DA
:1024620000340034003400340034003400340034CA
:10247200003400340034003400344001A600220845
:102482008600013087000108A4002308860001307D
:1024920087000108A5002403031D502A512A622A3D
:1024A2002508031D552A562A622A2608860001306D
:1024B20087000730810022088600013087008101F1
:1024C2007E2A2408031D662A672A782A2503031D0B
:1024D2006B2A6C2A782A2608860001308700083089
:1024E2008100230886000130870081017E2A2608A8
:1024F200860001308700043081000800003043016B
:102502000F190130F1000030111B0130F200720886
:1025120003198C2A8D2A902A4101D801D12A7108E7
:102522000319942A952AA82A7C08203E86000230A4
:10253200870001088C000130F0007008FC07403071
:102542007C02031CA52AA62ACF2AFC01CF2A0C084A
:10255200F300C32AD801D80ACF2A73083F39FC00F6
:102562000230D800CF2A39307C020318B92ABA2A9D
:10257200C12A7C08203E8600023087007308810051
:10258200D801CF2A41015808003A0319AB2A013A6F
:102592000319AE2A033A0319B42ACF2A43011016AB
:1025A2000800400127082302031DE12A260822020F
:1025B200031DE12A25082102031DE12A2408200225
:1025C200031CE42AE52AFA2A24082002A800250886
:1025D200213BA9002608223BAA002708233BAB0087
:1025E2002B08B3002A08B2002908B1002808B0005D
:1025F2001E2B2008A8002108A9002208AA002308EF
:10260200AB002409AC002509AD002609AE0027095C
:10261200AF002C08A8072D08A93D2E08AA3D2F08B7
:10262200AB3D01302807B0000030293DB100003039
:102632002A3DB20000302B3DB3003308A30032081C
:10264200A2003108A1003008A00008004001A70044
:10265200FF30AC00FF30AD000130A500A030A60075
:10266200A801A9016E2B400128082707A200220811
:10267200860087010108A300A4012308AC062408F0
:10268200AD06AA01AB0140012C1C482B492B532B50
:102692000130AD36AC0C890B4A2B2508AC06260856
:1026A200AD06582B0130AD36AC0C890B542B0130E2
:1026B200AA070030AB3D2B08803AA20080302202EC
:1026C200031D652B08302A02031C682B692B442B3F
:1026D20001304001A8070030A93D2908803AA20034
:1026E20080302202031D772B20082802031C7A2B3C
:1026F2007B2B342B40012D08A1002C08A0000800E0
:1027020003104001450D460DCC004C08031D8A2BD9
:102712008B2B942B0030C6000030C5000030C40063
:102722000030C300F12B4308C7004408C800450825
:10273200C9004608CA001F30CA36C90CC80CC70CEB
:10274200890B9D2B4708CB00C517FF30C305FF300F
:10275200C405FF30C5050030C6059630CC02CC1F3B
:10276200B32BB42BCC2B4C08803A973E0318BA2BD0
:10277200BB2BBC2B8B2B0130C636C50CC40CC30C37
:10278200890BBD2B0130C7004708CC07031DCA2B9C
:10279200CB2BBC2BE12B20304C02031CD12BD22B98
:1027A200DC2B8B2B0130C335C40DC50DC60D890B37
:1027B200D42B0130CC024C08031DE02BE12BD32B90
:1027C2004B080319E52BE62BF12BC309C409C509F4
:1027D200C609C30A0319C40A0319C50A0319C60A9A
:1027E20008004001A0002008860001308700810116
:1027F200810A200A8600013087008101810A2008AF
:10280200023E8600013087000130C03F0030C13FE8
:10281200C23FC33F2008063E8600013087000130D8
:10282200C03F0030C13FC23FC33F20080A3E86007E
:10283200013087000130C03F0030C13FC23FC33F7B
:1028420020080E3E8600013087000130C03F003074
:10285200C13FC23FC33F2008123E860001308700BD
:1028620081012008133E8600013087008101200883
:10287200143E86000130870081012008153E860043
:102882000130870081012008163E86000130870052
:1028920081012008173E860001308700810120084F
:1028A200183E86000130870081012008193E86000B
:1028B20001308700810120081A3E8600013087001E
:1028C200810108004001E000DE01DF016008043EF2
:1028D200860001308700430123088100400160081F
:1028E200053E860001308700430124088100240848
:1028F2004001D200D301D401D50143012308400194
:10290200D600D701D801D9010830D635D70DD80D58
:10291200D90D890B862C52085604DA005308570445
:10292200DB0054085804DC0055085904DD005E3011
:1029320086008701AA2C5A308400850102304001AA
:10294200D20052080319AB2C12001E00D20BA52C88
:10295200AB2C9C2C72304001AE009930AF00600865
:10296200023E860001308700403FB000413FB10087
:102972008031CE2094313A304001AE009930AF0020
:102982006008043E8600013087000108D200D301AE
:102992005208B0005308B1006008053E86000130BD
:1029A20087000108D400D5015408B2005508B300CD
:1029B2008031CE2094310800400154089D31C92550
:1029C2009431003A0319E62CE72C032DE330400141
:1029D200AE009930AF008031CE20943140015608CC
:1029E2008600013087005608840001308500000807
:1029F200013E8100903117209431400154089D31ED
:102A0200DB259431400155089D31C9259431003AA6
:102A120003190C2D0D2D292DF0304001AE009930F7
:102A2200AF008031CE20943140015708860001303A
:102A3200870057088400013085000008013E8100AC
:102A4200903117209431400155089D31DB25943196
:102A5200400154089D31C0259431003A0319322DAA
:102A6200332D612DC1304001AE009930AF0080316D
:102A7200CE20943140015608860001308700560866
:102A82008400013085000008013E8100903117204A
:102A920094319031172094319031172094314001B4
:102AA20054089D31D22594314001520886005308C2
:102AB20087000430810056088600013087008101BA
:102AC200400155089D31C0259431003A03196A2D01
:102AD2006B2D842DD2304001AE009930AF00803191
:102AE200CE209431903117209431903117209431B7
:102AF200400155089D31D225943140015608860087
:102B020001308700810108004001DA005A08DB0029
:102B1200DC01DD01412E5030AE009A30AF005D087D
:102B2200B1005C08B0008031CE2095314001DE0159
:102B3200DF015E085C07D4005F085D3DD5005308E5
:102B42005502031DA62D520854020318A92DAA2DC1
:102B5200C32D5630AE009A30AF005C085B07D4003C
:102B62005E085407D5005508860002308700010828
:102B7200D600D7015608B0005708B1008031CE20E8
:102B82009531CA2D5C30AE009A30AF008031CE2034
:102B9200953101304001DE070030DF3D00305F0239
:102BA200103003195E02031CD72DD82D9A2D5D30EB
:102BB200AE009A30AF008031CE2095314001DE0167
:102BC200DF015E085C07D4005F085D3DD500530855
:102BD2005502031DEE2D520854020318F12DF22D59
:102BE200272E5C085B07D4005E085407D500550801
:102BF20086000230870001089E3164269531031851
:102C0200032E042E0A2E2E304001D8000030D900A7
:102C12001C2E40015C085B07D4005E085407D500F7
:102C220055088600023087000108D600D7015608F1
:102C3200D8005708D9006030AE009A30AF0059086A
:102C4200B1005808B0008031CE20953101304001EA
:102C5200DE070030DF3D00305F02103003195E02F4
:102C6200031C342E352EE22D8530AE009830AF0095
:102C72008031CE20953110304001DC070030DD3D3F
:102C820053085D02031D472E52085C02031C4A2EA4
:102C92004B2E8C2D08004001BA003A088600013004
:102CA20087003A0A840001308500000881003A0A50
:102CB200860001308700310881003A088600013021
:102CC20087000103031D662E672E972E3A0A86009F
:102CD200013087000108031D6F2E702E972E3A08CF
:102CE200063E860001308700403FB600413FB700F4
:102CF200423FB800433FB9003A08023E8600013025
:102D020087003608C03F3708C13F3808C23F39083C
:102D1200C33F3A08063E8600013087003208C03FB2
:102D22003308C13F3408C23F3508C33F3A08860022
:102D3200013087000108031D9F2EA02ED02E3A0AD3
:102D42008600013087000103031DA82EA92ED02E74
:102D52003A080E3E860001308700403FB600413FF0
:102D6200B700423FB800433FB9003A080A3E860026
:102D7200013087003608C03F3708C13F3808C23FDC
:102D82003908C33F3A080E3E8600013087003208F8
:102D9200C03F3308C13F3408C23F3508C33F35083E
:102DA200A3003408A2003308A1003208A0003A08A8
:102DB2008831BE209631003A0319E02EE12EE92E29
:102DC20040013A08183E8600013087008101810ADD
:102DD20040013508A3003408A2003308A1003208DC
:102DE200A0003A0897311E279631003A0319FA2EAD
:102DF200FB2E032F40013A08193E8600013087005E
:102E02008101810A40013508A3003408A200330879
:102E1200A1003208A0003A08883116209631003A03
:102E22000319142F152F1D2F40013A081A3E860050
:102E3200013087008101810A08004001AF002F089C
:102E42000E3E860001308700403FA400413FA500AE
:102E5200423FA600433FA7002F08063E86000130EE
:102E62008700403FA800413FA900423FAA00433FDC
:102E7200AB0027082B02031D482F26082A02031D38
:102E8200482F25082902031D482F24082802031C65
:102E92004B2F4D2F01304E2F0030AC002F080E3E2D
:102EA200860001308700403FA400413FA500423F19
:102EB200A600433FA7002008A8002108A900220875
:102EC200AA002308AB002408A8022508A93B26086B
:102ED200AA3B2708AB3B2B08031D7A2F2A08031DA8
:102EE2007A2F2908031D7A2FC930280203187A2F56
:102EF2007C2F01307D2F00304001AD002F080A3EAB
:102F0200860001308700403FA400413FA500423FB8
:102F1200A600433FA7002F080E3E8600013087001F
:102F2200403FA800413FA900423FAA00433FAB00F7
:102F32002408A8022508A93B2608AA3B2708AB3B80
:102F42002B08031DB02F2A08031DB02FF4302802CE
:102F52000130293B031CAE2FB02F0130B12F0030BE
:102F62004001AE002C080319B72FB82FD62F2D0819
:102F72000319BC2FBD2FD62F2E080319C12FC22F24
:102F8200D62F2F08143E8600013087002F08153EE9
:102F9200840001308500000881002F08153E86005C
:102FA200013087008101810AE82F2F08143E860034
:102FB200013087002F08153E84000130850000088B
:102FC20081002F08153E86000130870081012F08FD
:102FD200143E8600013087000108031DF12FF22FF5
:102FE200FE2F2F08153E8600013087000103031DC6
:102FF200FB2FFC2FFE2F0130FF2F00300800013481
:1030020000341034003400340134003410345B34A2
:103012006C3475345D342034433461346C34693437
:10302200623472346134743469346F346E342034EF
:10303200563461346C34753465343A3420342D346A
:103042002D342D342D3420340D340A342034703490
:1030520048345F346134643463343A342034253480
:10306200753420340D340A34703448345F34683493
:1030720069346734683474345F3462347934743454
:1030820065343A34203425343034323458342034E0
:103092000D340A34703448345F346C346F3477340E
:1030A2005F3462347934743465343A3420342534EC
:1030B20030343234583420340D340A3400345B3422
:1030C20052346534713475346534733474345D3418
:1030D200203464346134743461342034663472349C
:1030E2006F346D34203470346834343438343534C9
:1030F2002034703472346F346234653420342D34A9
:103102002D342D34203420340D340A340034533419
:1031120054344134543445345F3453344134563496
:1031220045345F3442344F34543454344F344D3484
:103132005F34433441344C344934423452344134A0
:10314200543449344F344E345F3450344F3449345C
:103152004E3454340D340A3400345B345034493420
:1031620043345D34203469346E3474346F34203423
:103172007434683465342034533454344134543410
:1031820045345F344F345534543450345534543408
:103192005F34563441344C345534453420340D3484
:1031A2000A3400345B345234783462347534663411
:1031B2005D342034503448343A3420342534753464
:1031C2002034283430342E34303431342A347534B7
:1031D2006E346934743429340D340A345434453429
:1031E2004D3450343A342034253475340034533459
:1031F20054344134543445345F34533441345634B6
:1032020045345F3454344F3450345F3443344134A2
:103212004C344934423452344134543449344F34B6
:103222004E345F3450344F3449344E3454340D34B8
:103232000A3400342D342D342D3420344334613497
:103242006C346934623472346134743469346F3486
:103252006E342D344134443443342D345234653485
:103262007134753465347334743420340D340A3453
:1032720000344E346F3477342D34503448342D3486
:103282004134443443342D34423479347434653413
:103292003A3420342534303432345834203425340E
:1032A2003034323458340D340A34003420342D345E
:1032B2002D342D342D342D342034533454344134B0
:1032C200543445345F344F345534543450345534C7
:1032D20054345F3441344434433420340D340A349A
:1032E20000344E346F3477342D34503448342D3416
:1032F2004134443443342D34763461346C3475347F
:1033020065343A342034253475340D340A340034AB
:10331200503448342034503472346F34623465345B
:10332200203477346934743468342034523453345A
:103332003434383435340D340A34003430343134D2
:10334200323433343434353436343734383439342F
:103352004134423443344434453446340034303406
:103362003134323433343434353436343734383417
:10337200393461346234633464346534663400341D
:103382006234313420346C346F346E346734203418
:103392007034723465347334733420340D340A3427
:1033A20000346234323420346C346F346E34673417
:1033B20020347034723465347334733420340D34F1
:1033C2000A34003462343134203463346C34693466
:1033D20063346B34653464340D340A34003462343B
:1033E2003234203463346C34693463346B3465347E
:1033F20064340D340A3400340134003408340034A7
:103402004034003400340234003410340034803448
:10341200543445344D3450343A34203425347534E0
:103422000D340A34003430344134303431343834D9
:1034320032343034303430343134003401340034F6
:103442000A34003464340034E8340334103427344A
:10345200503448343A342034253475340D340A3427
:10346200003473346E343A342034253473340D34DA
:103472000A340034733461347634653464340D3480
:103482000A34003428346E3475346C346C34293484
:103492000034253430343234583420340034253466
:1034A2003034383478343A340034203425343034EB
:1034B200323478340034203420342034003425343B
:0434C200633400343B
:103B36008B1708007E01A3010F3095000800640072
:103B460080010131890BA32D0034FE0012001E00F6
:103B5600FE0BA92D00347B08F3007A08F2007908E1
:103B6600F1007808F0000800623051018D008F01E5
:103B7600910102309300920108004001A000200844
:103B86001A3E860001308700010808004001A000A7
:103B96002008183E86000130870001080800400111
:103BA600A00020081A3E8600013087008101080027
:103BB6004001A0002008183E8600013087008101E0
:103BC60008004F0196019701980199019A019B01FE
:103BD6009C019D0108009D31E4259D319F31D6272A
:103BE6009D319D31B7259D31080040304001D200FE
:103BF6000030D3002030953185259D3108007B08A3
:103C06004001A3007A08A2007908A1007808A00064
:103C160008004001A1002108203E860002308700EE
:103C26002008810008004001A3008B132208A00091
:103C360023089E310C269E318B1708004001A000F8
:103C46004E010F1E272E282E232E4001200842014A
:103C56009A0008004001A0004E010F1E332E342E9C
:103C66002F2E4001200842019A00080040304B01E7
:103C76009F00F3309D009C014E018C1296168030F9
:103C86004B019E00080004304001A0003D30890B26
:103C96004A2EA00B4A2E00320F307E01A30095015A
:103CA60008004E0199121912083042019F0019307E
:103CB6009B009C0124309E0090309D004E01991679
:103CC60008004001A100A0017F30210203186C2EDC
:103CD6006D2E752E20302102031C722E732E752E2A
:103CE600A001A00A200C08004001A100A0013A3062
:103CF600210203187F2E802E882E30302102031CCD
:103D0600852E862E882EA001A00A200C08004001D0
:103D1600A100A0015B3021020318922E932E9B2E48
:103D260041302102031C982E992E9B2EA001A00A39
:103D3600200C08008B137B084001A7007A08A60018
:103D46007908A5007808A4008B172708A300260881
:103D5600A2002508A1002408A00008004001A10037
:103D66007B3021020318B82EB92EC32E61302102F2
:103D7600031CBE2EBF2EC32EDF30A0002008A105D7
:103D8600210808004001A100A001A00A2030210658
:103D96000319CE2ECF2EDC2E0E3021020318D42E80
:103DA600D52EDB2E093021020318DA2EDB2EDC2E6F
:103DB600A001200C08004001A400A301F12E230855
:103DC6002407A20022088600870101089E312D26BD
:103DD6009E3101304001A2002208A30721082302D8
:103DE600031CF62EF72EE22E08004001A300A201C6
:103DF600A20A7B3023020318012F022F082F6130FD
:103E060023020318072F082F122F23089E318A2614
:103E16009E3103180F2F102F122F4001A2014001CF
:103E2600220C08004001B2002E08A000320893318F
:103E360027239F3140012108B1002008B0002E0839
:103E46003207AF002F0886008701300881002E0850
:103E56003207AF002F0A860087013108810008006B
:103E660040011A119D319D259F3160304001AE0001
:103E76009830AF008031CE209F3104304001D3000E
:103E86003D30890B442FD30B442F00329E314626FA
:103E96009F31883100209F3140011A1508004001EA
:103EA600A401A501201C582F592F5D2F2208A40715
:103EB6002308A53D0130A235A30D890B5E2F0130E5
:103EC600A136A00C890B632F20082104031D6C2F3B
:103ED6006D2F552F2508A1002408A00008004301D6
:103EE6008F013630900001309100D0308D00FF30C8
:103EF6008E004E010F1019144001A1012108203E29
:103F060086000230870081010130A0002008A10749
:103F160040302102031C902F912F812F080001347D
:103F2600033400340134003404341534C934003405
:103F360000340034003400340034003400340034DB
:103F460000340034003400340034003400340034CB
:103F560000340034003400340034003400344001AE
:103F6600A800A401A5012008A200A3012208A6001A
:103F76002308A700281CC02FC12FC52F2608A40779
:103F86002708A53D0130A635A70D890BC62F0310BE
:103F9600A80C2808031DD02FD12FBD2F2508A1005E
:103FA6002408A0000800400198019A013F309200C1
:103FB600133094002C307E01CE003730B800B901A2
:103FC600CF01BA01D0013730BB003F30D1003F30BE
:103FD600BC003F30D2001330A00010307D01C50078
:103FE6000F307E01A3001430A1000F30A500113060
:0A3FF6007D01C6001430CB00080066
:020000040001F9
:08000000FF3FFF3FFF3FFF3F00
:0A000E00EC17FE3F9F3FFF3FFE3F4F
:00000001FF
